{
	"Users/danielbauer/Dropbox/WORK/00. Neue Projekte/X.X.X FORTBILDUNG/X.X.X PROGRAMMIERUNG Db/8.X.X SOLIDITY/X.X.X LEARN WEB 3 DAO/CODE/1.7.0 Freshman - Intro to Solidity/contracts/StringsAndArrays.sol": {
		"Array": {
			"abi": [
				{
					"inputs": [
						{
							"internalType": "uint256",
							"name": "",
							"type": "uint256"
						}
					],
					"name": "arr1",
					"outputs": [
						{
							"internalType": "uint256",
							"name": "",
							"type": "uint256"
						}
					],
					"stateMutability": "view",
					"type": "function"
				},
				{
					"inputs": [
						{
							"internalType": "uint256",
							"name": "",
							"type": "uint256"
						}
					],
					"name": "arr2",
					"outputs": [
						{
							"internalType": "uint256",
							"name": "",
							"type": "uint256"
						}
					],
					"stateMutability": "view",
					"type": "function"
				},
				{
					"inputs": [
						{
							"internalType": "uint256",
							"name": "i",
							"type": "uint256"
						}
					],
					"name": "doStuff",
					"outputs": [],
					"stateMutability": "nonpayable",
					"type": "function"
				},
				{
					"inputs": [],
					"name": "foo",
					"outputs": [
						{
							"internalType": "string",
							"name": "",
							"type": "string"
						}
					],
					"stateMutability": "nonpayable",
					"type": "function"
				},
				{
					"inputs": [
						{
							"internalType": "uint256",
							"name": "i",
							"type": "uint256"
						}
					],
					"name": "get",
					"outputs": [
						{
							"internalType": "uint256",
							"name": "",
							"type": "uint256"
						}
					],
					"stateMutability": "view",
					"type": "function"
				},
				{
					"inputs": [
						{
							"internalType": "uint256[]",
							"name": "_arr",
							"type": "uint256[]"
						}
					],
					"name": "getArr",
					"outputs": [
						{
							"internalType": "uint256[]",
							"name": "",
							"type": "uint256[]"
						}
					],
					"stateMutability": "view",
					"type": "function"
				},
				{
					"inputs": [
						{
							"internalType": "uint256",
							"name": "",
							"type": "uint256"
						}
					],
					"name": "myFixedSizeArr",
					"outputs": [
						{
							"internalType": "uint256",
							"name": "",
							"type": "uint256"
						}
					],
					"stateMutability": "view",
					"type": "function"
				},
				{
					"inputs": [],
					"name": "name",
					"outputs": [
						{
							"internalType": "string",
							"name": "",
							"type": "string"
						}
					],
					"stateMutability": "view",
					"type": "function"
				}
			],
			"devdoc": {
				"kind": "dev",
				"methods": {},
				"version": 1
			},
			"evm": {
				"assembly": "    /* \"Users/danielbauer/Dropbox/WORK/00. Neue Projekte/X.X.X FORTBILDUNG/X.X.X PROGRAMMIERUNG Db/8.X.X SOLIDITY/X.X.X LEARN WEB 3 DAO/CODE/1.7.0 Freshman - Intro to Solidity/contracts/StringsAndArrays.sol\":59:2527  contract Array {... */\n  mstore(0x40, 0x80)\n    /* \"Users/danielbauer/Dropbox/WORK/00. Neue Projekte/X.X.X FORTBILDUNG/X.X.X PROGRAMMIERUNG Db/8.X.X SOLIDITY/X.X.X LEARN WEB 3 DAO/CODE/1.7.0 Freshman - Intro to Solidity/contracts/StringsAndArrays.sol\":129:158  string public name = \"Daniel\" */\n  mload(0x40)\n  dup1\n  0x40\n  add\n  0x40\n  mstore\n  dup1\n  0x06\n  dup2\n  mstore\n  0x20\n  add\n  0x44616e69656c0000000000000000000000000000000000000000000000000000\n  dup2\n  mstore\n  pop\n  0x00\n  swap1\n  dup2\n  tag_1\n  swap2\n  swap1\n  tag_2\n  jump\t// in\ntag_1:\n  pop\n    /* \"Users/danielbauer/Dropbox/WORK/00. Neue Projekte/X.X.X FORTBILDUNG/X.X.X PROGRAMMIERUNG Db/8.X.X SOLIDITY/X.X.X LEARN WEB 3 DAO/CODE/1.7.0 Freshman - Intro to Solidity/contracts/StringsAndArrays.sol\":370:400  uint[] public arr2 = [1, 2, 3] */\n  mload(0x40)\n  dup1\n  0x60\n  add\n  0x40\n  mstore\n  dup1\n    /* \"Users/danielbauer/Dropbox/WORK/00. Neue Projekte/X.X.X FORTBILDUNG/X.X.X PROGRAMMIERUNG Db/8.X.X SOLIDITY/X.X.X LEARN WEB 3 DAO/CODE/1.7.0 Freshman - Intro to Solidity/contracts/StringsAndArrays.sol\":392:393  1 */\n  0x01\n    /* \"Users/danielbauer/Dropbox/WORK/00. Neue Projekte/X.X.X FORTBILDUNG/X.X.X PROGRAMMIERUNG Db/8.X.X SOLIDITY/X.X.X LEARN WEB 3 DAO/CODE/1.7.0 Freshman - Intro to Solidity/contracts/StringsAndArrays.sol\":370:400  uint[] public arr2 = [1, 2, 3] */\n  0xff\n  and\n  dup2\n  mstore\n  0x20\n  add\n    /* \"Users/danielbauer/Dropbox/WORK/00. Neue Projekte/X.X.X FORTBILDUNG/X.X.X PROGRAMMIERUNG Db/8.X.X SOLIDITY/X.X.X LEARN WEB 3 DAO/CODE/1.7.0 Freshman - Intro to Solidity/contracts/StringsAndArrays.sol\":395:396  2 */\n  0x02\n    /* \"Users/danielbauer/Dropbox/WORK/00. Neue Projekte/X.X.X FORTBILDUNG/X.X.X PROGRAMMIERUNG Db/8.X.X SOLIDITY/X.X.X LEARN WEB 3 DAO/CODE/1.7.0 Freshman - Intro to Solidity/contracts/StringsAndArrays.sol\":370:400  uint[] public arr2 = [1, 2, 3] */\n  0xff\n  and\n  dup2\n  mstore\n  0x20\n  add\n    /* \"Users/danielbauer/Dropbox/WORK/00. Neue Projekte/X.X.X FORTBILDUNG/X.X.X PROGRAMMIERUNG Db/8.X.X SOLIDITY/X.X.X LEARN WEB 3 DAO/CODE/1.7.0 Freshman - Intro to Solidity/contracts/StringsAndArrays.sol\":398:399  3 */\n  0x03\n    /* \"Users/danielbauer/Dropbox/WORK/00. Neue Projekte/X.X.X FORTBILDUNG/X.X.X PROGRAMMIERUNG Db/8.X.X SOLIDITY/X.X.X LEARN WEB 3 DAO/CODE/1.7.0 Freshman - Intro to Solidity/contracts/StringsAndArrays.sol\":370:400  uint[] public arr2 = [1, 2, 3] */\n  0xff\n  and\n  dup2\n  mstore\n  pop\n  0x02\n  swap1\n  0x03\n  tag_3\n  swap3\n  swap2\n  swap1\n  tag_4\n  jump\t// in\ntag_3:\n  pop\n    /* \"Users/danielbauer/Dropbox/WORK/00. Neue Projekte/X.X.X FORTBILDUNG/X.X.X PROGRAMMIERUNG Db/8.X.X SOLIDITY/X.X.X LEARN WEB 3 DAO/CODE/1.7.0 Freshman - Intro to Solidity/contracts/StringsAndArrays.sol\":59:2527  contract Array {... */\n  callvalue\n  dup1\n  iszero\n  tag_5\n  jumpi\n  0x00\n  dup1\n  revert\ntag_5:\n  pop\n  jump(tag_6)\ntag_4:\n  dup3\n  dup1\n  sload\n  dup3\n  dup3\n  sstore\n  swap1\n  0x00\n  mstore\n  keccak256(0x00, 0x20)\n  swap1\n  dup2\n  add\n  swap3\n  dup3\n  iszero\n  tag_7\n  jumpi\n  swap2\n  0x20\n  mul\n  dup3\n  add\ntag_8:\n  dup3\n  dup2\n  gt\n  iszero\n  tag_9\n  jumpi\n  dup3\n  mload\n  dup3\n  swap1\n  0xff\n  and\n  swap1\n  sstore\n  swap2\n  0x20\n  add\n  swap2\n  swap1\n  0x01\n  add\n  swap1\n  jump(tag_8)\ntag_9:\ntag_7:\n  pop\n  swap1\n  pop\n  tag_10\n  swap2\n  swap1\n  tag_11\n  jump\t// in\ntag_10:\n  pop\n  swap1\n  jump\t// out\ntag_11:\ntag_12:\n  dup1\n  dup3\n  gt\n  iszero\n  tag_13\n  jumpi\n  0x00\n  dup2\n  0x00\n  swap1\n  sstore\n  pop\n  0x01\n  add\n  jump(tag_12)\ntag_13:\n  pop\n  swap1\n  jump\t// out\n    /* \"#utility.yul\":7:106   */\ntag_14:\n    /* \"#utility.yul\":59:65   */\n  0x00\n    /* \"#utility.yul\":93:98   */\n  dup2\n    /* \"#utility.yul\":87:99   */\n  mload\n    /* \"#utility.yul\":77:99   */\n  swap1\n  pop\n    /* \"#utility.yul\":7:106   */\n  swap2\n  swap1\n  pop\n  jump\t// out\n    /* \"#utility.yul\":112:292   */\ntag_15:\n    /* \"#utility.yul\":160:237   */\n  0x4e487b7100000000000000000000000000000000000000000000000000000000\n    /* \"#utility.yul\":157:158   */\n  0x00\n    /* \"#utility.yul\":150:238   */\n  mstore\n    /* \"#utility.yul\":257:261   */\n  0x41\n    /* \"#utility.yul\":254:255   */\n  0x04\n    /* \"#utility.yul\":247:262   */\n  mstore\n    /* \"#utility.yul\":281:285   */\n  0x24\n    /* \"#utility.yul\":278:279   */\n  0x00\n    /* \"#utility.yul\":271:286   */\n  revert\n    /* \"#utility.yul\":298:478   */\ntag_16:\n    /* \"#utility.yul\":346:423   */\n  0x4e487b7100000000000000000000000000000000000000000000000000000000\n    /* \"#utility.yul\":343:344   */\n  0x00\n    /* \"#utility.yul\":336:424   */\n  mstore\n    /* \"#utility.yul\":443:447   */\n  0x22\n    /* \"#utility.yul\":440:441   */\n  0x04\n    /* \"#utility.yul\":433:448   */\n  mstore\n    /* \"#utility.yul\":467:471   */\n  0x24\n    /* \"#utility.yul\":464:465   */\n  0x00\n    /* \"#utility.yul\":457:472   */\n  revert\n    /* \"#utility.yul\":484:804   */\ntag_17:\n    /* \"#utility.yul\":528:534   */\n  0x00\n    /* \"#utility.yul\":565:566   */\n  0x02\n    /* \"#utility.yul\":559:563   */\n  dup3\n    /* \"#utility.yul\":555:567   */\n  div\n    /* \"#utility.yul\":545:567   */\n  swap1\n  pop\n    /* \"#utility.yul\":612:613   */\n  0x01\n    /* \"#utility.yul\":606:610   */\n  dup3\n    /* \"#utility.yul\":602:614   */\n  and\n    /* \"#utility.yul\":633:651   */\n  dup1\n    /* \"#utility.yul\":623:704   */\n  tag_39\n  jumpi\n    /* \"#utility.yul\":689:693   */\n  0x7f\n    /* \"#utility.yul\":681:687   */\n  dup3\n    /* \"#utility.yul\":677:694   */\n  and\n    /* \"#utility.yul\":667:694   */\n  swap2\n  pop\n    /* \"#utility.yul\":623:704   */\ntag_39:\n    /* \"#utility.yul\":751:753   */\n  0x20\n    /* \"#utility.yul\":743:749   */\n  dup3\n    /* \"#utility.yul\":740:754   */\n  lt\n    /* \"#utility.yul\":720:738   */\n  dup2\n    /* \"#utility.yul\":717:755   */\n  sub\n    /* \"#utility.yul\":714:798   */\n  tag_40\n  jumpi\n    /* \"#utility.yul\":770:788   */\n  tag_41\n  tag_16\n  jump\t// in\ntag_41:\n    /* \"#utility.yul\":714:798   */\ntag_40:\n    /* \"#utility.yul\":535:804   */\n  pop\n    /* \"#utility.yul\":484:804   */\n  swap2\n  swap1\n  pop\n  jump\t// out\n    /* \"#utility.yul\":810:951   */\ntag_18:\n    /* \"#utility.yul\":859:863   */\n  0x00\n    /* \"#utility.yul\":882:885   */\n  dup2\n    /* \"#utility.yul\":874:885   */\n  swap1\n  pop\n    /* \"#utility.yul\":905:908   */\n  dup2\n    /* \"#utility.yul\":902:903   */\n  0x00\n    /* \"#utility.yul\":895:909   */\n  mstore\n    /* \"#utility.yul\":939:943   */\n  0x20\n    /* \"#utility.yul\":936:937   */\n  0x00\n    /* \"#utility.yul\":926:944   */\n  keccak256\n    /* \"#utility.yul\":918:944   */\n  swap1\n  pop\n    /* \"#utility.yul\":810:951   */\n  swap2\n  swap1\n  pop\n  jump\t// out\n    /* \"#utility.yul\":957:1050   */\ntag_19:\n    /* \"#utility.yul\":994:1000   */\n  0x00\n    /* \"#utility.yul\":1041:1043   */\n  0x20\n    /* \"#utility.yul\":1036:1038   */\n  0x1f\n    /* \"#utility.yul\":1029:1034   */\n  dup4\n    /* \"#utility.yul\":1025:1039   */\n  add\n    /* \"#utility.yul\":1021:1044   */\n  div\n    /* \"#utility.yul\":1011:1044   */\n  swap1\n  pop\n    /* \"#utility.yul\":957:1050   */\n  swap2\n  swap1\n  pop\n  jump\t// out\n    /* \"#utility.yul\":1056:1163   */\ntag_20:\n    /* \"#utility.yul\":1100:1108   */\n  0x00\n    /* \"#utility.yul\":1150:1155   */\n  dup3\n    /* \"#utility.yul\":1144:1148   */\n  dup3\n    /* \"#utility.yul\":1140:1156   */\n  shl\n    /* \"#utility.yul\":1119:1156   */\n  swap1\n  pop\n    /* \"#utility.yul\":1056:1163   */\n  swap3\n  swap2\n  pop\n  pop\n  jump\t// out\n    /* \"#utility.yul\":1169:1562   */\ntag_21:\n    /* \"#utility.yul\":1238:1244   */\n  0x00\n    /* \"#utility.yul\":1288:1289   */\n  0x08\n    /* \"#utility.yul\":1276:1286   */\n  dup4\n    /* \"#utility.yul\":1272:1290   */\n  mul\n    /* \"#utility.yul\":1311:1408   */\n  tag_46\n    /* \"#utility.yul\":1341:1407   */\n  0xffffffffffffffffffffffffffffffffffffffffffffffffffffffffffffffff\n    /* \"#utility.yul\":1330:1339   */\n  dup3\n    /* \"#utility.yul\":1311:1408   */\n  tag_20\n  jump\t// in\ntag_46:\n    /* \"#utility.yul\":1429:1468   */\n  tag_47\n    /* \"#utility.yul\":1459:1467   */\n  dup7\n    /* \"#utility.yul\":1448:1457   */\n  dup4\n    /* \"#utility.yul\":1429:1468   */\n  tag_20\n  jump\t// in\ntag_47:\n    /* \"#utility.yul\":1417:1468   */\n  swap6\n  pop\n    /* \"#utility.yul\":1501:1505   */\n  dup1\n    /* \"#utility.yul\":1497:1506   */\n  not\n    /* \"#utility.yul\":1490:1495   */\n  dup5\n    /* \"#utility.yul\":1486:1507   */\n  and\n    /* \"#utility.yul\":1477:1507   */\n  swap4\n  pop\n    /* \"#utility.yul\":1550:1554   */\n  dup1\n    /* \"#utility.yul\":1540:1548   */\n  dup7\n    /* \"#utility.yul\":1536:1555   */\n  and\n    /* \"#utility.yul\":1529:1534   */\n  dup5\n    /* \"#utility.yul\":1526:1556   */\n  or\n    /* \"#utility.yul\":1516:1556   */\n  swap3\n  pop\n    /* \"#utility.yul\":1245:1562   */\n  pop\n  pop\n    /* \"#utility.yul\":1169:1562   */\n  swap4\n  swap3\n  pop\n  pop\n  pop\n  jump\t// out\n    /* \"#utility.yul\":1568:1645   */\ntag_22:\n    /* \"#utility.yul\":1605:1612   */\n  0x00\n    /* \"#utility.yul\":1634:1639   */\n  dup2\n    /* \"#utility.yul\":1623:1639   */\n  swap1\n  pop\n    /* \"#utility.yul\":1568:1645   */\n  swap2\n  swap1\n  pop\n  jump\t// out\n    /* \"#utility.yul\":1651:1711   */\ntag_23:\n    /* \"#utility.yul\":1679:1682   */\n  0x00\n    /* \"#utility.yul\":1700:1705   */\n  dup2\n    /* \"#utility.yul\":1693:1705   */\n  swap1\n  pop\n    /* \"#utility.yul\":1651:1711   */\n  swap2\n  swap1\n  pop\n  jump\t// out\n    /* \"#utility.yul\":1717:1859   */\ntag_24:\n    /* \"#utility.yul\":1767:1776   */\n  0x00\n    /* \"#utility.yul\":1800:1853   */\n  tag_51\n    /* \"#utility.yul\":1818:1852   */\n  tag_52\n    /* \"#utility.yul\":1827:1851   */\n  tag_53\n    /* \"#utility.yul\":1845:1850   */\n  dup5\n    /* \"#utility.yul\":1827:1851   */\n  tag_22\n  jump\t// in\ntag_53:\n    /* \"#utility.yul\":1818:1852   */\n  tag_23\n  jump\t// in\ntag_52:\n    /* \"#utility.yul\":1800:1853   */\n  tag_22\n  jump\t// in\ntag_51:\n    /* \"#utility.yul\":1787:1853   */\n  swap1\n  pop\n    /* \"#utility.yul\":1717:1859   */\n  swap2\n  swap1\n  pop\n  jump\t// out\n    /* \"#utility.yul\":1865:1940   */\ntag_25:\n    /* \"#utility.yul\":1908:1911   */\n  0x00\n    /* \"#utility.yul\":1929:1934   */\n  dup2\n    /* \"#utility.yul\":1922:1934   */\n  swap1\n  pop\n    /* \"#utility.yul\":1865:1940   */\n  swap2\n  swap1\n  pop\n  jump\t// out\n    /* \"#utility.yul\":1946:2215   */\ntag_26:\n    /* \"#utility.yul\":2056:2095   */\n  tag_56\n    /* \"#utility.yul\":2087:2094   */\n  dup4\n    /* \"#utility.yul\":2056:2095   */\n  tag_24\n  jump\t// in\ntag_56:\n    /* \"#utility.yul\":2117:2208   */\n  tag_57\n    /* \"#utility.yul\":2166:2207   */\n  tag_58\n    /* \"#utility.yul\":2190:2206   */\n  dup3\n    /* \"#utility.yul\":2166:2207   */\n  tag_25\n  jump\t// in\ntag_58:\n    /* \"#utility.yul\":2158:2164   */\n  dup5\n    /* \"#utility.yul\":2151:2155   */\n  dup5\n    /* \"#utility.yul\":2145:2156   */\n  sload\n    /* \"#utility.yul\":2117:2208   */\n  tag_21\n  jump\t// in\ntag_57:\n    /* \"#utility.yul\":2111:2115   */\n  dup3\n    /* \"#utility.yul\":2104:2209   */\n  sstore\n    /* \"#utility.yul\":2022:2215   */\n  pop\n    /* \"#utility.yul\":1946:2215   */\n  pop\n  pop\n  pop\n  jump\t// out\n    /* \"#utility.yul\":2221:2294   */\ntag_27:\n    /* \"#utility.yul\":2266:2269   */\n  0x00\n    /* \"#utility.yul\":2221:2294   */\n  swap1\n  jump\t// out\n    /* \"#utility.yul\":2300:2489   */\ntag_28:\n    /* \"#utility.yul\":2377:2409   */\n  tag_61\n  tag_27\n  jump\t// in\ntag_61:\n    /* \"#utility.yul\":2418:2483   */\n  tag_62\n    /* \"#utility.yul\":2476:2482   */\n  dup2\n    /* \"#utility.yul\":2468:2474   */\n  dup5\n    /* \"#utility.yul\":2462:2466   */\n  dup5\n    /* \"#utility.yul\":2418:2483   */\n  tag_26\n  jump\t// in\ntag_62:\n    /* \"#utility.yul\":2353:2489   */\n  pop\n    /* \"#utility.yul\":2300:2489   */\n  pop\n  pop\n  jump\t// out\n    /* \"#utility.yul\":2495:2681   */\ntag_29:\n    /* \"#utility.yul\":2555:2675   */\ntag_64:\n    /* \"#utility.yul\":2572:2575   */\n  dup2\n    /* \"#utility.yul\":2565:2570   */\n  dup2\n    /* \"#utility.yul\":2562:2576   */\n  lt\n    /* \"#utility.yul\":2555:2675   */\n  iszero\n  tag_66\n  jumpi\n    /* \"#utility.yul\":2626:2665   */\n  tag_67\n    /* \"#utility.yul\":2663:2664   */\n  0x00\n    /* \"#utility.yul\":2656:2661   */\n  dup3\n    /* \"#utility.yul\":2626:2665   */\n  tag_28\n  jump\t// in\ntag_67:\n    /* \"#utility.yul\":2599:2600   */\n  0x01\n    /* \"#utility.yul\":2592:2597   */\n  dup2\n    /* \"#utility.yul\":2588:2601   */\n  add\n    /* \"#utility.yul\":2579:2601   */\n  swap1\n  pop\n    /* \"#utility.yul\":2555:2675   */\n  jump(tag_64)\ntag_66:\n    /* \"#utility.yul\":2495:2681   */\n  pop\n  pop\n  jump\t// out\n    /* \"#utility.yul\":2687:3230   */\ntag_30:\n    /* \"#utility.yul\":2788:2790   */\n  0x1f\n    /* \"#utility.yul\":2783:2786   */\n  dup3\n    /* \"#utility.yul\":2780:2791   */\n  gt\n    /* \"#utility.yul\":2777:3223   */\n  iszero\n  tag_69\n  jumpi\n    /* \"#utility.yul\":2822:2860   */\n  tag_70\n    /* \"#utility.yul\":2854:2859   */\n  dup2\n    /* \"#utility.yul\":2822:2860   */\n  tag_18\n  jump\t// in\ntag_70:\n    /* \"#utility.yul\":2906:2935   */\n  tag_71\n    /* \"#utility.yul\":2924:2934   */\n  dup5\n    /* \"#utility.yul\":2906:2935   */\n  tag_19\n  jump\t// in\ntag_71:\n    /* \"#utility.yul\":2896:2904   */\n  dup2\n    /* \"#utility.yul\":2892:2936   */\n  add\n    /* \"#utility.yul\":3089:3091   */\n  0x20\n    /* \"#utility.yul\":3077:3087   */\n  dup6\n    /* \"#utility.yul\":3074:3092   */\n  lt\n    /* \"#utility.yul\":3071:3120   */\n  iszero\n  tag_72\n  jumpi\n    /* \"#utility.yul\":3110:3118   */\n  dup2\n    /* \"#utility.yul\":3095:3118   */\n  swap1\n  pop\n    /* \"#utility.yul\":3071:3120   */\ntag_72:\n    /* \"#utility.yul\":3133:3213   */\n  tag_73\n    /* \"#utility.yul\":3189:3211   */\n  tag_74\n    /* \"#utility.yul\":3207:3210   */\n  dup6\n    /* \"#utility.yul\":3189:3211   */\n  tag_19\n  jump\t// in\ntag_74:\n    /* \"#utility.yul\":3179:3187   */\n  dup4\n    /* \"#utility.yul\":3175:3212   */\n  add\n    /* \"#utility.yul\":3162:3173   */\n  dup3\n    /* \"#utility.yul\":3133:3213   */\n  tag_29\n  jump\t// in\ntag_73:\n    /* \"#utility.yul\":2792:3223   */\n  pop\n  pop\n    /* \"#utility.yul\":2777:3223   */\ntag_69:\n    /* \"#utility.yul\":2687:3230   */\n  pop\n  pop\n  pop\n  jump\t// out\n    /* \"#utility.yul\":3236:3353   */\ntag_31:\n    /* \"#utility.yul\":3290:3298   */\n  0x00\n    /* \"#utility.yul\":3340:3345   */\n  dup3\n    /* \"#utility.yul\":3334:3338   */\n  dup3\n    /* \"#utility.yul\":3330:3346   */\n  shr\n    /* \"#utility.yul\":3309:3346   */\n  swap1\n  pop\n    /* \"#utility.yul\":3236:3353   */\n  swap3\n  swap2\n  pop\n  pop\n  jump\t// out\n    /* \"#utility.yul\":3359:3528   */\ntag_32:\n    /* \"#utility.yul\":3403:3409   */\n  0x00\n    /* \"#utility.yul\":3436:3487   */\n  tag_77\n    /* \"#utility.yul\":3484:3485   */\n  0x00\n    /* \"#utility.yul\":3480:3486   */\n  not\n    /* \"#utility.yul\":3472:3477   */\n  dup5\n    /* \"#utility.yul\":3469:3470   */\n  0x08\n    /* \"#utility.yul\":3465:3478   */\n  mul\n    /* \"#utility.yul\":3436:3487   */\n  tag_31\n  jump\t// in\ntag_77:\n    /* \"#utility.yul\":3432:3488   */\n  not\n    /* \"#utility.yul\":3517:3521   */\n  dup1\n    /* \"#utility.yul\":3511:3515   */\n  dup4\n    /* \"#utility.yul\":3507:3522   */\n  and\n    /* \"#utility.yul\":3497:3522   */\n  swap2\n  pop\n    /* \"#utility.yul\":3410:3528   */\n  pop\n    /* \"#utility.yul\":3359:3528   */\n  swap3\n  swap2\n  pop\n  pop\n  jump\t// out\n    /* \"#utility.yul\":3533:3828   */\ntag_33:\n    /* \"#utility.yul\":3609:3613   */\n  0x00\n    /* \"#utility.yul\":3755:3784   */\n  tag_79\n    /* \"#utility.yul\":3780:3783   */\n  dup4\n    /* \"#utility.yul\":3774:3778   */\n  dup4\n    /* \"#utility.yul\":3755:3784   */\n  tag_32\n  jump\t// in\ntag_79:\n    /* \"#utility.yul\":3747:3784   */\n  swap2\n  pop\n    /* \"#utility.yul\":3817:3820   */\n  dup3\n    /* \"#utility.yul\":3814:3815   */\n  0x02\n    /* \"#utility.yul\":3810:3821   */\n  mul\n    /* \"#utility.yul\":3804:3808   */\n  dup3\n    /* \"#utility.yul\":3801:3822   */\n  or\n    /* \"#utility.yul\":3793:3822   */\n  swap1\n  pop\n    /* \"#utility.yul\":3533:3828   */\n  swap3\n  swap2\n  pop\n  pop\n  jump\t// out\n    /* \"#utility.yul\":3833:5228   */\ntag_2:\n    /* \"#utility.yul\":3950:3987   */\n  tag_81\n    /* \"#utility.yul\":3983:3986   */\n  dup3\n    /* \"#utility.yul\":3950:3987   */\n  tag_14\n  jump\t// in\ntag_81:\n    /* \"#utility.yul\":4052:4070   */\n  0xffffffffffffffff\n    /* \"#utility.yul\":4044:4050   */\n  dup2\n    /* \"#utility.yul\":4041:4071   */\n  gt\n    /* \"#utility.yul\":4038:4094   */\n  iszero\n  tag_82\n  jumpi\n    /* \"#utility.yul\":4074:4092   */\n  tag_83\n  tag_15\n  jump\t// in\ntag_83:\n    /* \"#utility.yul\":4038:4094   */\ntag_82:\n    /* \"#utility.yul\":4118:4156   */\n  tag_84\n    /* \"#utility.yul\":4150:4154   */\n  dup3\n    /* \"#utility.yul\":4144:4155   */\n  sload\n    /* \"#utility.yul\":4118:4156   */\n  tag_17\n  jump\t// in\ntag_84:\n    /* \"#utility.yul\":4203:4270   */\n  tag_85\n    /* \"#utility.yul\":4263:4269   */\n  dup3\n    /* \"#utility.yul\":4255:4261   */\n  dup3\n    /* \"#utility.yul\":4249:4253   */\n  dup6\n    /* \"#utility.yul\":4203:4270   */\n  tag_30\n  jump\t// in\ntag_85:\n    /* \"#utility.yul\":4297:4298   */\n  0x00\n    /* \"#utility.yul\":4321:4325   */\n  0x20\n    /* \"#utility.yul\":4308:4325   */\n  swap1\n  pop\n    /* \"#utility.yul\":4353:4355   */\n  0x1f\n    /* \"#utility.yul\":4345:4351   */\n  dup4\n    /* \"#utility.yul\":4342:4356   */\n  gt\n    /* \"#utility.yul\":4370:4371   */\n  0x01\n    /* \"#utility.yul\":4365:4983   */\n  dup2\n  eq\n  tag_87\n  jumpi\n    /* \"#utility.yul\":5027:5028   */\n  0x00\n    /* \"#utility.yul\":5044:5050   */\n  dup5\n    /* \"#utility.yul\":5041:5118   */\n  iszero\n  tag_88\n  jumpi\n    /* \"#utility.yul\":5093:5102   */\n  dup3\n    /* \"#utility.yul\":5088:5091   */\n  dup8\n    /* \"#utility.yul\":5084:5103   */\n  add\n    /* \"#utility.yul\":5078:5104   */\n  mload\n    /* \"#utility.yul\":5069:5104   */\n  swap1\n  pop\n    /* \"#utility.yul\":5041:5118   */\ntag_88:\n    /* \"#utility.yul\":5144:5211   */\n  tag_89\n    /* \"#utility.yul\":5204:5210   */\n  dup6\n    /* \"#utility.yul\":5197:5202   */\n  dup3\n    /* \"#utility.yul\":5144:5211   */\n  tag_33\n  jump\t// in\ntag_89:\n    /* \"#utility.yul\":5138:5142   */\n  dup7\n    /* \"#utility.yul\":5131:5212   */\n  sstore\n    /* \"#utility.yul\":5000:5222   */\n  pop\n    /* \"#utility.yul\":4335:5222   */\n  jump(tag_86)\n    /* \"#utility.yul\":4365:4983   */\ntag_87:\n    /* \"#utility.yul\":4417:4421   */\n  0x1f\n    /* \"#utility.yul\":4413:4422   */\n  not\n    /* \"#utility.yul\":4405:4411   */\n  dup5\n    /* \"#utility.yul\":4401:4423   */\n  and\n    /* \"#utility.yul\":4451:4488   */\n  tag_90\n    /* \"#utility.yul\":4483:4487   */\n  dup7\n    /* \"#utility.yul\":4451:4488   */\n  tag_18\n  jump\t// in\ntag_90:\n    /* \"#utility.yul\":4510:4511   */\n  0x00\n    /* \"#utility.yul\":4524:4732   */\ntag_91:\n    /* \"#utility.yul\":4538:4545   */\n  dup3\n    /* \"#utility.yul\":4535:4536   */\n  dup2\n    /* \"#utility.yul\":4532:4546   */\n  lt\n    /* \"#utility.yul\":4524:4732   */\n  iszero\n  tag_93\n  jumpi\n    /* \"#utility.yul\":4617:4626   */\n  dup5\n    /* \"#utility.yul\":4612:4615   */\n  dup10\n    /* \"#utility.yul\":4608:4627   */\n  add\n    /* \"#utility.yul\":4602:4628   */\n  mload\n    /* \"#utility.yul\":4594:4600   */\n  dup3\n    /* \"#utility.yul\":4587:4629   */\n  sstore\n    /* \"#utility.yul\":4668:4669   */\n  0x01\n    /* \"#utility.yul\":4660:4666   */\n  dup3\n    /* \"#utility.yul\":4656:4670   */\n  add\n    /* \"#utility.yul\":4646:4670   */\n  swap2\n  pop\n    /* \"#utility.yul\":4715:4717   */\n  0x20\n    /* \"#utility.yul\":4704:4713   */\n  dup6\n    /* \"#utility.yul\":4700:4718   */\n  add\n    /* \"#utility.yul\":4687:4718   */\n  swap5\n  pop\n    /* \"#utility.yul\":4561:4565   */\n  0x20\n    /* \"#utility.yul\":4558:4559   */\n  dup2\n    /* \"#utility.yul\":4554:4566   */\n  add\n    /* \"#utility.yul\":4549:4566   */\n  swap1\n  pop\n    /* \"#utility.yul\":4524:4732   */\n  jump(tag_91)\ntag_93:\n    /* \"#utility.yul\":4760:4766   */\n  dup7\n    /* \"#utility.yul\":4751:4758   */\n  dup4\n    /* \"#utility.yul\":4748:4767   */\n  lt\n    /* \"#utility.yul\":4745:4924   */\n  iszero\n  tag_94\n  jumpi\n    /* \"#utility.yul\":4818:4827   */\n  dup5\n    /* \"#utility.yul\":4813:4816   */\n  dup10\n    /* \"#utility.yul\":4809:4828   */\n  add\n    /* \"#utility.yul\":4803:4829   */\n  mload\n    /* \"#utility.yul\":4861:4909   */\n  tag_95\n    /* \"#utility.yul\":4903:4907   */\n  0x1f\n    /* \"#utility.yul\":4895:4901   */\n  dup10\n    /* \"#utility.yul\":4891:4908   */\n  and\n    /* \"#utility.yul\":4880:4889   */\n  dup3\n    /* \"#utility.yul\":4861:4909   */\n  tag_32\n  jump\t// in\ntag_95:\n    /* \"#utility.yul\":4853:4859   */\n  dup4\n    /* \"#utility.yul\":4846:4910   */\n  sstore\n    /* \"#utility.yul\":4768:4924   */\n  pop\n    /* \"#utility.yul\":4745:4924   */\ntag_94:\n    /* \"#utility.yul\":4970:4971   */\n  0x01\n    /* \"#utility.yul\":4966:4967   */\n  0x02\n    /* \"#utility.yul\":4958:4964   */\n  dup9\n    /* \"#utility.yul\":4954:4968   */\n  mul\n    /* \"#utility.yul\":4950:4972   */\n  add\n    /* \"#utility.yul\":4944:4948   */\n  dup9\n    /* \"#utility.yul\":4937:4973   */\n  sstore\n    /* \"#utility.yul\":4372:4983   */\n  pop\n  pop\n  pop\n    /* \"#utility.yul\":4335:5222   */\ntag_86:\n  pop\n    /* \"#utility.yul\":3925:5228   */\n  pop\n  pop\n  pop\n    /* \"#utility.yul\":3833:5228   */\n  pop\n  pop\n  jump\t// out\n    /* \"Users/danielbauer/Dropbox/WORK/00. Neue Projekte/X.X.X FORTBILDUNG/X.X.X PROGRAMMIERUNG Db/8.X.X SOLIDITY/X.X.X LEARN WEB 3 DAO/CODE/1.7.0 Freshman - Intro to Solidity/contracts/StringsAndArrays.sol\":59:2527  contract Array {... */\ntag_6:\n  dataSize(sub_0)\n  dup1\n  dataOffset(sub_0)\n  0x00\n  codecopy\n  0x00\n  return\nstop\n\nsub_0: assembly {\n        /* \"Users/danielbauer/Dropbox/WORK/00. Neue Projekte/X.X.X FORTBILDUNG/X.X.X PROGRAMMIERUNG Db/8.X.X SOLIDITY/X.X.X LEARN WEB 3 DAO/CODE/1.7.0 Freshman - Intro to Solidity/contracts/StringsAndArrays.sol\":59:2527  contract Array {... */\n      mstore(0x40, 0x80)\n      callvalue\n      dup1\n      iszero\n      tag_1\n      jumpi\n      0x00\n      dup1\n      revert\n    tag_1:\n      pop\n      jumpi(tag_2, lt(calldatasize, 0x04))\n      shr(0xe0, calldataload(0x00))\n      dup1\n      0x9507d39a\n      gt\n      tag_11\n      jumpi\n      dup1\n      0x9507d39a\n      eq\n      tag_7\n      jumpi\n      dup1\n      0x98d477ce\n      eq\n      tag_8\n      jumpi\n      dup1\n      0xc2985578\n      eq\n      tag_9\n      jumpi\n      dup1\n      0xedf0099b\n      eq\n      tag_10\n      jumpi\n      jump(tag_2)\n    tag_11:\n      dup1\n      0x06fdde03\n      eq\n      tag_3\n      jumpi\n      dup1\n      0x23bad5cd\n      eq\n      tag_4\n      jumpi\n      dup1\n      0x38a067ce\n      eq\n      tag_5\n      jumpi\n      dup1\n      0x6987b1fb\n      eq\n      tag_6\n      jumpi\n    tag_2:\n      0x00\n      dup1\n      revert\n        /* \"Users/danielbauer/Dropbox/WORK/00. Neue Projekte/X.X.X FORTBILDUNG/X.X.X PROGRAMMIERUNG Db/8.X.X SOLIDITY/X.X.X LEARN WEB 3 DAO/CODE/1.7.0 Freshman - Intro to Solidity/contracts/StringsAndArrays.sol\":129:158  string public name = \"Daniel\" */\n    tag_3:\n      tag_12\n      tag_13\n      jump\t// in\n    tag_12:\n      mload(0x40)\n      tag_14\n      swap2\n      swap1\n      tag_15\n      jump\t// in\n    tag_14:\n      mload(0x40)\n      dup1\n      swap2\n      sub\n      swap1\n      return\n        /* \"Users/danielbauer/Dropbox/WORK/00. Neue Projekte/X.X.X FORTBILDUNG/X.X.X PROGRAMMIERUNG Db/8.X.X SOLIDITY/X.X.X LEARN WEB 3 DAO/CODE/1.7.0 Freshman - Intro to Solidity/contracts/StringsAndArrays.sol\":1786:2525  function doStuff(uint i) public {... */\n    tag_4:\n      tag_16\n      0x04\n      dup1\n      calldatasize\n      sub\n      dup2\n      add\n      swap1\n      tag_17\n      swap2\n      swap1\n      tag_18\n      jump\t// in\n    tag_17:\n      tag_19\n      jump\t// in\n    tag_16:\n      stop\n        /* \"Users/danielbauer/Dropbox/WORK/00. Neue Projekte/X.X.X FORTBILDUNG/X.X.X PROGRAMMIERUNG Db/8.X.X SOLIDITY/X.X.X LEARN WEB 3 DAO/CODE/1.7.0 Freshman - Intro to Solidity/contracts/StringsAndArrays.sol\":462:492  uint[10] public myFixedSizeArr */\n    tag_5:\n      tag_20\n      0x04\n      dup1\n      calldatasize\n      sub\n      dup2\n      add\n      swap1\n      tag_21\n      swap2\n      swap1\n      tag_18\n      jump\t// in\n    tag_21:\n      tag_22\n      jump\t// in\n    tag_20:\n      mload(0x40)\n      tag_23\n      swap2\n      swap1\n      tag_24\n      jump\t// in\n    tag_23:\n      mload(0x40)\n      dup1\n      swap2\n      sub\n      swap1\n      return\n        /* \"Users/danielbauer/Dropbox/WORK/00. Neue Projekte/X.X.X FORTBILDUNG/X.X.X PROGRAMMIERUNG Db/8.X.X SOLIDITY/X.X.X LEARN WEB 3 DAO/CODE/1.7.0 Freshman - Intro to Solidity/contracts/StringsAndArrays.sol\":346:364  uint[] public arr1 */\n    tag_6:\n      tag_25\n      0x04\n      dup1\n      calldatasize\n      sub\n      dup2\n      add\n      swap1\n      tag_26\n      swap2\n      swap1\n      tag_18\n      jump\t// in\n    tag_26:\n      tag_27\n      jump\t// in\n    tag_25:\n      mload(0x40)\n      tag_28\n      swap2\n      swap1\n      tag_24\n      jump\t// in\n    tag_28:\n      mload(0x40)\n      dup1\n      swap2\n      sub\n      swap1\n      return\n        /* \"Users/danielbauer/Dropbox/WORK/00. Neue Projekte/X.X.X FORTBILDUNG/X.X.X PROGRAMMIERUNG Db/8.X.X SOLIDITY/X.X.X LEARN WEB 3 DAO/CODE/1.7.0 Freshman - Intro to Solidity/contracts/StringsAndArrays.sol\":613:692  function get(uint i) public view returns (uint) {... */\n    tag_7:\n      tag_29\n      0x04\n      dup1\n      calldatasize\n      sub\n      dup2\n      add\n      swap1\n      tag_30\n      swap2\n      swap1\n      tag_18\n      jump\t// in\n    tag_30:\n      tag_31\n      jump\t// in\n    tag_29:\n      mload(0x40)\n      tag_32\n      swap2\n      swap1\n      tag_24\n      jump\t// in\n    tag_32:\n      mload(0x40)\n      dup1\n      swap2\n      sub\n      swap1\n      return\n        /* \"Users/danielbauer/Dropbox/WORK/00. Neue Projekte/X.X.X FORTBILDUNG/X.X.X PROGRAMMIERUNG Db/8.X.X SOLIDITY/X.X.X LEARN WEB 3 DAO/CODE/1.7.0 Freshman - Intro to Solidity/contracts/StringsAndArrays.sol\":1384:1484  function getArr(uint[] memory _arr) public view returns (uint[] memory) {... */\n    tag_8:\n      tag_33\n      0x04\n      dup1\n      calldatasize\n      sub\n      dup2\n      add\n      swap1\n      tag_34\n      swap2\n      swap1\n      tag_35\n      jump\t// in\n    tag_34:\n      tag_36\n      jump\t// in\n    tag_33:\n      mload(0x40)\n      tag_37\n      swap2\n      swap1\n      tag_38\n      jump\t// in\n    tag_37:\n      mload(0x40)\n      dup1\n      swap2\n      sub\n      swap1\n      return\n        /* \"Users/danielbauer/Dropbox/WORK/00. Neue Projekte/X.X.X FORTBILDUNG/X.X.X PROGRAMMIERUNG Db/8.X.X SOLIDITY/X.X.X LEARN WEB 3 DAO/CODE/1.7.0 Freshman - Intro to Solidity/contracts/StringsAndArrays.sol\":1707:1780  function foo() public returns (string memory) {... */\n    tag_9:\n      tag_39\n      tag_40\n      jump\t// in\n    tag_39:\n      mload(0x40)\n      tag_41\n      swap2\n      swap1\n      tag_15\n      jump\t// in\n    tag_41:\n      mload(0x40)\n      dup1\n      swap2\n      sub\n      swap1\n      return\n        /* \"Users/danielbauer/Dropbox/WORK/00. Neue Projekte/X.X.X FORTBILDUNG/X.X.X PROGRAMMIERUNG Db/8.X.X SOLIDITY/X.X.X LEARN WEB 3 DAO/CODE/1.7.0 Freshman - Intro to Solidity/contracts/StringsAndArrays.sol\":370:400  uint[] public arr2 = [1, 2, 3] */\n    tag_10:\n      tag_42\n      0x04\n      dup1\n      calldatasize\n      sub\n      dup2\n      add\n      swap1\n      tag_43\n      swap2\n      swap1\n      tag_18\n      jump\t// in\n    tag_43:\n      tag_44\n      jump\t// in\n    tag_42:\n      mload(0x40)\n      tag_45\n      swap2\n      swap1\n      tag_24\n      jump\t// in\n    tag_45:\n      mload(0x40)\n      dup1\n      swap2\n      sub\n      swap1\n      return\n        /* \"Users/danielbauer/Dropbox/WORK/00. Neue Projekte/X.X.X FORTBILDUNG/X.X.X PROGRAMMIERUNG Db/8.X.X SOLIDITY/X.X.X LEARN WEB 3 DAO/CODE/1.7.0 Freshman - Intro to Solidity/contracts/StringsAndArrays.sol\":129:158  string public name = \"Daniel\" */\n    tag_13:\n      0x00\n      dup1\n      sload\n      tag_46\n      swap1\n      tag_47\n      jump\t// in\n    tag_46:\n      dup1\n      0x1f\n      add\n      0x20\n      dup1\n      swap2\n      div\n      mul\n      0x20\n      add\n      mload(0x40)\n      swap1\n      dup2\n      add\n      0x40\n      mstore\n      dup1\n      swap3\n      swap2\n      swap1\n      dup2\n      dup2\n      mstore\n      0x20\n      add\n      dup3\n      dup1\n      sload\n      tag_48\n      swap1\n      tag_47\n      jump\t// in\n    tag_48:\n      dup1\n      iszero\n      tag_49\n      jumpi\n      dup1\n      0x1f\n      lt\n      tag_50\n      jumpi\n      0x0100\n      dup1\n      dup4\n      sload\n      div\n      mul\n      dup4\n      mstore\n      swap2\n      0x20\n      add\n      swap2\n      jump(tag_49)\n    tag_50:\n      dup3\n      add\n      swap2\n      swap1\n      0x00\n      mstore\n      keccak256(0x00, 0x20)\n      swap1\n    tag_51:\n      dup2\n      sload\n      dup2\n      mstore\n      swap1\n      0x01\n      add\n      swap1\n      0x20\n      add\n      dup1\n      dup4\n      gt\n      tag_51\n      jumpi\n      dup3\n      swap1\n      sub\n      0x1f\n      and\n      dup3\n      add\n      swap2\n    tag_49:\n      pop\n      pop\n      pop\n      pop\n      pop\n      dup2\n      jump\t// out\n        /* \"Users/danielbauer/Dropbox/WORK/00. Neue Projekte/X.X.X FORTBILDUNG/X.X.X PROGRAMMIERUNG Db/8.X.X SOLIDITY/X.X.X LEARN WEB 3 DAO/CODE/1.7.0 Freshman - Intro to Solidity/contracts/StringsAndArrays.sol\":1786:2525  function doStuff(uint i) public {... */\n    tag_19:\n        /* \"Users/danielbauer/Dropbox/WORK/00. Neue Projekte/X.X.X FORTBILDUNG/X.X.X PROGRAMMIERUNG Db/8.X.X SOLIDITY/X.X.X LEARN WEB 3 DAO/CODE/1.7.0 Freshman - Intro to Solidity/contracts/StringsAndArrays.sol\":1908:1912  arr2 */\n      0x02\n        /* \"Users/danielbauer/Dropbox/WORK/00. Neue Projekte/X.X.X FORTBILDUNG/X.X.X PROGRAMMIERUNG Db/8.X.X SOLIDITY/X.X.X LEARN WEB 3 DAO/CODE/1.7.0 Freshman - Intro to Solidity/contracts/StringsAndArrays.sol\":1918:1919  i */\n      dup2\n        /* \"Users/danielbauer/Dropbox/WORK/00. Neue Projekte/X.X.X FORTBILDUNG/X.X.X PROGRAMMIERUNG Db/8.X.X SOLIDITY/X.X.X LEARN WEB 3 DAO/CODE/1.7.0 Freshman - Intro to Solidity/contracts/StringsAndArrays.sol\":1908:1920  arr2.push(i) */\n      swap1\n      dup1\n      0x01\n      dup2\n      sload\n      add\n      dup1\n      dup3\n      sstore\n      dup1\n      swap2\n      pop\n      pop\n      0x01\n      swap1\n      sub\n      swap1\n      0x00\n      mstore\n      keccak256(0x00, 0x20)\n      add\n      0x00\n      swap1\n      swap2\n      swap1\n      swap2\n      swap1\n      swap2\n      pop\n      sstore\n        /* \"Users/danielbauer/Dropbox/WORK/00. Neue Projekte/X.X.X FORTBILDUNG/X.X.X PROGRAMMIERUNG Db/8.X.X SOLIDITY/X.X.X LEARN WEB 3 DAO/CODE/1.7.0 Freshman - Intro to Solidity/contracts/StringsAndArrays.sol\":2024:2028  arr2 */\n      0x02\n        /* \"Users/danielbauer/Dropbox/WORK/00. Neue Projekte/X.X.X FORTBILDUNG/X.X.X PROGRAMMIERUNG Db/8.X.X SOLIDITY/X.X.X LEARN WEB 3 DAO/CODE/1.7.0 Freshman - Intro to Solidity/contracts/StringsAndArrays.sol\":2024:2034  arr2.pop() */\n      dup1\n      sload\n      dup1\n      tag_54\n      jumpi\n      tag_55\n      tag_56\n      jump\t// in\n    tag_55:\n    tag_54:\n      0x01\n      swap1\n      sub\n      dup2\n      dup2\n      swap1\n      0x00\n      mstore\n      keccak256(0x00, 0x20)\n      add\n      0x00\n      swap1\n      sstore\n      swap1\n      sstore\n        /* \"Users/danielbauer/Dropbox/WORK/00. Neue Projekte/X.X.X FORTBILDUNG/X.X.X PROGRAMMIERUNG Db/8.X.X SOLIDITY/X.X.X LEARN WEB 3 DAO/CODE/1.7.0 Freshman - Intro to Solidity/contracts/StringsAndArrays.sol\":2083:2094  uint length */\n      0x00\n        /* \"Users/danielbauer/Dropbox/WORK/00. Neue Projekte/X.X.X FORTBILDUNG/X.X.X PROGRAMMIERUNG Db/8.X.X SOLIDITY/X.X.X LEARN WEB 3 DAO/CODE/1.7.0 Freshman - Intro to Solidity/contracts/StringsAndArrays.sol\":2097:2101  arr2 */\n      0x02\n        /* \"Users/danielbauer/Dropbox/WORK/00. Neue Projekte/X.X.X FORTBILDUNG/X.X.X PROGRAMMIERUNG Db/8.X.X SOLIDITY/X.X.X LEARN WEB 3 DAO/CODE/1.7.0 Freshman - Intro to Solidity/contracts/StringsAndArrays.sol\":2097:2108  arr2.length */\n      dup1\n      sload\n      swap1\n      pop\n        /* \"Users/danielbauer/Dropbox/WORK/00. Neue Projekte/X.X.X FORTBILDUNG/X.X.X PROGRAMMIERUNG Db/8.X.X SOLIDITY/X.X.X LEARN WEB 3 DAO/CODE/1.7.0 Freshman - Intro to Solidity/contracts/StringsAndArrays.sol\":2083:2108  uint length = arr2.length */\n      swap1\n      pop\n        /* \"Users/danielbauer/Dropbox/WORK/00. Neue Projekte/X.X.X FORTBILDUNG/X.X.X PROGRAMMIERUNG Db/8.X.X SOLIDITY/X.X.X LEARN WEB 3 DAO/CODE/1.7.0 Freshman - Intro to Solidity/contracts/StringsAndArrays.sol\":2301:2311  uint index */\n      0x00\n        /* \"Users/danielbauer/Dropbox/WORK/00. Neue Projekte/X.X.X FORTBILDUNG/X.X.X PROGRAMMIERUNG Db/8.X.X SOLIDITY/X.X.X LEARN WEB 3 DAO/CODE/1.7.0 Freshman - Intro to Solidity/contracts/StringsAndArrays.sol\":2314:2315  1 */\n      0x01\n        /* \"Users/danielbauer/Dropbox/WORK/00. Neue Projekte/X.X.X FORTBILDUNG/X.X.X PROGRAMMIERUNG Db/8.X.X SOLIDITY/X.X.X LEARN WEB 3 DAO/CODE/1.7.0 Freshman - Intro to Solidity/contracts/StringsAndArrays.sol\":2301:2315  uint index = 1 */\n      swap1\n      pop\n        /* \"Users/danielbauer/Dropbox/WORK/00. Neue Projekte/X.X.X FORTBILDUNG/X.X.X PROGRAMMIERUNG Db/8.X.X SOLIDITY/X.X.X LEARN WEB 3 DAO/CODE/1.7.0 Freshman - Intro to Solidity/contracts/StringsAndArrays.sol\":2332:2336  arr2 */\n      0x02\n        /* \"Users/danielbauer/Dropbox/WORK/00. Neue Projekte/X.X.X FORTBILDUNG/X.X.X PROGRAMMIERUNG Db/8.X.X SOLIDITY/X.X.X LEARN WEB 3 DAO/CODE/1.7.0 Freshman - Intro to Solidity/contracts/StringsAndArrays.sol\":2337:2342  index */\n      dup2\n        /* \"Users/danielbauer/Dropbox/WORK/00. Neue Projekte/X.X.X FORTBILDUNG/X.X.X PROGRAMMIERUNG Db/8.X.X SOLIDITY/X.X.X LEARN WEB 3 DAO/CODE/1.7.0 Freshman - Intro to Solidity/contracts/StringsAndArrays.sol\":2332:2343  arr2[index] */\n      dup2\n      sload\n      dup2\n      lt\n      tag_58\n      jumpi\n      tag_59\n      tag_60\n      jump\t// in\n    tag_59:\n    tag_58:\n      swap1\n      0x00\n      mstore\n      keccak256(0x00, 0x20)\n      add\n        /* \"Users/danielbauer/Dropbox/WORK/00. Neue Projekte/X.X.X FORTBILDUNG/X.X.X PROGRAMMIERUNG Db/8.X.X SOLIDITY/X.X.X LEARN WEB 3 DAO/CODE/1.7.0 Freshman - Intro to Solidity/contracts/StringsAndArrays.sol\":2325:2343  delete arr2[index] */\n      0x00\n      swap1\n      sstore\n        /* \"Users/danielbauer/Dropbox/WORK/00. Neue Projekte/X.X.X FORTBILDUNG/X.X.X PROGRAMMIERUNG Db/8.X.X SOLIDITY/X.X.X LEARN WEB 3 DAO/CODE/1.7.0 Freshman - Intro to Solidity/contracts/StringsAndArrays.sol\":2419:2434  uint[] memory a */\n      0x00\n        /* \"Users/danielbauer/Dropbox/WORK/00. Neue Projekte/X.X.X FORTBILDUNG/X.X.X PROGRAMMIERUNG Db/8.X.X SOLIDITY/X.X.X LEARN WEB 3 DAO/CODE/1.7.0 Freshman - Intro to Solidity/contracts/StringsAndArrays.sol\":2448:2449  5 */\n      0x05\n        /* \"Users/danielbauer/Dropbox/WORK/00. Neue Projekte/X.X.X FORTBILDUNG/X.X.X PROGRAMMIERUNG Db/8.X.X SOLIDITY/X.X.X LEARN WEB 3 DAO/CODE/1.7.0 Freshman - Intro to Solidity/contracts/StringsAndArrays.sol\":2437:2450  new uint[](5) */\n      0xffffffffffffffff\n      dup2\n      gt\n      iszero\n      tag_62\n      jumpi\n      tag_63\n      tag_64\n      jump\t// in\n    tag_63:\n    tag_62:\n      mload(0x40)\n      swap1\n      dup1\n      dup3\n      mstore\n      dup1\n      0x20\n      mul\n      0x20\n      add\n      dup3\n      add\n      0x40\n      mstore\n      dup1\n      iszero\n      tag_65\n      jumpi\n      dup2\n      0x20\n      add\n      0x20\n      dup3\n      mul\n      dup1\n      calldatasize\n      dup4\n      calldatacopy\n      dup1\n      dup3\n      add\n      swap2\n      pop\n      pop\n      swap1\n      pop\n    tag_65:\n      pop\n        /* \"Users/danielbauer/Dropbox/WORK/00. Neue Projekte/X.X.X FORTBILDUNG/X.X.X PROGRAMMIERUNG Db/8.X.X SOLIDITY/X.X.X LEARN WEB 3 DAO/CODE/1.7.0 Freshman - Intro to Solidity/contracts/StringsAndArrays.sol\":2419:2450  uint[] memory a = new uint[](5) */\n      swap1\n      pop\n        /* \"Users/danielbauer/Dropbox/WORK/00. Neue Projekte/X.X.X FORTBILDUNG/X.X.X PROGRAMMIERUNG Db/8.X.X SOLIDITY/X.X.X LEARN WEB 3 DAO/CODE/1.7.0 Freshman - Intro to Solidity/contracts/StringsAndArrays.sol\":2495:2511  string memory hi */\n      0x00\n        /* \"Users/danielbauer/Dropbox/WORK/00. Neue Projekte/X.X.X FORTBILDUNG/X.X.X PROGRAMMIERUNG Db/8.X.X SOLIDITY/X.X.X LEARN WEB 3 DAO/CODE/1.7.0 Freshman - Intro to Solidity/contracts/StringsAndArrays.sol\":2495:2518  string memory hi = \"hi\" */\n      mload(0x40)\n      dup1\n      0x40\n      add\n      0x40\n      mstore\n      dup1\n      0x02\n      dup2\n      mstore\n      0x20\n      add\n      0x6869000000000000000000000000000000000000000000000000000000000000\n      dup2\n      mstore\n      pop\n      swap1\n      pop\n        /* \"Users/danielbauer/Dropbox/WORK/00. Neue Projekte/X.X.X FORTBILDUNG/X.X.X PROGRAMMIERUNG Db/8.X.X SOLIDITY/X.X.X LEARN WEB 3 DAO/CODE/1.7.0 Freshman - Intro to Solidity/contracts/StringsAndArrays.sol\":1818:2525  {... */\n      pop\n      pop\n      pop\n      pop\n        /* \"Users/danielbauer/Dropbox/WORK/00. Neue Projekte/X.X.X FORTBILDUNG/X.X.X PROGRAMMIERUNG Db/8.X.X SOLIDITY/X.X.X LEARN WEB 3 DAO/CODE/1.7.0 Freshman - Intro to Solidity/contracts/StringsAndArrays.sol\":1786:2525  function doStuff(uint i) public {... */\n      pop\n      jump\t// out\n        /* \"Users/danielbauer/Dropbox/WORK/00. Neue Projekte/X.X.X FORTBILDUNG/X.X.X PROGRAMMIERUNG Db/8.X.X SOLIDITY/X.X.X LEARN WEB 3 DAO/CODE/1.7.0 Freshman - Intro to Solidity/contracts/StringsAndArrays.sol\":462:492  uint[10] public myFixedSizeArr */\n    tag_22:\n      0x03\n      dup2\n      0x0a\n      dup2\n      lt\n      tag_66\n      jumpi\n      0x00\n      dup1\n      revert\n    tag_66:\n      add\n      0x00\n      swap2\n      pop\n      swap1\n      pop\n      sload\n      dup2\n      jump\t// out\n        /* \"Users/danielbauer/Dropbox/WORK/00. Neue Projekte/X.X.X FORTBILDUNG/X.X.X PROGRAMMIERUNG Db/8.X.X SOLIDITY/X.X.X LEARN WEB 3 DAO/CODE/1.7.0 Freshman - Intro to Solidity/contracts/StringsAndArrays.sol\":346:364  uint[] public arr1 */\n    tag_27:\n      0x01\n      dup2\n      dup2\n      sload\n      dup2\n      lt\n      tag_68\n      jumpi\n      0x00\n      dup1\n      revert\n    tag_68:\n      swap1\n      0x00\n      mstore\n      keccak256(0x00, 0x20)\n      add\n      0x00\n      swap2\n      pop\n      swap1\n      pop\n      sload\n      dup2\n      jump\t// out\n        /* \"Users/danielbauer/Dropbox/WORK/00. Neue Projekte/X.X.X FORTBILDUNG/X.X.X PROGRAMMIERUNG Db/8.X.X SOLIDITY/X.X.X LEARN WEB 3 DAO/CODE/1.7.0 Freshman - Intro to Solidity/contracts/StringsAndArrays.sol\":613:692  function get(uint i) public view returns (uint) {... */\n    tag_31:\n        /* \"Users/danielbauer/Dropbox/WORK/00. Neue Projekte/X.X.X FORTBILDUNG/X.X.X PROGRAMMIERUNG Db/8.X.X SOLIDITY/X.X.X LEARN WEB 3 DAO/CODE/1.7.0 Freshman - Intro to Solidity/contracts/StringsAndArrays.sol\":655:659  uint */\n      0x00\n        /* \"Users/danielbauer/Dropbox/WORK/00. Neue Projekte/X.X.X FORTBILDUNG/X.X.X PROGRAMMIERUNG Db/8.X.X SOLIDITY/X.X.X LEARN WEB 3 DAO/CODE/1.7.0 Freshman - Intro to Solidity/contracts/StringsAndArrays.sol\":678:682  arr2 */\n      0x02\n        /* \"Users/danielbauer/Dropbox/WORK/00. Neue Projekte/X.X.X FORTBILDUNG/X.X.X PROGRAMMIERUNG Db/8.X.X SOLIDITY/X.X.X LEARN WEB 3 DAO/CODE/1.7.0 Freshman - Intro to Solidity/contracts/StringsAndArrays.sol\":683:684  i */\n      dup3\n        /* \"Users/danielbauer/Dropbox/WORK/00. Neue Projekte/X.X.X FORTBILDUNG/X.X.X PROGRAMMIERUNG Db/8.X.X SOLIDITY/X.X.X LEARN WEB 3 DAO/CODE/1.7.0 Freshman - Intro to Solidity/contracts/StringsAndArrays.sol\":678:685  arr2[i] */\n      dup2\n      sload\n      dup2\n      lt\n      tag_71\n      jumpi\n      tag_72\n      tag_60\n      jump\t// in\n    tag_72:\n    tag_71:\n      swap1\n      0x00\n      mstore\n      keccak256(0x00, 0x20)\n      add\n      sload\n        /* \"Users/danielbauer/Dropbox/WORK/00. Neue Projekte/X.X.X FORTBILDUNG/X.X.X PROGRAMMIERUNG Db/8.X.X SOLIDITY/X.X.X LEARN WEB 3 DAO/CODE/1.7.0 Freshman - Intro to Solidity/contracts/StringsAndArrays.sol\":671:685  return arr2[i] */\n      swap1\n      pop\n        /* \"Users/danielbauer/Dropbox/WORK/00. Neue Projekte/X.X.X FORTBILDUNG/X.X.X PROGRAMMIERUNG Db/8.X.X SOLIDITY/X.X.X LEARN WEB 3 DAO/CODE/1.7.0 Freshman - Intro to Solidity/contracts/StringsAndArrays.sol\":613:692  function get(uint i) public view returns (uint) {... */\n      swap2\n      swap1\n      pop\n      jump\t// out\n        /* \"Users/danielbauer/Dropbox/WORK/00. Neue Projekte/X.X.X FORTBILDUNG/X.X.X PROGRAMMIERUNG Db/8.X.X SOLIDITY/X.X.X LEARN WEB 3 DAO/CODE/1.7.0 Freshman - Intro to Solidity/contracts/StringsAndArrays.sol\":1384:1484  function getArr(uint[] memory _arr) public view returns (uint[] memory) {... */\n    tag_36:\n        /* \"Users/danielbauer/Dropbox/WORK/00. Neue Projekte/X.X.X FORTBILDUNG/X.X.X PROGRAMMIERUNG Db/8.X.X SOLIDITY/X.X.X LEARN WEB 3 DAO/CODE/1.7.0 Freshman - Intro to Solidity/contracts/StringsAndArrays.sol\":1441:1454  uint[] memory */\n      0x60\n        /* \"Users/danielbauer/Dropbox/WORK/00. Neue Projekte/X.X.X FORTBILDUNG/X.X.X PROGRAMMIERUNG Db/8.X.X SOLIDITY/X.X.X LEARN WEB 3 DAO/CODE/1.7.0 Freshman - Intro to Solidity/contracts/StringsAndArrays.sol\":1473:1477  _arr */\n      dup2\n        /* \"Users/danielbauer/Dropbox/WORK/00. Neue Projekte/X.X.X FORTBILDUNG/X.X.X PROGRAMMIERUNG Db/8.X.X SOLIDITY/X.X.X LEARN WEB 3 DAO/CODE/1.7.0 Freshman - Intro to Solidity/contracts/StringsAndArrays.sol\":1466:1477  return _arr */\n      swap1\n      pop\n        /* \"Users/danielbauer/Dropbox/WORK/00. Neue Projekte/X.X.X FORTBILDUNG/X.X.X PROGRAMMIERUNG Db/8.X.X SOLIDITY/X.X.X LEARN WEB 3 DAO/CODE/1.7.0 Freshman - Intro to Solidity/contracts/StringsAndArrays.sol\":1384:1484  function getArr(uint[] memory _arr) public view returns (uint[] memory) {... */\n      swap2\n      swap1\n      pop\n      jump\t// out\n        /* \"Users/danielbauer/Dropbox/WORK/00. Neue Projekte/X.X.X FORTBILDUNG/X.X.X PROGRAMMIERUNG Db/8.X.X SOLIDITY/X.X.X LEARN WEB 3 DAO/CODE/1.7.0 Freshman - Intro to Solidity/contracts/StringsAndArrays.sol\":1707:1780  function foo() public returns (string memory) {... */\n    tag_40:\n        /* \"Users/danielbauer/Dropbox/WORK/00. Neue Projekte/X.X.X FORTBILDUNG/X.X.X PROGRAMMIERUNG Db/8.X.X SOLIDITY/X.X.X LEARN WEB 3 DAO/CODE/1.7.0 Freshman - Intro to Solidity/contracts/StringsAndArrays.sol\":1738:1751  string memory */\n      0x60\n        /* \"Users/danielbauer/Dropbox/WORK/00. Neue Projekte/X.X.X FORTBILDUNG/X.X.X PROGRAMMIERUNG Db/8.X.X SOLIDITY/X.X.X LEARN WEB 3 DAO/CODE/1.7.0 Freshman - Intro to Solidity/contracts/StringsAndArrays.sol\":1763:1773  return \"C\" */\n      mload(0x40)\n      dup1\n      0x40\n      add\n      0x40\n      mstore\n      dup1\n      0x01\n      dup2\n      mstore\n      0x20\n      add\n      0x4300000000000000000000000000000000000000000000000000000000000000\n      dup2\n      mstore\n      pop\n      swap1\n      pop\n        /* \"Users/danielbauer/Dropbox/WORK/00. Neue Projekte/X.X.X FORTBILDUNG/X.X.X PROGRAMMIERUNG Db/8.X.X SOLIDITY/X.X.X LEARN WEB 3 DAO/CODE/1.7.0 Freshman - Intro to Solidity/contracts/StringsAndArrays.sol\":1707:1780  function foo() public returns (string memory) {... */\n      swap1\n      jump\t// out\n        /* \"Users/danielbauer/Dropbox/WORK/00. Neue Projekte/X.X.X FORTBILDUNG/X.X.X PROGRAMMIERUNG Db/8.X.X SOLIDITY/X.X.X LEARN WEB 3 DAO/CODE/1.7.0 Freshman - Intro to Solidity/contracts/StringsAndArrays.sol\":370:400  uint[] public arr2 = [1, 2, 3] */\n    tag_44:\n      0x02\n      dup2\n      dup2\n      sload\n      dup2\n      lt\n      tag_76\n      jumpi\n      0x00\n      dup1\n      revert\n    tag_76:\n      swap1\n      0x00\n      mstore\n      keccak256(0x00, 0x20)\n      add\n      0x00\n      swap2\n      pop\n      swap1\n      pop\n      sload\n      dup2\n      jump\t// out\n        /* \"#utility.yul\":7:106   */\n    tag_78:\n        /* \"#utility.yul\":59:65   */\n      0x00\n        /* \"#utility.yul\":93:98   */\n      dup2\n        /* \"#utility.yul\":87:99   */\n      mload\n        /* \"#utility.yul\":77:99   */\n      swap1\n      pop\n        /* \"#utility.yul\":7:106   */\n      swap2\n      swap1\n      pop\n      jump\t// out\n        /* \"#utility.yul\":112:281   */\n    tag_79:\n        /* \"#utility.yul\":196:207   */\n      0x00\n        /* \"#utility.yul\":230:236   */\n      dup3\n        /* \"#utility.yul\":225:228   */\n      dup3\n        /* \"#utility.yul\":218:237   */\n      mstore\n        /* \"#utility.yul\":270:274   */\n      0x20\n        /* \"#utility.yul\":265:268   */\n      dup3\n        /* \"#utility.yul\":261:275   */\n      add\n        /* \"#utility.yul\":246:275   */\n      swap1\n      pop\n        /* \"#utility.yul\":112:281   */\n      swap3\n      swap2\n      pop\n      pop\n      jump\t// out\n        /* \"#utility.yul\":287:533   */\n    tag_80:\n        /* \"#utility.yul\":368:369   */\n      0x00\n        /* \"#utility.yul\":378:491   */\n    tag_109:\n        /* \"#utility.yul\":392:398   */\n      dup4\n        /* \"#utility.yul\":389:390   */\n      dup2\n        /* \"#utility.yul\":386:399   */\n      lt\n        /* \"#utility.yul\":378:491   */\n      iszero\n      tag_111\n      jumpi\n        /* \"#utility.yul\":477:478   */\n      dup1\n        /* \"#utility.yul\":472:475   */\n      dup3\n        /* \"#utility.yul\":468:479   */\n      add\n        /* \"#utility.yul\":462:480   */\n      mload\n        /* \"#utility.yul\":458:459   */\n      dup2\n        /* \"#utility.yul\":453:456   */\n      dup5\n        /* \"#utility.yul\":449:460   */\n      add\n        /* \"#utility.yul\":442:481   */\n      mstore\n        /* \"#utility.yul\":414:416   */\n      0x20\n        /* \"#utility.yul\":411:412   */\n      dup2\n        /* \"#utility.yul\":407:417   */\n      add\n        /* \"#utility.yul\":402:417   */\n      swap1\n      pop\n        /* \"#utility.yul\":378:491   */\n      jump(tag_109)\n    tag_111:\n        /* \"#utility.yul\":525:526   */\n      0x00\n        /* \"#utility.yul\":516:522   */\n      dup5\n        /* \"#utility.yul\":511:514   */\n      dup5\n        /* \"#utility.yul\":507:523   */\n      add\n        /* \"#utility.yul\":500:527   */\n      mstore\n        /* \"#utility.yul\":349:533   */\n      pop\n        /* \"#utility.yul\":287:533   */\n      pop\n      pop\n      pop\n      jump\t// out\n        /* \"#utility.yul\":539:641   */\n    tag_81:\n        /* \"#utility.yul\":580:586   */\n      0x00\n        /* \"#utility.yul\":631:633   */\n      0x1f\n        /* \"#utility.yul\":627:634   */\n      not\n        /* \"#utility.yul\":622:624   */\n      0x1f\n        /* \"#utility.yul\":615:620   */\n      dup4\n        /* \"#utility.yul\":611:625   */\n      add\n        /* \"#utility.yul\":607:635   */\n      and\n        /* \"#utility.yul\":597:635   */\n      swap1\n      pop\n        /* \"#utility.yul\":539:641   */\n      swap2\n      swap1\n      pop\n      jump\t// out\n        /* \"#utility.yul\":647:1024   */\n    tag_82:\n        /* \"#utility.yul\":735:738   */\n      0x00\n        /* \"#utility.yul\":763:802   */\n      tag_114\n        /* \"#utility.yul\":796:801   */\n      dup3\n        /* \"#utility.yul\":763:802   */\n      tag_78\n      jump\t// in\n    tag_114:\n        /* \"#utility.yul\":818:889   */\n      tag_115\n        /* \"#utility.yul\":882:888   */\n      dup2\n        /* \"#utility.yul\":877:880   */\n      dup6\n        /* \"#utility.yul\":818:889   */\n      tag_79\n      jump\t// in\n    tag_115:\n        /* \"#utility.yul\":811:889   */\n      swap4\n      pop\n        /* \"#utility.yul\":898:963   */\n      tag_116\n        /* \"#utility.yul\":956:962   */\n      dup2\n        /* \"#utility.yul\":951:954   */\n      dup6\n        /* \"#utility.yul\":944:948   */\n      0x20\n        /* \"#utility.yul\":937:942   */\n      dup7\n        /* \"#utility.yul\":933:949   */\n      add\n        /* \"#utility.yul\":898:963   */\n      tag_80\n      jump\t// in\n    tag_116:\n        /* \"#utility.yul\":988:1017   */\n      tag_117\n        /* \"#utility.yul\":1010:1016   */\n      dup2\n        /* \"#utility.yul\":988:1017   */\n      tag_81\n      jump\t// in\n    tag_117:\n        /* \"#utility.yul\":983:986   */\n      dup5\n        /* \"#utility.yul\":979:1018   */\n      add\n        /* \"#utility.yul\":972:1018   */\n      swap2\n      pop\n        /* \"#utility.yul\":739:1024   */\n      pop\n        /* \"#utility.yul\":647:1024   */\n      swap3\n      swap2\n      pop\n      pop\n      jump\t// out\n        /* \"#utility.yul\":1030:1343   */\n    tag_15:\n        /* \"#utility.yul\":1143:1147   */\n      0x00\n        /* \"#utility.yul\":1181:1183   */\n      0x20\n        /* \"#utility.yul\":1170:1179   */\n      dup3\n        /* \"#utility.yul\":1166:1184   */\n      add\n        /* \"#utility.yul\":1158:1184   */\n      swap1\n      pop\n        /* \"#utility.yul\":1230:1239   */\n      dup2\n        /* \"#utility.yul\":1224:1228   */\n      dup2\n        /* \"#utility.yul\":1220:1240   */\n      sub\n        /* \"#utility.yul\":1216:1217   */\n      0x00\n        /* \"#utility.yul\":1205:1214   */\n      dup4\n        /* \"#utility.yul\":1201:1218   */\n      add\n        /* \"#utility.yul\":1194:1241   */\n      mstore\n        /* \"#utility.yul\":1258:1336   */\n      tag_119\n        /* \"#utility.yul\":1331:1335   */\n      dup2\n        /* \"#utility.yul\":1322:1328   */\n      dup5\n        /* \"#utility.yul\":1258:1336   */\n      tag_82\n      jump\t// in\n    tag_119:\n        /* \"#utility.yul\":1250:1336   */\n      swap1\n      pop\n        /* \"#utility.yul\":1030:1343   */\n      swap3\n      swap2\n      pop\n      pop\n      jump\t// out\n        /* \"#utility.yul\":1349:1424   */\n    tag_83:\n        /* \"#utility.yul\":1382:1388   */\n      0x00\n        /* \"#utility.yul\":1415:1417   */\n      0x40\n        /* \"#utility.yul\":1409:1418   */\n      mload\n        /* \"#utility.yul\":1399:1418   */\n      swap1\n      pop\n        /* \"#utility.yul\":1349:1424   */\n      swap1\n      jump\t// out\n        /* \"#utility.yul\":1430:1547   */\n    tag_84:\n        /* \"#utility.yul\":1539:1540   */\n      0x00\n        /* \"#utility.yul\":1536:1537   */\n      dup1\n        /* \"#utility.yul\":1529:1541   */\n      revert\n        /* \"#utility.yul\":1553:1670   */\n    tag_85:\n        /* \"#utility.yul\":1662:1663   */\n      0x00\n        /* \"#utility.yul\":1659:1660   */\n      dup1\n        /* \"#utility.yul\":1652:1664   */\n      revert\n        /* \"#utility.yul\":1676:1753   */\n    tag_86:\n        /* \"#utility.yul\":1713:1720   */\n      0x00\n        /* \"#utility.yul\":1742:1747   */\n      dup2\n        /* \"#utility.yul\":1731:1747   */\n      swap1\n      pop\n        /* \"#utility.yul\":1676:1753   */\n      swap2\n      swap1\n      pop\n      jump\t// out\n        /* \"#utility.yul\":1759:1881   */\n    tag_87:\n        /* \"#utility.yul\":1832:1856   */\n      tag_125\n        /* \"#utility.yul\":1850:1855   */\n      dup2\n        /* \"#utility.yul\":1832:1856   */\n      tag_86\n      jump\t// in\n    tag_125:\n        /* \"#utility.yul\":1825:1830   */\n      dup2\n        /* \"#utility.yul\":1822:1857   */\n      eq\n        /* \"#utility.yul\":1812:1875   */\n      tag_126\n      jumpi\n        /* \"#utility.yul\":1871:1872   */\n      0x00\n        /* \"#utility.yul\":1868:1869   */\n      dup1\n        /* \"#utility.yul\":1861:1873   */\n      revert\n        /* \"#utility.yul\":1812:1875   */\n    tag_126:\n        /* \"#utility.yul\":1759:1881   */\n      pop\n      jump\t// out\n        /* \"#utility.yul\":1887:2026   */\n    tag_88:\n        /* \"#utility.yul\":1933:1938   */\n      0x00\n        /* \"#utility.yul\":1971:1977   */\n      dup2\n        /* \"#utility.yul\":1958:1978   */\n      calldataload\n        /* \"#utility.yul\":1949:1978   */\n      swap1\n      pop\n        /* \"#utility.yul\":1987:2020   */\n      tag_128\n        /* \"#utility.yul\":2014:2019   */\n      dup2\n        /* \"#utility.yul\":1987:2020   */\n      tag_87\n      jump\t// in\n    tag_128:\n        /* \"#utility.yul\":1887:2026   */\n      swap3\n      swap2\n      pop\n      pop\n      jump\t// out\n        /* \"#utility.yul\":2032:2361   */\n    tag_18:\n        /* \"#utility.yul\":2091:2097   */\n      0x00\n        /* \"#utility.yul\":2140:2142   */\n      0x20\n        /* \"#utility.yul\":2128:2137   */\n      dup3\n        /* \"#utility.yul\":2119:2126   */\n      dup5\n        /* \"#utility.yul\":2115:2138   */\n      sub\n        /* \"#utility.yul\":2111:2143   */\n      slt\n        /* \"#utility.yul\":2108:2227   */\n      iszero\n      tag_130\n      jumpi\n        /* \"#utility.yul\":2146:2225   */\n      tag_131\n      tag_84\n      jump\t// in\n    tag_131:\n        /* \"#utility.yul\":2108:2227   */\n    tag_130:\n        /* \"#utility.yul\":2266:2267   */\n      0x00\n        /* \"#utility.yul\":2291:2344   */\n      tag_132\n        /* \"#utility.yul\":2336:2343   */\n      dup5\n        /* \"#utility.yul\":2327:2333   */\n      dup3\n        /* \"#utility.yul\":2316:2325   */\n      dup6\n        /* \"#utility.yul\":2312:2334   */\n      add\n        /* \"#utility.yul\":2291:2344   */\n      tag_88\n      jump\t// in\n    tag_132:\n        /* \"#utility.yul\":2281:2344   */\n      swap2\n      pop\n        /* \"#utility.yul\":2237:2354   */\n      pop\n        /* \"#utility.yul\":2032:2361   */\n      swap3\n      swap2\n      pop\n      pop\n      jump\t// out\n        /* \"#utility.yul\":2367:2485   */\n    tag_89:\n        /* \"#utility.yul\":2454:2478   */\n      tag_134\n        /* \"#utility.yul\":2472:2477   */\n      dup2\n        /* \"#utility.yul\":2454:2478   */\n      tag_86\n      jump\t// in\n    tag_134:\n        /* \"#utility.yul\":2449:2452   */\n      dup3\n        /* \"#utility.yul\":2442:2479   */\n      mstore\n        /* \"#utility.yul\":2367:2485   */\n      pop\n      pop\n      jump\t// out\n        /* \"#utility.yul\":2491:2713   */\n    tag_24:\n        /* \"#utility.yul\":2584:2588   */\n      0x00\n        /* \"#utility.yul\":2622:2624   */\n      0x20\n        /* \"#utility.yul\":2611:2620   */\n      dup3\n        /* \"#utility.yul\":2607:2625   */\n      add\n        /* \"#utility.yul\":2599:2625   */\n      swap1\n      pop\n        /* \"#utility.yul\":2635:2706   */\n      tag_136\n        /* \"#utility.yul\":2703:2704   */\n      0x00\n        /* \"#utility.yul\":2692:2701   */\n      dup4\n        /* \"#utility.yul\":2688:2705   */\n      add\n        /* \"#utility.yul\":2679:2685   */\n      dup5\n        /* \"#utility.yul\":2635:2706   */\n      tag_89\n      jump\t// in\n    tag_136:\n        /* \"#utility.yul\":2491:2713   */\n      swap3\n      swap2\n      pop\n      pop\n      jump\t// out\n        /* \"#utility.yul\":2719:2836   */\n    tag_90:\n        /* \"#utility.yul\":2828:2829   */\n      0x00\n        /* \"#utility.yul\":2825:2826   */\n      dup1\n        /* \"#utility.yul\":2818:2830   */\n      revert\n        /* \"#utility.yul\":2842:3022   */\n    tag_64:\n        /* \"#utility.yul\":2890:2967   */\n      0x4e487b7100000000000000000000000000000000000000000000000000000000\n        /* \"#utility.yul\":2887:2888   */\n      0x00\n        /* \"#utility.yul\":2880:2968   */\n      mstore\n        /* \"#utility.yul\":2987:2991   */\n      0x41\n        /* \"#utility.yul\":2984:2985   */\n      0x04\n        /* \"#utility.yul\":2977:2992   */\n      mstore\n        /* \"#utility.yul\":3011:3015   */\n      0x24\n        /* \"#utility.yul\":3008:3009   */\n      0x00\n        /* \"#utility.yul\":3001:3016   */\n      revert\n        /* \"#utility.yul\":3028:3309   */\n    tag_91:\n        /* \"#utility.yul\":3111:3138   */\n      tag_140\n        /* \"#utility.yul\":3133:3137   */\n      dup3\n        /* \"#utility.yul\":3111:3138   */\n      tag_81\n      jump\t// in\n    tag_140:\n        /* \"#utility.yul\":3103:3109   */\n      dup2\n        /* \"#utility.yul\":3099:3139   */\n      add\n        /* \"#utility.yul\":3241:3247   */\n      dup2\n        /* \"#utility.yul\":3229:3239   */\n      dup2\n        /* \"#utility.yul\":3226:3248   */\n      lt\n        /* \"#utility.yul\":3205:3223   */\n      0xffffffffffffffff\n        /* \"#utility.yul\":3193:3203   */\n      dup3\n        /* \"#utility.yul\":3190:3224   */\n      gt\n        /* \"#utility.yul\":3187:3249   */\n      or\n        /* \"#utility.yul\":3184:3272   */\n      iszero\n      tag_141\n      jumpi\n        /* \"#utility.yul\":3252:3270   */\n      tag_142\n      tag_64\n      jump\t// in\n    tag_142:\n        /* \"#utility.yul\":3184:3272   */\n    tag_141:\n        /* \"#utility.yul\":3292:3302   */\n      dup1\n        /* \"#utility.yul\":3288:3290   */\n      0x40\n        /* \"#utility.yul\":3281:3303   */\n      mstore\n        /* \"#utility.yul\":3071:3309   */\n      pop\n        /* \"#utility.yul\":3028:3309   */\n      pop\n      pop\n      jump\t// out\n        /* \"#utility.yul\":3315:3444   */\n    tag_92:\n        /* \"#utility.yul\":3349:3355   */\n      0x00\n        /* \"#utility.yul\":3376:3396   */\n      tag_144\n      tag_83\n      jump\t// in\n    tag_144:\n        /* \"#utility.yul\":3366:3396   */\n      swap1\n      pop\n        /* \"#utility.yul\":3405:3438   */\n      tag_145\n        /* \"#utility.yul\":3433:3437   */\n      dup3\n        /* \"#utility.yul\":3425:3431   */\n      dup3\n        /* \"#utility.yul\":3405:3438   */\n      tag_91\n      jump\t// in\n    tag_145:\n        /* \"#utility.yul\":3315:3444   */\n      swap2\n      swap1\n      pop\n      jump\t// out\n        /* \"#utility.yul\":3450:3761   */\n    tag_93:\n        /* \"#utility.yul\":3527:3531   */\n      0x00\n        /* \"#utility.yul\":3617:3635   */\n      0xffffffffffffffff\n        /* \"#utility.yul\":3609:3615   */\n      dup3\n        /* \"#utility.yul\":3606:3636   */\n      gt\n        /* \"#utility.yul\":3603:3659   */\n      iszero\n      tag_147\n      jumpi\n        /* \"#utility.yul\":3639:3657   */\n      tag_148\n      tag_64\n      jump\t// in\n    tag_148:\n        /* \"#utility.yul\":3603:3659   */\n    tag_147:\n        /* \"#utility.yul\":3689:3693   */\n      0x20\n        /* \"#utility.yul\":3681:3687   */\n      dup3\n        /* \"#utility.yul\":3677:3694   */\n      mul\n        /* \"#utility.yul\":3669:3694   */\n      swap1\n      pop\n        /* \"#utility.yul\":3749:3753   */\n      0x20\n        /* \"#utility.yul\":3743:3747   */\n      dup2\n        /* \"#utility.yul\":3739:3754   */\n      add\n        /* \"#utility.yul\":3731:3754   */\n      swap1\n      pop\n        /* \"#utility.yul\":3450:3761   */\n      swap2\n      swap1\n      pop\n      jump\t// out\n        /* \"#utility.yul\":3767:3884   */\n    tag_94:\n        /* \"#utility.yul\":3876:3877   */\n      0x00\n        /* \"#utility.yul\":3873:3874   */\n      dup1\n        /* \"#utility.yul\":3866:3878   */\n      revert\n        /* \"#utility.yul\":3907:4617   */\n    tag_95:\n        /* \"#utility.yul\":4003:4008   */\n      0x00\n        /* \"#utility.yul\":4028:4109   */\n      tag_151\n        /* \"#utility.yul\":4044:4108   */\n      tag_152\n        /* \"#utility.yul\":4101:4107   */\n      dup5\n        /* \"#utility.yul\":4044:4108   */\n      tag_93\n      jump\t// in\n    tag_152:\n        /* \"#utility.yul\":4028:4109   */\n      tag_92\n      jump\t// in\n    tag_151:\n        /* \"#utility.yul\":4019:4109   */\n      swap1\n      pop\n        /* \"#utility.yul\":4129:4134   */\n      dup1\n        /* \"#utility.yul\":4158:4164   */\n      dup4\n        /* \"#utility.yul\":4151:4156   */\n      dup3\n        /* \"#utility.yul\":4144:4165   */\n      mstore\n        /* \"#utility.yul\":4192:4196   */\n      0x20\n        /* \"#utility.yul\":4185:4190   */\n      dup3\n        /* \"#utility.yul\":4181:4197   */\n      add\n        /* \"#utility.yul\":4174:4197   */\n      swap1\n      pop\n        /* \"#utility.yul\":4245:4249   */\n      0x20\n        /* \"#utility.yul\":4237:4243   */\n      dup5\n        /* \"#utility.yul\":4233:4250   */\n      mul\n        /* \"#utility.yul\":4225:4231   */\n      dup4\n        /* \"#utility.yul\":4221:4251   */\n      add\n        /* \"#utility.yul\":4274:4277   */\n      dup6\n        /* \"#utility.yul\":4266:4272   */\n      dup2\n        /* \"#utility.yul\":4263:4278   */\n      gt\n        /* \"#utility.yul\":4260:4382   */\n      iszero\n      tag_153\n      jumpi\n        /* \"#utility.yul\":4293:4372   */\n      tag_154\n      tag_94\n      jump\t// in\n    tag_154:\n        /* \"#utility.yul\":4260:4382   */\n    tag_153:\n        /* \"#utility.yul\":4408:4414   */\n      dup4\n        /* \"#utility.yul\":4391:4611   */\n    tag_155:\n        /* \"#utility.yul\":4425:4431   */\n      dup2\n        /* \"#utility.yul\":4420:4423   */\n      dup2\n        /* \"#utility.yul\":4417:4432   */\n      lt\n        /* \"#utility.yul\":4391:4611   */\n      iszero\n      tag_157\n      jumpi\n        /* \"#utility.yul\":4500:4503   */\n      dup1\n        /* \"#utility.yul\":4529:4566   */\n      tag_158\n        /* \"#utility.yul\":4562:4565   */\n      dup9\n        /* \"#utility.yul\":4550:4560   */\n      dup3\n        /* \"#utility.yul\":4529:4566   */\n      tag_88\n      jump\t// in\n    tag_158:\n        /* \"#utility.yul\":4524:4527   */\n      dup5\n        /* \"#utility.yul\":4517:4567   */\n      mstore\n        /* \"#utility.yul\":4596:4600   */\n      0x20\n        /* \"#utility.yul\":4591:4594   */\n      dup5\n        /* \"#utility.yul\":4587:4601   */\n      add\n        /* \"#utility.yul\":4580:4601   */\n      swap4\n      pop\n        /* \"#utility.yul\":4467:4611   */\n      pop\n        /* \"#utility.yul\":4451:4455   */\n      0x20\n        /* \"#utility.yul\":4446:4449   */\n      dup2\n        /* \"#utility.yul\":4442:4456   */\n      add\n        /* \"#utility.yul\":4435:4456   */\n      swap1\n      pop\n        /* \"#utility.yul\":4391:4611   */\n      jump(tag_155)\n    tag_157:\n        /* \"#utility.yul\":4395:4416   */\n      pop\n        /* \"#utility.yul\":4009:4617   */\n      pop\n      pop\n        /* \"#utility.yul\":3907:4617   */\n      swap4\n      swap3\n      pop\n      pop\n      pop\n      jump\t// out\n        /* \"#utility.yul\":4640:5010   */\n    tag_96:\n        /* \"#utility.yul\":4711:4716   */\n      0x00\n        /* \"#utility.yul\":4760:4763   */\n      dup3\n        /* \"#utility.yul\":4753:4757   */\n      0x1f\n        /* \"#utility.yul\":4745:4751   */\n      dup4\n        /* \"#utility.yul\":4741:4758   */\n      add\n        /* \"#utility.yul\":4737:4764   */\n      slt\n        /* \"#utility.yul\":4727:4849   */\n      tag_160\n      jumpi\n        /* \"#utility.yul\":4768:4847   */\n      tag_161\n      tag_90\n      jump\t// in\n    tag_161:\n        /* \"#utility.yul\":4727:4849   */\n    tag_160:\n        /* \"#utility.yul\":4885:4891   */\n      dup2\n        /* \"#utility.yul\":4872:4892   */\n      calldataload\n        /* \"#utility.yul\":4910:5004   */\n      tag_162\n        /* \"#utility.yul\":5000:5003   */\n      dup5\n        /* \"#utility.yul\":4992:4998   */\n      dup3\n        /* \"#utility.yul\":4985:4989   */\n      0x20\n        /* \"#utility.yul\":4977:4983   */\n      dup7\n        /* \"#utility.yul\":4973:4990   */\n      add\n        /* \"#utility.yul\":4910:5004   */\n      tag_95\n      jump\t// in\n    tag_162:\n        /* \"#utility.yul\":4901:5004   */\n      swap2\n      pop\n        /* \"#utility.yul\":4717:5010   */\n      pop\n        /* \"#utility.yul\":4640:5010   */\n      swap3\n      swap2\n      pop\n      pop\n      jump\t// out\n        /* \"#utility.yul\":5016:5555   */\n    tag_35:\n        /* \"#utility.yul\":5100:5106   */\n      0x00\n        /* \"#utility.yul\":5149:5151   */\n      0x20\n        /* \"#utility.yul\":5137:5146   */\n      dup3\n        /* \"#utility.yul\":5128:5135   */\n      dup5\n        /* \"#utility.yul\":5124:5147   */\n      sub\n        /* \"#utility.yul\":5120:5152   */\n      slt\n        /* \"#utility.yul\":5117:5236   */\n      iszero\n      tag_164\n      jumpi\n        /* \"#utility.yul\":5155:5234   */\n      tag_165\n      tag_84\n      jump\t// in\n    tag_165:\n        /* \"#utility.yul\":5117:5236   */\n    tag_164:\n        /* \"#utility.yul\":5303:5304   */\n      0x00\n        /* \"#utility.yul\":5292:5301   */\n      dup3\n        /* \"#utility.yul\":5288:5305   */\n      add\n        /* \"#utility.yul\":5275:5306   */\n      calldataload\n        /* \"#utility.yul\":5333:5351   */\n      0xffffffffffffffff\n        /* \"#utility.yul\":5325:5331   */\n      dup2\n        /* \"#utility.yul\":5322:5352   */\n      gt\n        /* \"#utility.yul\":5319:5436   */\n      iszero\n      tag_166\n      jumpi\n        /* \"#utility.yul\":5355:5434   */\n      tag_167\n      tag_85\n      jump\t// in\n    tag_167:\n        /* \"#utility.yul\":5319:5436   */\n    tag_166:\n        /* \"#utility.yul\":5460:5538   */\n      tag_168\n        /* \"#utility.yul\":5530:5537   */\n      dup5\n        /* \"#utility.yul\":5521:5527   */\n      dup3\n        /* \"#utility.yul\":5510:5519   */\n      dup6\n        /* \"#utility.yul\":5506:5528   */\n      add\n        /* \"#utility.yul\":5460:5538   */\n      tag_96\n      jump\t// in\n    tag_168:\n        /* \"#utility.yul\":5450:5538   */\n      swap2\n      pop\n        /* \"#utility.yul\":5246:5548   */\n      pop\n        /* \"#utility.yul\":5016:5555   */\n      swap3\n      swap2\n      pop\n      pop\n      jump\t// out\n        /* \"#utility.yul\":5561:5675   */\n    tag_97:\n        /* \"#utility.yul\":5628:5634   */\n      0x00\n        /* \"#utility.yul\":5662:5667   */\n      dup2\n        /* \"#utility.yul\":5656:5668   */\n      mload\n        /* \"#utility.yul\":5646:5668   */\n      swap1\n      pop\n        /* \"#utility.yul\":5561:5675   */\n      swap2\n      swap1\n      pop\n      jump\t// out\n        /* \"#utility.yul\":5681:5865   */\n    tag_98:\n        /* \"#utility.yul\":5780:5791   */\n      0x00\n        /* \"#utility.yul\":5814:5820   */\n      dup3\n        /* \"#utility.yul\":5809:5812   */\n      dup3\n        /* \"#utility.yul\":5802:5821   */\n      mstore\n        /* \"#utility.yul\":5854:5858   */\n      0x20\n        /* \"#utility.yul\":5849:5852   */\n      dup3\n        /* \"#utility.yul\":5845:5859   */\n      add\n        /* \"#utility.yul\":5830:5859   */\n      swap1\n      pop\n        /* \"#utility.yul\":5681:5865   */\n      swap3\n      swap2\n      pop\n      pop\n      jump\t// out\n        /* \"#utility.yul\":5871:6003   */\n    tag_99:\n        /* \"#utility.yul\":5938:5942   */\n      0x00\n        /* \"#utility.yul\":5961:5964   */\n      dup2\n        /* \"#utility.yul\":5953:5964   */\n      swap1\n      pop\n        /* \"#utility.yul\":5991:5995   */\n      0x20\n        /* \"#utility.yul\":5986:5989   */\n      dup3\n        /* \"#utility.yul\":5982:5996   */\n      add\n        /* \"#utility.yul\":5974:5996   */\n      swap1\n      pop\n        /* \"#utility.yul\":5871:6003   */\n      swap2\n      swap1\n      pop\n      jump\t// out\n        /* \"#utility.yul\":6009:6117   */\n    tag_100:\n        /* \"#utility.yul\":6086:6110   */\n      tag_173\n        /* \"#utility.yul\":6104:6109   */\n      dup2\n        /* \"#utility.yul\":6086:6110   */\n      tag_86\n      jump\t// in\n    tag_173:\n        /* \"#utility.yul\":6081:6084   */\n      dup3\n        /* \"#utility.yul\":6074:6111   */\n      mstore\n        /* \"#utility.yul\":6009:6117   */\n      pop\n      pop\n      jump\t// out\n        /* \"#utility.yul\":6123:6302   */\n    tag_101:\n        /* \"#utility.yul\":6192:6202   */\n      0x00\n        /* \"#utility.yul\":6213:6259   */\n      tag_175\n        /* \"#utility.yul\":6255:6258   */\n      dup4\n        /* \"#utility.yul\":6247:6253   */\n      dup4\n        /* \"#utility.yul\":6213:6259   */\n      tag_100\n      jump\t// in\n    tag_175:\n        /* \"#utility.yul\":6291:6295   */\n      0x20\n        /* \"#utility.yul\":6286:6289   */\n      dup4\n        /* \"#utility.yul\":6282:6296   */\n      add\n        /* \"#utility.yul\":6268:6296   */\n      swap1\n      pop\n        /* \"#utility.yul\":6123:6302   */\n      swap3\n      swap2\n      pop\n      pop\n      jump\t// out\n        /* \"#utility.yul\":6308:6421   */\n    tag_102:\n        /* \"#utility.yul\":6378:6382   */\n      0x00\n        /* \"#utility.yul\":6410:6414   */\n      0x20\n        /* \"#utility.yul\":6405:6408   */\n      dup3\n        /* \"#utility.yul\":6401:6415   */\n      add\n        /* \"#utility.yul\":6393:6415   */\n      swap1\n      pop\n        /* \"#utility.yul\":6308:6421   */\n      swap2\n      swap1\n      pop\n      jump\t// out\n        /* \"#utility.yul\":6457:7189   */\n    tag_103:\n        /* \"#utility.yul\":6576:6579   */\n      0x00\n        /* \"#utility.yul\":6605:6659   */\n      tag_178\n        /* \"#utility.yul\":6653:6658   */\n      dup3\n        /* \"#utility.yul\":6605:6659   */\n      tag_97\n      jump\t// in\n    tag_178:\n        /* \"#utility.yul\":6675:6761   */\n      tag_179\n        /* \"#utility.yul\":6754:6760   */\n      dup2\n        /* \"#utility.yul\":6749:6752   */\n      dup6\n        /* \"#utility.yul\":6675:6761   */\n      tag_98\n      jump\t// in\n    tag_179:\n        /* \"#utility.yul\":6668:6761   */\n      swap4\n      pop\n        /* \"#utility.yul\":6785:6841   */\n      tag_180\n        /* \"#utility.yul\":6835:6840   */\n      dup4\n        /* \"#utility.yul\":6785:6841   */\n      tag_99\n      jump\t// in\n    tag_180:\n        /* \"#utility.yul\":6864:6871   */\n      dup1\n        /* \"#utility.yul\":6895:6896   */\n      0x00\n        /* \"#utility.yul\":6880:7164   */\n    tag_181:\n        /* \"#utility.yul\":6905:6911   */\n      dup4\n        /* \"#utility.yul\":6902:6903   */\n      dup2\n        /* \"#utility.yul\":6899:6912   */\n      lt\n        /* \"#utility.yul\":6880:7164   */\n      iszero\n      tag_183\n      jumpi\n        /* \"#utility.yul\":6981:6987   */\n      dup2\n        /* \"#utility.yul\":6975:6988   */\n      mload\n        /* \"#utility.yul\":7008:7071   */\n      tag_184\n        /* \"#utility.yul\":7067:7070   */\n      dup9\n        /* \"#utility.yul\":7052:7065   */\n      dup3\n        /* \"#utility.yul\":7008:7071   */\n      tag_101\n      jump\t// in\n    tag_184:\n        /* \"#utility.yul\":7001:7071   */\n      swap8\n      pop\n        /* \"#utility.yul\":7094:7154   */\n      tag_185\n        /* \"#utility.yul\":7147:7153   */\n      dup4\n        /* \"#utility.yul\":7094:7154   */\n      tag_102\n      jump\t// in\n    tag_185:\n        /* \"#utility.yul\":7084:7154   */\n      swap3\n      pop\n        /* \"#utility.yul\":6940:7164   */\n      pop\n        /* \"#utility.yul\":6927:6928   */\n      0x01\n        /* \"#utility.yul\":6924:6925   */\n      dup2\n        /* \"#utility.yul\":6920:6929   */\n      add\n        /* \"#utility.yul\":6915:6929   */\n      swap1\n      pop\n        /* \"#utility.yul\":6880:7164   */\n      jump(tag_181)\n    tag_183:\n        /* \"#utility.yul\":6884:6898   */\n      pop\n        /* \"#utility.yul\":7180:7183   */\n      dup6\n        /* \"#utility.yul\":7173:7183   */\n      swap4\n      pop\n        /* \"#utility.yul\":6581:7189   */\n      pop\n      pop\n      pop\n        /* \"#utility.yul\":6457:7189   */\n      swap3\n      swap2\n      pop\n      pop\n      jump\t// out\n        /* \"#utility.yul\":7195:7568   */\n    tag_38:\n        /* \"#utility.yul\":7338:7342   */\n      0x00\n        /* \"#utility.yul\":7376:7378   */\n      0x20\n        /* \"#utility.yul\":7365:7374   */\n      dup3\n        /* \"#utility.yul\":7361:7379   */\n      add\n        /* \"#utility.yul\":7353:7379   */\n      swap1\n      pop\n        /* \"#utility.yul\":7425:7434   */\n      dup2\n        /* \"#utility.yul\":7419:7423   */\n      dup2\n        /* \"#utility.yul\":7415:7435   */\n      sub\n        /* \"#utility.yul\":7411:7412   */\n      0x00\n        /* \"#utility.yul\":7400:7409   */\n      dup4\n        /* \"#utility.yul\":7396:7413   */\n      add\n        /* \"#utility.yul\":7389:7436   */\n      mstore\n        /* \"#utility.yul\":7453:7561   */\n      tag_187\n        /* \"#utility.yul\":7556:7560   */\n      dup2\n        /* \"#utility.yul\":7547:7553   */\n      dup5\n        /* \"#utility.yul\":7453:7561   */\n      tag_103\n      jump\t// in\n    tag_187:\n        /* \"#utility.yul\":7445:7561   */\n      swap1\n      pop\n        /* \"#utility.yul\":7195:7568   */\n      swap3\n      swap2\n      pop\n      pop\n      jump\t// out\n        /* \"#utility.yul\":7574:7754   */\n    tag_104:\n        /* \"#utility.yul\":7622:7699   */\n      0x4e487b7100000000000000000000000000000000000000000000000000000000\n        /* \"#utility.yul\":7619:7620   */\n      0x00\n        /* \"#utility.yul\":7612:7700   */\n      mstore\n        /* \"#utility.yul\":7719:7723   */\n      0x22\n        /* \"#utility.yul\":7716:7717   */\n      0x04\n        /* \"#utility.yul\":7709:7724   */\n      mstore\n        /* \"#utility.yul\":7743:7747   */\n      0x24\n        /* \"#utility.yul\":7740:7741   */\n      0x00\n        /* \"#utility.yul\":7733:7748   */\n      revert\n        /* \"#utility.yul\":7760:8080   */\n    tag_47:\n        /* \"#utility.yul\":7804:7810   */\n      0x00\n        /* \"#utility.yul\":7841:7842   */\n      0x02\n        /* \"#utility.yul\":7835:7839   */\n      dup3\n        /* \"#utility.yul\":7831:7843   */\n      div\n        /* \"#utility.yul\":7821:7843   */\n      swap1\n      pop\n        /* \"#utility.yul\":7888:7889   */\n      0x01\n        /* \"#utility.yul\":7882:7886   */\n      dup3\n        /* \"#utility.yul\":7878:7890   */\n      and\n        /* \"#utility.yul\":7909:7927   */\n      dup1\n        /* \"#utility.yul\":7899:7980   */\n      tag_190\n      jumpi\n        /* \"#utility.yul\":7965:7969   */\n      0x7f\n        /* \"#utility.yul\":7957:7963   */\n      dup3\n        /* \"#utility.yul\":7953:7970   */\n      and\n        /* \"#utility.yul\":7943:7970   */\n      swap2\n      pop\n        /* \"#utility.yul\":7899:7980   */\n    tag_190:\n        /* \"#utility.yul\":8027:8029   */\n      0x20\n        /* \"#utility.yul\":8019:8025   */\n      dup3\n        /* \"#utility.yul\":8016:8030   */\n      lt\n        /* \"#utility.yul\":7996:8014   */\n      dup2\n        /* \"#utility.yul\":7993:8031   */\n      sub\n        /* \"#utility.yul\":7990:8074   */\n      tag_191\n      jumpi\n        /* \"#utility.yul\":8046:8064   */\n      tag_192\n      tag_104\n      jump\t// in\n    tag_192:\n        /* \"#utility.yul\":7990:8074   */\n    tag_191:\n        /* \"#utility.yul\":7811:8080   */\n      pop\n        /* \"#utility.yul\":7760:8080   */\n      swap2\n      swap1\n      pop\n      jump\t// out\n        /* \"#utility.yul\":8086:8266   */\n    tag_56:\n        /* \"#utility.yul\":8134:8211   */\n      0x4e487b7100000000000000000000000000000000000000000000000000000000\n        /* \"#utility.yul\":8131:8132   */\n      0x00\n        /* \"#utility.yul\":8124:8212   */\n      mstore\n        /* \"#utility.yul\":8231:8235   */\n      0x31\n        /* \"#utility.yul\":8228:8229   */\n      0x04\n        /* \"#utility.yul\":8221:8236   */\n      mstore\n        /* \"#utility.yul\":8255:8259   */\n      0x24\n        /* \"#utility.yul\":8252:8253   */\n      0x00\n        /* \"#utility.yul\":8245:8260   */\n      revert\n        /* \"#utility.yul\":8272:8452   */\n    tag_60:\n        /* \"#utility.yul\":8320:8397   */\n      0x4e487b7100000000000000000000000000000000000000000000000000000000\n        /* \"#utility.yul\":8317:8318   */\n      0x00\n        /* \"#utility.yul\":8310:8398   */\n      mstore\n        /* \"#utility.yul\":8417:8421   */\n      0x32\n        /* \"#utility.yul\":8414:8415   */\n      0x04\n        /* \"#utility.yul\":8407:8422   */\n      mstore\n        /* \"#utility.yul\":8441:8445   */\n      0x24\n        /* \"#utility.yul\":8438:8439   */\n      0x00\n        /* \"#utility.yul\":8431:8446   */\n      revert\n\n    auxdata: 0xa2646970667358221220e638cb40ce963b51b0d39ad82b7983ac2e9eaf7dc2cdc995ef14f21af5dee55b64736f6c63430008120033\n}\n",
				"bytecode": {
					"linkReferences": {},
					"object": "60806040526040518060400160405280600681526020017f44616e69656c0000000000000000000000000000000000000000000000000000815250600090816200004a919062000389565b506040518060600160405280600160ff168152602001600260ff168152602001600360ff1681525060029060036200008492919062000099565b503480156200009257600080fd5b5062000470565b828054828255906000526020600020908101928215620000dd579160200282015b82811115620000dc578251829060ff16905591602001919060010190620000ba565b5b509050620000ec9190620000f0565b5090565b5b808211156200010b576000816000905550600101620000f1565b5090565b600081519050919050565b7f4e487b7100000000000000000000000000000000000000000000000000000000600052604160045260246000fd5b7f4e487b7100000000000000000000000000000000000000000000000000000000600052602260045260246000fd5b600060028204905060018216806200019157607f821691505b602082108103620001a757620001a662000149565b5b50919050565b60008190508160005260206000209050919050565b60006020601f8301049050919050565b600082821b905092915050565b600060088302620002117fffffffffffffffffffffffffffffffffffffffffffffffffffffffffffffffff82620001d2565b6200021d8683620001d2565b95508019841693508086168417925050509392505050565b6000819050919050565b6000819050919050565b60006200026a620002646200025e8462000235565b6200023f565b62000235565b9050919050565b6000819050919050565b620002868362000249565b6200029e620002958262000271565b848454620001df565b825550505050565b600090565b620002b5620002a6565b620002c28184846200027b565b505050565b5b81811015620002ea57620002de600082620002ab565b600181019050620002c8565b5050565b601f82111562000339576200030381620001ad565b6200030e84620001c2565b810160208510156200031e578190505b620003366200032d85620001c2565b830182620002c7565b50505b505050565b600082821c905092915050565b60006200035e600019846008026200033e565b1980831691505092915050565b60006200037983836200034b565b9150826002028217905092915050565b62000394826200010f565b67ffffffffffffffff811115620003b057620003af6200011a565b5b620003bc825462000178565b620003c9828285620002ee565b600060209050601f831160018114620004015760008415620003ec578287015190505b620003f885826200036b565b86555062000468565b601f1984166200041186620001ad565b60005b828110156200043b5784890151825560018201915060208501945060208101905062000414565b868310156200045b578489015162000457601f8916826200034b565b8355505b6001600288020188555050505b505050505050565b6108ff80620004806000396000f3fe608060405234801561001057600080fd5b50600436106100885760003560e01c80639507d39a1161005b5780639507d39a1461012757806398d477ce14610157578063c298557814610187578063edf0099b146101a557610088565b806306fdde031461008d57806323bad5cd146100ab57806338a067ce146100c75780636987b1fb146100f7575b600080fd5b6100956101d5565b6040516100a291906104d7565b60405180910390f35b6100c560048036038101906100c09190610543565b610263565b005b6100e160048036038101906100dc9190610543565b610375565b6040516100ee919061057f565b60405180910390f35b610111600480360381019061010c9190610543565b610390565b60405161011e919061057f565b60405180910390f35b610141600480360381019061013c9190610543565b6103b4565b60405161014e919061057f565b60405180910390f35b610171600480360381019061016c91906106e2565b6103dc565b60405161017e91906107e9565b60405180910390f35b61018f6103e6565b60405161019c91906104d7565b60405180910390f35b6101bf60048036038101906101ba9190610543565b610423565b6040516101cc919061057f565b60405180910390f35b600080546101e29061083a565b80601f016020809104026020016040519081016040528092919081815260200182805461020e9061083a565b801561025b5780601f106102305761010080835404028352916020019161025b565b820191906000526020600020905b81548152906001019060200180831161023e57829003601f168201915b505050505081565b6002819080600181540180825580915050600190039060005260206000200160009091909190915055600280548061029e5761029d61086b565b5b6001900381819060005260206000200160009055905560006002805490509050600060019050600281815481106102d8576102d761089a565b5b90600052602060002001600090556000600567ffffffffffffffff8111156103035761030261059f565b5b6040519080825280602002602001820160405280156103315781602001602082028036833780820191505090505b50905060006040518060400160405280600281526020017f686900000000000000000000000000000000000000000000000000000000000081525090505050505050565b600381600a811061038557600080fd5b016000915090505481565b600181815481106103a057600080fd5b906000526020600020016000915090505481565b6000600282815481106103ca576103c961089a565b5b90600052602060002001549050919050565b6060819050919050565b60606040518060400160405280600181526020017f4300000000000000000000000000000000000000000000000000000000000000815250905090565b6002818154811061043357600080fd5b906000526020600020016000915090505481565b600081519050919050565b600082825260208201905092915050565b60005b83811015610481578082015181840152602081019050610466565b60008484015250505050565b6000601f19601f8301169050919050565b60006104a982610447565b6104b38185610452565b93506104c3818560208601610463565b6104cc8161048d565b840191505092915050565b600060208201905081810360008301526104f1818461049e565b905092915050565b6000604051905090565b600080fd5b600080fd5b6000819050919050565b6105208161050d565b811461052b57600080fd5b50565b60008135905061053d81610517565b92915050565b60006020828403121561055957610558610503565b5b60006105678482850161052e565b91505092915050565b6105798161050d565b82525050565b60006020820190506105946000830184610570565b92915050565b600080fd5b7f4e487b7100000000000000000000000000000000000000000000000000000000600052604160045260246000fd5b6105d78261048d565b810181811067ffffffffffffffff821117156105f6576105f561059f565b5b80604052505050565b60006106096104f9565b905061061582826105ce565b919050565b600067ffffffffffffffff8211156106355761063461059f565b5b602082029050602081019050919050565b600080fd5b600061065e6106598461061a565b6105ff565b9050808382526020820190506020840283018581111561068157610680610646565b5b835b818110156106aa5780610696888261052e565b845260208401935050602081019050610683565b5050509392505050565b600082601f8301126106c9576106c861059a565b5b81356106d984826020860161064b565b91505092915050565b6000602082840312156106f8576106f7610503565b5b600082013567ffffffffffffffff81111561071657610715610508565b5b610722848285016106b4565b91505092915050565b600081519050919050565b600082825260208201905092915050565b6000819050602082019050919050565b6107608161050d565b82525050565b60006107728383610757565b60208301905092915050565b6000602082019050919050565b60006107968261072b565b6107a08185610736565b93506107ab83610747565b8060005b838110156107dc5781516107c38882610766565b97506107ce8361077e565b9250506001810190506107af565b5085935050505092915050565b60006020820190508181036000830152610803818461078b565b905092915050565b7f4e487b7100000000000000000000000000000000000000000000000000000000600052602260045260246000fd5b6000600282049050600182168061085257607f821691505b6020821081036108655761086461080b565b5b50919050565b7f4e487b7100000000000000000000000000000000000000000000000000000000600052603160045260246000fd5b7f4e487b7100000000000000000000000000000000000000000000000000000000600052603260045260246000fdfea2646970667358221220e638cb40ce963b51b0d39ad82b7983ac2e9eaf7dc2cdc995ef14f21af5dee55b64736f6c63430008120033",
					"opcodes": "PUSH1 0x80 PUSH1 0x40 MSTORE PUSH1 0x40 MLOAD DUP1 PUSH1 0x40 ADD PUSH1 0x40 MSTORE DUP1 PUSH1 0x6 DUP2 MSTORE PUSH1 0x20 ADD PUSH32 0x44616E69656C0000000000000000000000000000000000000000000000000000 DUP2 MSTORE POP PUSH1 0x0 SWAP1 DUP2 PUSH3 0x4A SWAP2 SWAP1 PUSH3 0x389 JUMP JUMPDEST POP PUSH1 0x40 MLOAD DUP1 PUSH1 0x60 ADD PUSH1 0x40 MSTORE DUP1 PUSH1 0x1 PUSH1 0xFF AND DUP2 MSTORE PUSH1 0x20 ADD PUSH1 0x2 PUSH1 0xFF AND DUP2 MSTORE PUSH1 0x20 ADD PUSH1 0x3 PUSH1 0xFF AND DUP2 MSTORE POP PUSH1 0x2 SWAP1 PUSH1 0x3 PUSH3 0x84 SWAP3 SWAP2 SWAP1 PUSH3 0x99 JUMP JUMPDEST POP CALLVALUE DUP1 ISZERO PUSH3 0x92 JUMPI PUSH1 0x0 DUP1 REVERT JUMPDEST POP PUSH3 0x470 JUMP JUMPDEST DUP3 DUP1 SLOAD DUP3 DUP3 SSTORE SWAP1 PUSH1 0x0 MSTORE PUSH1 0x20 PUSH1 0x0 KECCAK256 SWAP1 DUP2 ADD SWAP3 DUP3 ISZERO PUSH3 0xDD JUMPI SWAP2 PUSH1 0x20 MUL DUP3 ADD JUMPDEST DUP3 DUP2 GT ISZERO PUSH3 0xDC JUMPI DUP3 MLOAD DUP3 SWAP1 PUSH1 0xFF AND SWAP1 SSTORE SWAP2 PUSH1 0x20 ADD SWAP2 SWAP1 PUSH1 0x1 ADD SWAP1 PUSH3 0xBA JUMP JUMPDEST JUMPDEST POP SWAP1 POP PUSH3 0xEC SWAP2 SWAP1 PUSH3 0xF0 JUMP JUMPDEST POP SWAP1 JUMP JUMPDEST JUMPDEST DUP1 DUP3 GT ISZERO PUSH3 0x10B JUMPI PUSH1 0x0 DUP2 PUSH1 0x0 SWAP1 SSTORE POP PUSH1 0x1 ADD PUSH3 0xF1 JUMP JUMPDEST POP SWAP1 JUMP JUMPDEST PUSH1 0x0 DUP2 MLOAD SWAP1 POP SWAP2 SWAP1 POP JUMP JUMPDEST PUSH32 0x4E487B7100000000000000000000000000000000000000000000000000000000 PUSH1 0x0 MSTORE PUSH1 0x41 PUSH1 0x4 MSTORE PUSH1 0x24 PUSH1 0x0 REVERT JUMPDEST PUSH32 0x4E487B7100000000000000000000000000000000000000000000000000000000 PUSH1 0x0 MSTORE PUSH1 0x22 PUSH1 0x4 MSTORE PUSH1 0x24 PUSH1 0x0 REVERT JUMPDEST PUSH1 0x0 PUSH1 0x2 DUP3 DIV SWAP1 POP PUSH1 0x1 DUP3 AND DUP1 PUSH3 0x191 JUMPI PUSH1 0x7F DUP3 AND SWAP2 POP JUMPDEST PUSH1 0x20 DUP3 LT DUP2 SUB PUSH3 0x1A7 JUMPI PUSH3 0x1A6 PUSH3 0x149 JUMP JUMPDEST JUMPDEST POP SWAP2 SWAP1 POP JUMP JUMPDEST PUSH1 0x0 DUP2 SWAP1 POP DUP2 PUSH1 0x0 MSTORE PUSH1 0x20 PUSH1 0x0 KECCAK256 SWAP1 POP SWAP2 SWAP1 POP JUMP JUMPDEST PUSH1 0x0 PUSH1 0x20 PUSH1 0x1F DUP4 ADD DIV SWAP1 POP SWAP2 SWAP1 POP JUMP JUMPDEST PUSH1 0x0 DUP3 DUP3 SHL SWAP1 POP SWAP3 SWAP2 POP POP JUMP JUMPDEST PUSH1 0x0 PUSH1 0x8 DUP4 MUL PUSH3 0x211 PUSH32 0xFFFFFFFFFFFFFFFFFFFFFFFFFFFFFFFFFFFFFFFFFFFFFFFFFFFFFFFFFFFFFFFF DUP3 PUSH3 0x1D2 JUMP JUMPDEST PUSH3 0x21D DUP7 DUP4 PUSH3 0x1D2 JUMP JUMPDEST SWAP6 POP DUP1 NOT DUP5 AND SWAP4 POP DUP1 DUP7 AND DUP5 OR SWAP3 POP POP POP SWAP4 SWAP3 POP POP POP JUMP JUMPDEST PUSH1 0x0 DUP2 SWAP1 POP SWAP2 SWAP1 POP JUMP JUMPDEST PUSH1 0x0 DUP2 SWAP1 POP SWAP2 SWAP1 POP JUMP JUMPDEST PUSH1 0x0 PUSH3 0x26A PUSH3 0x264 PUSH3 0x25E DUP5 PUSH3 0x235 JUMP JUMPDEST PUSH3 0x23F JUMP JUMPDEST PUSH3 0x235 JUMP JUMPDEST SWAP1 POP SWAP2 SWAP1 POP JUMP JUMPDEST PUSH1 0x0 DUP2 SWAP1 POP SWAP2 SWAP1 POP JUMP JUMPDEST PUSH3 0x286 DUP4 PUSH3 0x249 JUMP JUMPDEST PUSH3 0x29E PUSH3 0x295 DUP3 PUSH3 0x271 JUMP JUMPDEST DUP5 DUP5 SLOAD PUSH3 0x1DF JUMP JUMPDEST DUP3 SSTORE POP POP POP POP JUMP JUMPDEST PUSH1 0x0 SWAP1 JUMP JUMPDEST PUSH3 0x2B5 PUSH3 0x2A6 JUMP JUMPDEST PUSH3 0x2C2 DUP2 DUP5 DUP5 PUSH3 0x27B JUMP JUMPDEST POP POP POP JUMP JUMPDEST JUMPDEST DUP2 DUP2 LT ISZERO PUSH3 0x2EA JUMPI PUSH3 0x2DE PUSH1 0x0 DUP3 PUSH3 0x2AB JUMP JUMPDEST PUSH1 0x1 DUP2 ADD SWAP1 POP PUSH3 0x2C8 JUMP JUMPDEST POP POP JUMP JUMPDEST PUSH1 0x1F DUP3 GT ISZERO PUSH3 0x339 JUMPI PUSH3 0x303 DUP2 PUSH3 0x1AD JUMP JUMPDEST PUSH3 0x30E DUP5 PUSH3 0x1C2 JUMP JUMPDEST DUP2 ADD PUSH1 0x20 DUP6 LT ISZERO PUSH3 0x31E JUMPI DUP2 SWAP1 POP JUMPDEST PUSH3 0x336 PUSH3 0x32D DUP6 PUSH3 0x1C2 JUMP JUMPDEST DUP4 ADD DUP3 PUSH3 0x2C7 JUMP JUMPDEST POP POP JUMPDEST POP POP POP JUMP JUMPDEST PUSH1 0x0 DUP3 DUP3 SHR SWAP1 POP SWAP3 SWAP2 POP POP JUMP JUMPDEST PUSH1 0x0 PUSH3 0x35E PUSH1 0x0 NOT DUP5 PUSH1 0x8 MUL PUSH3 0x33E JUMP JUMPDEST NOT DUP1 DUP4 AND SWAP2 POP POP SWAP3 SWAP2 POP POP JUMP JUMPDEST PUSH1 0x0 PUSH3 0x379 DUP4 DUP4 PUSH3 0x34B JUMP JUMPDEST SWAP2 POP DUP3 PUSH1 0x2 MUL DUP3 OR SWAP1 POP SWAP3 SWAP2 POP POP JUMP JUMPDEST PUSH3 0x394 DUP3 PUSH3 0x10F JUMP JUMPDEST PUSH8 0xFFFFFFFFFFFFFFFF DUP2 GT ISZERO PUSH3 0x3B0 JUMPI PUSH3 0x3AF PUSH3 0x11A JUMP JUMPDEST JUMPDEST PUSH3 0x3BC DUP3 SLOAD PUSH3 0x178 JUMP JUMPDEST PUSH3 0x3C9 DUP3 DUP3 DUP6 PUSH3 0x2EE JUMP JUMPDEST PUSH1 0x0 PUSH1 0x20 SWAP1 POP PUSH1 0x1F DUP4 GT PUSH1 0x1 DUP2 EQ PUSH3 0x401 JUMPI PUSH1 0x0 DUP5 ISZERO PUSH3 0x3EC JUMPI DUP3 DUP8 ADD MLOAD SWAP1 POP JUMPDEST PUSH3 0x3F8 DUP6 DUP3 PUSH3 0x36B JUMP JUMPDEST DUP7 SSTORE POP PUSH3 0x468 JUMP JUMPDEST PUSH1 0x1F NOT DUP5 AND PUSH3 0x411 DUP7 PUSH3 0x1AD JUMP JUMPDEST PUSH1 0x0 JUMPDEST DUP3 DUP2 LT ISZERO PUSH3 0x43B JUMPI DUP5 DUP10 ADD MLOAD DUP3 SSTORE PUSH1 0x1 DUP3 ADD SWAP2 POP PUSH1 0x20 DUP6 ADD SWAP5 POP PUSH1 0x20 DUP2 ADD SWAP1 POP PUSH3 0x414 JUMP JUMPDEST DUP7 DUP4 LT ISZERO PUSH3 0x45B JUMPI DUP5 DUP10 ADD MLOAD PUSH3 0x457 PUSH1 0x1F DUP10 AND DUP3 PUSH3 0x34B JUMP JUMPDEST DUP4 SSTORE POP JUMPDEST PUSH1 0x1 PUSH1 0x2 DUP9 MUL ADD DUP9 SSTORE POP POP POP JUMPDEST POP POP POP POP POP POP JUMP JUMPDEST PUSH2 0x8FF DUP1 PUSH3 0x480 PUSH1 0x0 CODECOPY PUSH1 0x0 RETURN INVALID PUSH1 0x80 PUSH1 0x40 MSTORE CALLVALUE DUP1 ISZERO PUSH2 0x10 JUMPI PUSH1 0x0 DUP1 REVERT JUMPDEST POP PUSH1 0x4 CALLDATASIZE LT PUSH2 0x88 JUMPI PUSH1 0x0 CALLDATALOAD PUSH1 0xE0 SHR DUP1 PUSH4 0x9507D39A GT PUSH2 0x5B JUMPI DUP1 PUSH4 0x9507D39A EQ PUSH2 0x127 JUMPI DUP1 PUSH4 0x98D477CE EQ PUSH2 0x157 JUMPI DUP1 PUSH4 0xC2985578 EQ PUSH2 0x187 JUMPI DUP1 PUSH4 0xEDF0099B EQ PUSH2 0x1A5 JUMPI PUSH2 0x88 JUMP JUMPDEST DUP1 PUSH4 0x6FDDE03 EQ PUSH2 0x8D JUMPI DUP1 PUSH4 0x23BAD5CD EQ PUSH2 0xAB JUMPI DUP1 PUSH4 0x38A067CE EQ PUSH2 0xC7 JUMPI DUP1 PUSH4 0x6987B1FB EQ PUSH2 0xF7 JUMPI JUMPDEST PUSH1 0x0 DUP1 REVERT JUMPDEST PUSH2 0x95 PUSH2 0x1D5 JUMP JUMPDEST PUSH1 0x40 MLOAD PUSH2 0xA2 SWAP2 SWAP1 PUSH2 0x4D7 JUMP JUMPDEST PUSH1 0x40 MLOAD DUP1 SWAP2 SUB SWAP1 RETURN JUMPDEST PUSH2 0xC5 PUSH1 0x4 DUP1 CALLDATASIZE SUB DUP2 ADD SWAP1 PUSH2 0xC0 SWAP2 SWAP1 PUSH2 0x543 JUMP JUMPDEST PUSH2 0x263 JUMP JUMPDEST STOP JUMPDEST PUSH2 0xE1 PUSH1 0x4 DUP1 CALLDATASIZE SUB DUP2 ADD SWAP1 PUSH2 0xDC SWAP2 SWAP1 PUSH2 0x543 JUMP JUMPDEST PUSH2 0x375 JUMP JUMPDEST PUSH1 0x40 MLOAD PUSH2 0xEE SWAP2 SWAP1 PUSH2 0x57F JUMP JUMPDEST PUSH1 0x40 MLOAD DUP1 SWAP2 SUB SWAP1 RETURN JUMPDEST PUSH2 0x111 PUSH1 0x4 DUP1 CALLDATASIZE SUB DUP2 ADD SWAP1 PUSH2 0x10C SWAP2 SWAP1 PUSH2 0x543 JUMP JUMPDEST PUSH2 0x390 JUMP JUMPDEST PUSH1 0x40 MLOAD PUSH2 0x11E SWAP2 SWAP1 PUSH2 0x57F JUMP JUMPDEST PUSH1 0x40 MLOAD DUP1 SWAP2 SUB SWAP1 RETURN JUMPDEST PUSH2 0x141 PUSH1 0x4 DUP1 CALLDATASIZE SUB DUP2 ADD SWAP1 PUSH2 0x13C SWAP2 SWAP1 PUSH2 0x543 JUMP JUMPDEST PUSH2 0x3B4 JUMP JUMPDEST PUSH1 0x40 MLOAD PUSH2 0x14E SWAP2 SWAP1 PUSH2 0x57F JUMP JUMPDEST PUSH1 0x40 MLOAD DUP1 SWAP2 SUB SWAP1 RETURN JUMPDEST PUSH2 0x171 PUSH1 0x4 DUP1 CALLDATASIZE SUB DUP2 ADD SWAP1 PUSH2 0x16C SWAP2 SWAP1 PUSH2 0x6E2 JUMP JUMPDEST PUSH2 0x3DC JUMP JUMPDEST PUSH1 0x40 MLOAD PUSH2 0x17E SWAP2 SWAP1 PUSH2 0x7E9 JUMP JUMPDEST PUSH1 0x40 MLOAD DUP1 SWAP2 SUB SWAP1 RETURN JUMPDEST PUSH2 0x18F PUSH2 0x3E6 JUMP JUMPDEST PUSH1 0x40 MLOAD PUSH2 0x19C SWAP2 SWAP1 PUSH2 0x4D7 JUMP JUMPDEST PUSH1 0x40 MLOAD DUP1 SWAP2 SUB SWAP1 RETURN JUMPDEST PUSH2 0x1BF PUSH1 0x4 DUP1 CALLDATASIZE SUB DUP2 ADD SWAP1 PUSH2 0x1BA SWAP2 SWAP1 PUSH2 0x543 JUMP JUMPDEST PUSH2 0x423 JUMP JUMPDEST PUSH1 0x40 MLOAD PUSH2 0x1CC SWAP2 SWAP1 PUSH2 0x57F JUMP JUMPDEST PUSH1 0x40 MLOAD DUP1 SWAP2 SUB SWAP1 RETURN JUMPDEST PUSH1 0x0 DUP1 SLOAD PUSH2 0x1E2 SWAP1 PUSH2 0x83A JUMP JUMPDEST DUP1 PUSH1 0x1F ADD PUSH1 0x20 DUP1 SWAP2 DIV MUL PUSH1 0x20 ADD PUSH1 0x40 MLOAD SWAP1 DUP2 ADD PUSH1 0x40 MSTORE DUP1 SWAP3 SWAP2 SWAP1 DUP2 DUP2 MSTORE PUSH1 0x20 ADD DUP3 DUP1 SLOAD PUSH2 0x20E SWAP1 PUSH2 0x83A JUMP JUMPDEST DUP1 ISZERO PUSH2 0x25B JUMPI DUP1 PUSH1 0x1F LT PUSH2 0x230 JUMPI PUSH2 0x100 DUP1 DUP4 SLOAD DIV MUL DUP4 MSTORE SWAP2 PUSH1 0x20 ADD SWAP2 PUSH2 0x25B JUMP JUMPDEST DUP3 ADD SWAP2 SWAP1 PUSH1 0x0 MSTORE PUSH1 0x20 PUSH1 0x0 KECCAK256 SWAP1 JUMPDEST DUP2 SLOAD DUP2 MSTORE SWAP1 PUSH1 0x1 ADD SWAP1 PUSH1 0x20 ADD DUP1 DUP4 GT PUSH2 0x23E JUMPI DUP3 SWAP1 SUB PUSH1 0x1F AND DUP3 ADD SWAP2 JUMPDEST POP POP POP POP POP DUP2 JUMP JUMPDEST PUSH1 0x2 DUP2 SWAP1 DUP1 PUSH1 0x1 DUP2 SLOAD ADD DUP1 DUP3 SSTORE DUP1 SWAP2 POP POP PUSH1 0x1 SWAP1 SUB SWAP1 PUSH1 0x0 MSTORE PUSH1 0x20 PUSH1 0x0 KECCAK256 ADD PUSH1 0x0 SWAP1 SWAP2 SWAP1 SWAP2 SWAP1 SWAP2 POP SSTORE PUSH1 0x2 DUP1 SLOAD DUP1 PUSH2 0x29E JUMPI PUSH2 0x29D PUSH2 0x86B JUMP JUMPDEST JUMPDEST PUSH1 0x1 SWAP1 SUB DUP2 DUP2 SWAP1 PUSH1 0x0 MSTORE PUSH1 0x20 PUSH1 0x0 KECCAK256 ADD PUSH1 0x0 SWAP1 SSTORE SWAP1 SSTORE PUSH1 0x0 PUSH1 0x2 DUP1 SLOAD SWAP1 POP SWAP1 POP PUSH1 0x0 PUSH1 0x1 SWAP1 POP PUSH1 0x2 DUP2 DUP2 SLOAD DUP2 LT PUSH2 0x2D8 JUMPI PUSH2 0x2D7 PUSH2 0x89A JUMP JUMPDEST JUMPDEST SWAP1 PUSH1 0x0 MSTORE PUSH1 0x20 PUSH1 0x0 KECCAK256 ADD PUSH1 0x0 SWAP1 SSTORE PUSH1 0x0 PUSH1 0x5 PUSH8 0xFFFFFFFFFFFFFFFF DUP2 GT ISZERO PUSH2 0x303 JUMPI PUSH2 0x302 PUSH2 0x59F JUMP JUMPDEST JUMPDEST PUSH1 0x40 MLOAD SWAP1 DUP1 DUP3 MSTORE DUP1 PUSH1 0x20 MUL PUSH1 0x20 ADD DUP3 ADD PUSH1 0x40 MSTORE DUP1 ISZERO PUSH2 0x331 JUMPI DUP2 PUSH1 0x20 ADD PUSH1 0x20 DUP3 MUL DUP1 CALLDATASIZE DUP4 CALLDATACOPY DUP1 DUP3 ADD SWAP2 POP POP SWAP1 POP JUMPDEST POP SWAP1 POP PUSH1 0x0 PUSH1 0x40 MLOAD DUP1 PUSH1 0x40 ADD PUSH1 0x40 MSTORE DUP1 PUSH1 0x2 DUP2 MSTORE PUSH1 0x20 ADD PUSH32 0x6869000000000000000000000000000000000000000000000000000000000000 DUP2 MSTORE POP SWAP1 POP POP POP POP POP POP JUMP JUMPDEST PUSH1 0x3 DUP2 PUSH1 0xA DUP2 LT PUSH2 0x385 JUMPI PUSH1 0x0 DUP1 REVERT JUMPDEST ADD PUSH1 0x0 SWAP2 POP SWAP1 POP SLOAD DUP2 JUMP JUMPDEST PUSH1 0x1 DUP2 DUP2 SLOAD DUP2 LT PUSH2 0x3A0 JUMPI PUSH1 0x0 DUP1 REVERT JUMPDEST SWAP1 PUSH1 0x0 MSTORE PUSH1 0x20 PUSH1 0x0 KECCAK256 ADD PUSH1 0x0 SWAP2 POP SWAP1 POP SLOAD DUP2 JUMP JUMPDEST PUSH1 0x0 PUSH1 0x2 DUP3 DUP2 SLOAD DUP2 LT PUSH2 0x3CA JUMPI PUSH2 0x3C9 PUSH2 0x89A JUMP JUMPDEST JUMPDEST SWAP1 PUSH1 0x0 MSTORE PUSH1 0x20 PUSH1 0x0 KECCAK256 ADD SLOAD SWAP1 POP SWAP2 SWAP1 POP JUMP JUMPDEST PUSH1 0x60 DUP2 SWAP1 POP SWAP2 SWAP1 POP JUMP JUMPDEST PUSH1 0x60 PUSH1 0x40 MLOAD DUP1 PUSH1 0x40 ADD PUSH1 0x40 MSTORE DUP1 PUSH1 0x1 DUP2 MSTORE PUSH1 0x20 ADD PUSH32 0x4300000000000000000000000000000000000000000000000000000000000000 DUP2 MSTORE POP SWAP1 POP SWAP1 JUMP JUMPDEST PUSH1 0x2 DUP2 DUP2 SLOAD DUP2 LT PUSH2 0x433 JUMPI PUSH1 0x0 DUP1 REVERT JUMPDEST SWAP1 PUSH1 0x0 MSTORE PUSH1 0x20 PUSH1 0x0 KECCAK256 ADD PUSH1 0x0 SWAP2 POP SWAP1 POP SLOAD DUP2 JUMP JUMPDEST PUSH1 0x0 DUP2 MLOAD SWAP1 POP SWAP2 SWAP1 POP JUMP JUMPDEST PUSH1 0x0 DUP3 DUP3 MSTORE PUSH1 0x20 DUP3 ADD SWAP1 POP SWAP3 SWAP2 POP POP JUMP JUMPDEST PUSH1 0x0 JUMPDEST DUP4 DUP2 LT ISZERO PUSH2 0x481 JUMPI DUP1 DUP3 ADD MLOAD DUP2 DUP5 ADD MSTORE PUSH1 0x20 DUP2 ADD SWAP1 POP PUSH2 0x466 JUMP JUMPDEST PUSH1 0x0 DUP5 DUP5 ADD MSTORE POP POP POP POP JUMP JUMPDEST PUSH1 0x0 PUSH1 0x1F NOT PUSH1 0x1F DUP4 ADD AND SWAP1 POP SWAP2 SWAP1 POP JUMP JUMPDEST PUSH1 0x0 PUSH2 0x4A9 DUP3 PUSH2 0x447 JUMP JUMPDEST PUSH2 0x4B3 DUP2 DUP6 PUSH2 0x452 JUMP JUMPDEST SWAP4 POP PUSH2 0x4C3 DUP2 DUP6 PUSH1 0x20 DUP7 ADD PUSH2 0x463 JUMP JUMPDEST PUSH2 0x4CC DUP2 PUSH2 0x48D JUMP JUMPDEST DUP5 ADD SWAP2 POP POP SWAP3 SWAP2 POP POP JUMP JUMPDEST PUSH1 0x0 PUSH1 0x20 DUP3 ADD SWAP1 POP DUP2 DUP2 SUB PUSH1 0x0 DUP4 ADD MSTORE PUSH2 0x4F1 DUP2 DUP5 PUSH2 0x49E JUMP JUMPDEST SWAP1 POP SWAP3 SWAP2 POP POP JUMP JUMPDEST PUSH1 0x0 PUSH1 0x40 MLOAD SWAP1 POP SWAP1 JUMP JUMPDEST PUSH1 0x0 DUP1 REVERT JUMPDEST PUSH1 0x0 DUP1 REVERT JUMPDEST PUSH1 0x0 DUP2 SWAP1 POP SWAP2 SWAP1 POP JUMP JUMPDEST PUSH2 0x520 DUP2 PUSH2 0x50D JUMP JUMPDEST DUP2 EQ PUSH2 0x52B JUMPI PUSH1 0x0 DUP1 REVERT JUMPDEST POP JUMP JUMPDEST PUSH1 0x0 DUP2 CALLDATALOAD SWAP1 POP PUSH2 0x53D DUP2 PUSH2 0x517 JUMP JUMPDEST SWAP3 SWAP2 POP POP JUMP JUMPDEST PUSH1 0x0 PUSH1 0x20 DUP3 DUP5 SUB SLT ISZERO PUSH2 0x559 JUMPI PUSH2 0x558 PUSH2 0x503 JUMP JUMPDEST JUMPDEST PUSH1 0x0 PUSH2 0x567 DUP5 DUP3 DUP6 ADD PUSH2 0x52E JUMP JUMPDEST SWAP2 POP POP SWAP3 SWAP2 POP POP JUMP JUMPDEST PUSH2 0x579 DUP2 PUSH2 0x50D JUMP JUMPDEST DUP3 MSTORE POP POP JUMP JUMPDEST PUSH1 0x0 PUSH1 0x20 DUP3 ADD SWAP1 POP PUSH2 0x594 PUSH1 0x0 DUP4 ADD DUP5 PUSH2 0x570 JUMP JUMPDEST SWAP3 SWAP2 POP POP JUMP JUMPDEST PUSH1 0x0 DUP1 REVERT JUMPDEST PUSH32 0x4E487B7100000000000000000000000000000000000000000000000000000000 PUSH1 0x0 MSTORE PUSH1 0x41 PUSH1 0x4 MSTORE PUSH1 0x24 PUSH1 0x0 REVERT JUMPDEST PUSH2 0x5D7 DUP3 PUSH2 0x48D JUMP JUMPDEST DUP2 ADD DUP2 DUP2 LT PUSH8 0xFFFFFFFFFFFFFFFF DUP3 GT OR ISZERO PUSH2 0x5F6 JUMPI PUSH2 0x5F5 PUSH2 0x59F JUMP JUMPDEST JUMPDEST DUP1 PUSH1 0x40 MSTORE POP POP POP JUMP JUMPDEST PUSH1 0x0 PUSH2 0x609 PUSH2 0x4F9 JUMP JUMPDEST SWAP1 POP PUSH2 0x615 DUP3 DUP3 PUSH2 0x5CE JUMP JUMPDEST SWAP2 SWAP1 POP JUMP JUMPDEST PUSH1 0x0 PUSH8 0xFFFFFFFFFFFFFFFF DUP3 GT ISZERO PUSH2 0x635 JUMPI PUSH2 0x634 PUSH2 0x59F JUMP JUMPDEST JUMPDEST PUSH1 0x20 DUP3 MUL SWAP1 POP PUSH1 0x20 DUP2 ADD SWAP1 POP SWAP2 SWAP1 POP JUMP JUMPDEST PUSH1 0x0 DUP1 REVERT JUMPDEST PUSH1 0x0 PUSH2 0x65E PUSH2 0x659 DUP5 PUSH2 0x61A JUMP JUMPDEST PUSH2 0x5FF JUMP JUMPDEST SWAP1 POP DUP1 DUP4 DUP3 MSTORE PUSH1 0x20 DUP3 ADD SWAP1 POP PUSH1 0x20 DUP5 MUL DUP4 ADD DUP6 DUP2 GT ISZERO PUSH2 0x681 JUMPI PUSH2 0x680 PUSH2 0x646 JUMP JUMPDEST JUMPDEST DUP4 JUMPDEST DUP2 DUP2 LT ISZERO PUSH2 0x6AA JUMPI DUP1 PUSH2 0x696 DUP9 DUP3 PUSH2 0x52E JUMP JUMPDEST DUP5 MSTORE PUSH1 0x20 DUP5 ADD SWAP4 POP POP PUSH1 0x20 DUP2 ADD SWAP1 POP PUSH2 0x683 JUMP JUMPDEST POP POP POP SWAP4 SWAP3 POP POP POP JUMP JUMPDEST PUSH1 0x0 DUP3 PUSH1 0x1F DUP4 ADD SLT PUSH2 0x6C9 JUMPI PUSH2 0x6C8 PUSH2 0x59A JUMP JUMPDEST JUMPDEST DUP2 CALLDATALOAD PUSH2 0x6D9 DUP5 DUP3 PUSH1 0x20 DUP7 ADD PUSH2 0x64B JUMP JUMPDEST SWAP2 POP POP SWAP3 SWAP2 POP POP JUMP JUMPDEST PUSH1 0x0 PUSH1 0x20 DUP3 DUP5 SUB SLT ISZERO PUSH2 0x6F8 JUMPI PUSH2 0x6F7 PUSH2 0x503 JUMP JUMPDEST JUMPDEST PUSH1 0x0 DUP3 ADD CALLDATALOAD PUSH8 0xFFFFFFFFFFFFFFFF DUP2 GT ISZERO PUSH2 0x716 JUMPI PUSH2 0x715 PUSH2 0x508 JUMP JUMPDEST JUMPDEST PUSH2 0x722 DUP5 DUP3 DUP6 ADD PUSH2 0x6B4 JUMP JUMPDEST SWAP2 POP POP SWAP3 SWAP2 POP POP JUMP JUMPDEST PUSH1 0x0 DUP2 MLOAD SWAP1 POP SWAP2 SWAP1 POP JUMP JUMPDEST PUSH1 0x0 DUP3 DUP3 MSTORE PUSH1 0x20 DUP3 ADD SWAP1 POP SWAP3 SWAP2 POP POP JUMP JUMPDEST PUSH1 0x0 DUP2 SWAP1 POP PUSH1 0x20 DUP3 ADD SWAP1 POP SWAP2 SWAP1 POP JUMP JUMPDEST PUSH2 0x760 DUP2 PUSH2 0x50D JUMP JUMPDEST DUP3 MSTORE POP POP JUMP JUMPDEST PUSH1 0x0 PUSH2 0x772 DUP4 DUP4 PUSH2 0x757 JUMP JUMPDEST PUSH1 0x20 DUP4 ADD SWAP1 POP SWAP3 SWAP2 POP POP JUMP JUMPDEST PUSH1 0x0 PUSH1 0x20 DUP3 ADD SWAP1 POP SWAP2 SWAP1 POP JUMP JUMPDEST PUSH1 0x0 PUSH2 0x796 DUP3 PUSH2 0x72B JUMP JUMPDEST PUSH2 0x7A0 DUP2 DUP6 PUSH2 0x736 JUMP JUMPDEST SWAP4 POP PUSH2 0x7AB DUP4 PUSH2 0x747 JUMP JUMPDEST DUP1 PUSH1 0x0 JUMPDEST DUP4 DUP2 LT ISZERO PUSH2 0x7DC JUMPI DUP2 MLOAD PUSH2 0x7C3 DUP9 DUP3 PUSH2 0x766 JUMP JUMPDEST SWAP8 POP PUSH2 0x7CE DUP4 PUSH2 0x77E JUMP JUMPDEST SWAP3 POP POP PUSH1 0x1 DUP2 ADD SWAP1 POP PUSH2 0x7AF JUMP JUMPDEST POP DUP6 SWAP4 POP POP POP POP SWAP3 SWAP2 POP POP JUMP JUMPDEST PUSH1 0x0 PUSH1 0x20 DUP3 ADD SWAP1 POP DUP2 DUP2 SUB PUSH1 0x0 DUP4 ADD MSTORE PUSH2 0x803 DUP2 DUP5 PUSH2 0x78B JUMP JUMPDEST SWAP1 POP SWAP3 SWAP2 POP POP JUMP JUMPDEST PUSH32 0x4E487B7100000000000000000000000000000000000000000000000000000000 PUSH1 0x0 MSTORE PUSH1 0x22 PUSH1 0x4 MSTORE PUSH1 0x24 PUSH1 0x0 REVERT JUMPDEST PUSH1 0x0 PUSH1 0x2 DUP3 DIV SWAP1 POP PUSH1 0x1 DUP3 AND DUP1 PUSH2 0x852 JUMPI PUSH1 0x7F DUP3 AND SWAP2 POP JUMPDEST PUSH1 0x20 DUP3 LT DUP2 SUB PUSH2 0x865 JUMPI PUSH2 0x864 PUSH2 0x80B JUMP JUMPDEST JUMPDEST POP SWAP2 SWAP1 POP JUMP JUMPDEST PUSH32 0x4E487B7100000000000000000000000000000000000000000000000000000000 PUSH1 0x0 MSTORE PUSH1 0x31 PUSH1 0x4 MSTORE PUSH1 0x24 PUSH1 0x0 REVERT JUMPDEST PUSH32 0x4E487B7100000000000000000000000000000000000000000000000000000000 PUSH1 0x0 MSTORE PUSH1 0x32 PUSH1 0x4 MSTORE PUSH1 0x24 PUSH1 0x0 REVERT INVALID LOG2 PUSH5 0x6970667358 0x22 SLT KECCAK256 0xE6 CODESIZE 0xCB BLOCKHASH 0xCE SWAP7 EXTCODESIZE MLOAD 0xB0 0xD3 SWAP11 0xD8 0x2B PUSH26 0x83AC2E9EAF7DC2CDC995EF14F21AF5DEE55B64736F6C63430008 SLT STOP CALLER "
				},
				"gasEstimates": {
					"creation": {
						"codeDepositCost": "460600",
						"executionCost": "infinite",
						"totalCost": "infinite"
					},
					"external": {
						"arr1(uint256)": "infinite",
						"arr2(uint256)": "infinite",
						"doStuff(uint256)": "infinite",
						"foo()": "infinite",
						"get(uint256)": "infinite",
						"getArr(uint256[])": "infinite",
						"myFixedSizeArr(uint256)": "infinite",
						"name()": "infinite"
					}
				},
				"methodIdentifiers": {
					"arr1(uint256)": "6987b1fb",
					"arr2(uint256)": "edf0099b",
					"doStuff(uint256)": "23bad5cd",
					"foo()": "c2985578",
					"get(uint256)": "9507d39a",
					"getArr(uint256[])": "98d477ce",
					"myFixedSizeArr(uint256)": "38a067ce",
					"name()": "06fdde03"
				}
			},
			"storageLayout": {
				"storage": [
					{
						"astId": 4,
						"contract": "Users/danielbauer/Dropbox/WORK/00. Neue Projekte/X.X.X FORTBILDUNG/X.X.X PROGRAMMIERUNG Db/8.X.X SOLIDITY/X.X.X LEARN WEB 3 DAO/CODE/1.7.0 Freshman - Intro to Solidity/contracts/StringsAndArrays.sol:Array",
						"label": "name",
						"offset": 0,
						"slot": "0",
						"type": "t_string_storage"
					},
					{
						"astId": 7,
						"contract": "Users/danielbauer/Dropbox/WORK/00. Neue Projekte/X.X.X FORTBILDUNG/X.X.X PROGRAMMIERUNG Db/8.X.X SOLIDITY/X.X.X LEARN WEB 3 DAO/CODE/1.7.0 Freshman - Intro to Solidity/contracts/StringsAndArrays.sol:Array",
						"label": "arr1",
						"offset": 0,
						"slot": "1",
						"type": "t_array(t_uint256)dyn_storage"
					},
					{
						"astId": 14,
						"contract": "Users/danielbauer/Dropbox/WORK/00. Neue Projekte/X.X.X FORTBILDUNG/X.X.X PROGRAMMIERUNG Db/8.X.X SOLIDITY/X.X.X LEARN WEB 3 DAO/CODE/1.7.0 Freshman - Intro to Solidity/contracts/StringsAndArrays.sol:Array",
						"label": "arr2",
						"offset": 0,
						"slot": "2",
						"type": "t_array(t_uint256)dyn_storage"
					},
					{
						"astId": 18,
						"contract": "Users/danielbauer/Dropbox/WORK/00. Neue Projekte/X.X.X FORTBILDUNG/X.X.X PROGRAMMIERUNG Db/8.X.X SOLIDITY/X.X.X LEARN WEB 3 DAO/CODE/1.7.0 Freshman - Intro to Solidity/contracts/StringsAndArrays.sol:Array",
						"label": "myFixedSizeArr",
						"offset": 0,
						"slot": "3",
						"type": "t_array(t_uint256)10_storage"
					}
				],
				"types": {
					"t_array(t_uint256)10_storage": {
						"base": "t_uint256",
						"encoding": "inplace",
						"label": "uint256[10]",
						"numberOfBytes": "320"
					},
					"t_array(t_uint256)dyn_storage": {
						"base": "t_uint256",
						"encoding": "dynamic_array",
						"label": "uint256[]",
						"numberOfBytes": "32"
					},
					"t_string_storage": {
						"encoding": "bytes",
						"label": "string",
						"numberOfBytes": "32"
					},
					"t_uint256": {
						"encoding": "inplace",
						"label": "uint256",
						"numberOfBytes": "32"
					}
				}
			},
			"userdoc": {
				"kind": "user",
				"methods": {},
				"version": 1
			}
		}
	}
}