{
	"Users/danielbauer/Dropbox/WORK/00. Neue Projekte/X.X.X FORTBILDUNG/X.X.X PROGRAMMIERUNG Db/8.X.X SOLIDITY/X.X.X LEARN WEB 3 DAO/CODE/1.7.0 Freshman - Intro to Solidity/contracts/Variables.sol": {
		"Variables": {
			"abi": [
				{
					"inputs": [],
					"name": "addr",
					"outputs": [
						{
							"internalType": "address",
							"name": "",
							"type": "address"
						}
					],
					"stateMutability": "view",
					"type": "function"
				},
				{
					"inputs": [],
					"name": "defaultAddr",
					"outputs": [
						{
							"internalType": "address",
							"name": "",
							"type": "address"
						}
					],
					"stateMutability": "view",
					"type": "function"
				},
				{
					"inputs": [],
					"name": "defaultBoo2",
					"outputs": [
						{
							"internalType": "bool",
							"name": "",
							"type": "bool"
						}
					],
					"stateMutability": "view",
					"type": "function"
				},
				{
					"inputs": [],
					"name": "defaultBool1",
					"outputs": [
						{
							"internalType": "bool",
							"name": "",
							"type": "bool"
						}
					],
					"stateMutability": "view",
					"type": "function"
				},
				{
					"inputs": [],
					"name": "defaultInt",
					"outputs": [
						{
							"internalType": "int256",
							"name": "",
							"type": "int256"
						}
					],
					"stateMutability": "view",
					"type": "function"
				},
				{
					"inputs": [],
					"name": "defaultUint",
					"outputs": [
						{
							"internalType": "uint256",
							"name": "",
							"type": "uint256"
						}
					],
					"stateMutability": "view",
					"type": "function"
				},
				{
					"inputs": [],
					"name": "doSomething",
					"outputs": [],
					"stateMutability": "nonpayable",
					"type": "function"
				},
				{
					"inputs": [],
					"name": "i",
					"outputs": [
						{
							"internalType": "int256",
							"name": "",
							"type": "int256"
						}
					],
					"stateMutability": "view",
					"type": "function"
				},
				{
					"inputs": [],
					"name": "u",
					"outputs": [
						{
							"internalType": "uint256",
							"name": "",
							"type": "uint256"
						}
					],
					"stateMutability": "view",
					"type": "function"
				},
				{
					"inputs": [],
					"name": "u256",
					"outputs": [
						{
							"internalType": "uint256",
							"name": "",
							"type": "uint256"
						}
					],
					"stateMutability": "view",
					"type": "function"
				},
				{
					"inputs": [],
					"name": "u8",
					"outputs": [
						{
							"internalType": "uint8",
							"name": "",
							"type": "uint8"
						}
					],
					"stateMutability": "view",
					"type": "function"
				}
			],
			"devdoc": {
				"kind": "dev",
				"methods": {},
				"version": 1
			},
			"evm": {
				"assembly": "    /* \"Users/danielbauer/Dropbox/WORK/00. Neue Projekte/X.X.X FORTBILDUNG/X.X.X PROGRAMMIERUNG Db/8.X.X SOLIDITY/X.X.X LEARN WEB 3 DAO/CODE/1.7.0 Freshman - Intro to Solidity/contracts/Variables.sol\":157:1830  contract Variables {... */\n  mstore(0x40, 0x80)\n    /* \"Users/danielbauer/Dropbox/WORK/00. Neue Projekte/X.X.X FORTBILDUNG/X.X.X PROGRAMMIERUNG Db/8.X.X SOLIDITY/X.X.X LEARN WEB 3 DAO/CODE/1.7.0 Freshman - Intro to Solidity/contracts/Variables.sol\":600:602  10 */\n  0x0a\n    /* \"Users/danielbauer/Dropbox/WORK/00. Neue Projekte/X.X.X FORTBILDUNG/X.X.X PROGRAMMIERUNG Db/8.X.X SOLIDITY/X.X.X LEARN WEB 3 DAO/CODE/1.7.0 Freshman - Intro to Solidity/contracts/Variables.sol\":582:602  uint8 public u8 = 10 */\n  0x00\n  dup1\n  0x0100\n  exp\n  dup2\n  sload\n  dup2\n  0xff\n  mul\n  not\n  and\n  swap1\n  dup4\n  0xff\n  and\n  mul\n  or\n  swap1\n  sstore\n  pop\n    /* \"Users/danielbauer/Dropbox/WORK/00. Neue Projekte/X.X.X FORTBILDUNG/X.X.X PROGRAMMIERUNG Db/8.X.X SOLIDITY/X.X.X LEARN WEB 3 DAO/CODE/1.7.0 Freshman - Intro to Solidity/contracts/Variables.sol\":627:630  600 */\n  0x0258\n    /* \"Users/danielbauer/Dropbox/WORK/00. Neue Projekte/X.X.X FORTBILDUNG/X.X.X PROGRAMMIERUNG Db/8.X.X SOLIDITY/X.X.X LEARN WEB 3 DAO/CODE/1.7.0 Freshman - Intro to Solidity/contracts/Variables.sol\":608:630  uint public u256 = 600 */\n  0x01\n  sstore\n    /* \"Users/danielbauer/Dropbox/WORK/00. Neue Projekte/X.X.X FORTBILDUNG/X.X.X PROGRAMMIERUNG Db/8.X.X SOLIDITY/X.X.X LEARN WEB 3 DAO/CODE/1.7.0 Freshman - Intro to Solidity/contracts/Variables.sol\":652:656  1230 */\n  0x04ce\n    /* \"Users/danielbauer/Dropbox/WORK/00. Neue Projekte/X.X.X FORTBILDUNG/X.X.X PROGRAMMIERUNG Db/8.X.X SOLIDITY/X.X.X LEARN WEB 3 DAO/CODE/1.7.0 Freshman - Intro to Solidity/contracts/Variables.sol\":636:656  uint public u = 1230 */\n  0x02\n  sstore\n    /* \"Users/danielbauer/Dropbox/WORK/00. Neue Projekte/X.X.X FORTBILDUNG/X.X.X PROGRAMMIERUNG Db/8.X.X SOLIDITY/X.X.X LEARN WEB 3 DAO/CODE/1.7.0 Freshman - Intro to Solidity/contracts/Variables.sol\":826:830  -123 */\n  0xffffffffffffffffffffffffffffffffffffffffffffffffffffffffffffff85\n    /* \"Users/danielbauer/Dropbox/WORK/00. Neue Projekte/X.X.X FORTBILDUNG/X.X.X PROGRAMMIERUNG Db/8.X.X SOLIDITY/X.X.X LEARN WEB 3 DAO/CODE/1.7.0 Freshman - Intro to Solidity/contracts/Variables.sol\":811:830  int public i = -123 */\n  0x03\n  sstore\n    /* \"Users/danielbauer/Dropbox/WORK/00. Neue Projekte/X.X.X FORTBILDUNG/X.X.X PROGRAMMIERUNG Db/8.X.X SOLIDITY/X.X.X LEARN WEB 3 DAO/CODE/1.7.0 Freshman - Intro to Solidity/contracts/Variables.sol\":931:973  0xAb8483F64d9C6d1EcF9b849Ae677dD3315835cb2 */\n  0xab8483f64d9c6d1ecf9b849ae677dd3315835cb2\n    /* \"Users/danielbauer/Dropbox/WORK/00. Neue Projekte/X.X.X FORTBILDUNG/X.X.X PROGRAMMIERUNG Db/8.X.X SOLIDITY/X.X.X LEARN WEB 3 DAO/CODE/1.7.0 Freshman - Intro to Solidity/contracts/Variables.sol\":909:973  address public addr = 0xAb8483F64d9C6d1EcF9b849Ae677dD3315835cb2 */\n  0x04\n  exp(0x0100, 0x00)\n  dup2\n  sload\n  dup2\n  0xffffffffffffffffffffffffffffffffffffffff\n  mul\n  not\n  and\n  swap1\n  dup4\n  0xffffffffffffffffffffffffffffffffffffffff\n  and\n  mul\n  or\n  swap1\n  sstore\n  pop\n    /* \"Users/danielbauer/Dropbox/WORK/00. Neue Projekte/X.X.X FORTBILDUNG/X.X.X PROGRAMMIERUNG Db/8.X.X SOLIDITY/X.X.X LEARN WEB 3 DAO/CODE/1.7.0 Freshman - Intro to Solidity/contracts/Variables.sol\":1038:1043  false */\n  0x00\n    /* \"Users/danielbauer/Dropbox/WORK/00. Neue Projekte/X.X.X FORTBILDUNG/X.X.X PROGRAMMIERUNG Db/8.X.X SOLIDITY/X.X.X LEARN WEB 3 DAO/CODE/1.7.0 Freshman - Intro to Solidity/contracts/Variables.sol\":1011:1043  bool public defaultBool1 = false */\n  0x04\n  exp(0x0100, 0x14)\n  dup2\n  sload\n  dup2\n  0xff\n  mul\n  not\n  and\n  swap1\n  dup4\n  iszero\n  iszero\n  mul\n  or\n  swap1\n  sstore\n  pop\n    /* \"Users/danielbauer/Dropbox/WORK/00. Neue Projekte/X.X.X FORTBILDUNG/X.X.X PROGRAMMIERUNG Db/8.X.X SOLIDITY/X.X.X LEARN WEB 3 DAO/CODE/1.7.0 Freshman - Intro to Solidity/contracts/Variables.sol\":157:1830  contract Variables {... */\n  callvalue\n  dup1\n  iszero\n  tag_1\n  jumpi\n  0x00\n  dup1\n  revert\ntag_1:\n  pop\n  dataSize(sub_0)\n  dup1\n  dataOffset(sub_0)\n  0x00\n  codecopy\n  0x00\n  return\nstop\n\nsub_0: assembly {\n        /* \"Users/danielbauer/Dropbox/WORK/00. Neue Projekte/X.X.X FORTBILDUNG/X.X.X PROGRAMMIERUNG Db/8.X.X SOLIDITY/X.X.X LEARN WEB 3 DAO/CODE/1.7.0 Freshman - Intro to Solidity/contracts/Variables.sol\":157:1830  contract Variables {... */\n      mstore(0x40, 0x80)\n      callvalue\n      dup1\n      iszero\n      tag_1\n      jumpi\n      0x00\n      dup1\n      revert\n    tag_1:\n      pop\n      jumpi(tag_2, lt(calldatasize, 0x04))\n      shr(0xe0, calldataload(0x00))\n      dup1\n      0x82692679\n      gt\n      tag_14\n      jumpi\n      dup1\n      0x82692679\n      eq\n      tag_8\n      jumpi\n      dup1\n      0xab3a58a3\n      eq\n      tag_9\n      jumpi\n      dup1\n      0xbb8b83f0\n      eq\n      tag_10\n      jumpi\n      dup1\n      0xc6a898c5\n      eq\n      tag_11\n      jumpi\n      dup1\n      0xe5aa3d58\n      eq\n      tag_12\n      jumpi\n      dup1\n      0xf2427d37\n      eq\n      tag_13\n      jumpi\n      jump(tag_2)\n    tag_14:\n      dup1\n      0x1570c2cb\n      eq\n      tag_3\n      jumpi\n      dup1\n      0x2d6f203d\n      eq\n      tag_4\n      jumpi\n      dup1\n      0x459b1acf\n      eq\n      tag_5\n      jumpi\n      dup1\n      0x5abe622b\n      eq\n      tag_6\n      jumpi\n      dup1\n      0x767800de\n      eq\n      tag_7\n      jumpi\n    tag_2:\n      0x00\n      dup1\n      revert\n        /* \"Users/danielbauer/Dropbox/WORK/00. Neue Projekte/X.X.X FORTBILDUNG/X.X.X PROGRAMMIERUNG Db/8.X.X SOLIDITY/X.X.X LEARN WEB 3 DAO/CODE/1.7.0 Freshman - Intro to Solidity/contracts/Variables.sol\":1171:1194  uint public defaultUint */\n    tag_3:\n      tag_15\n      tag_16\n      jump\t// in\n    tag_15:\n      mload(0x40)\n      tag_17\n      swap2\n      swap1\n      tag_18\n      jump\t// in\n    tag_17:\n      mload(0x40)\n      dup1\n      swap2\n      sub\n      swap1\n      return\n        /* \"Users/danielbauer/Dropbox/WORK/00. Neue Projekte/X.X.X FORTBILDUNG/X.X.X PROGRAMMIERUNG Db/8.X.X SOLIDITY/X.X.X LEARN WEB 3 DAO/CODE/1.7.0 Freshman - Intro to Solidity/contracts/Variables.sol\":1011:1043  bool public defaultBool1 = false */\n    tag_4:\n      tag_19\n      tag_20\n      jump\t// in\n    tag_19:\n      mload(0x40)\n      tag_21\n      swap2\n      swap1\n      tag_22\n      jump\t// in\n    tag_21:\n      mload(0x40)\n      dup1\n      swap2\n      sub\n      swap1\n      return\n        /* \"Users/danielbauer/Dropbox/WORK/00. Neue Projekte/X.X.X FORTBILDUNG/X.X.X PROGRAMMIERUNG Db/8.X.X SOLIDITY/X.X.X LEARN WEB 3 DAO/CODE/1.7.0 Freshman - Intro to Solidity/contracts/Variables.sol\":608:630  uint public u256 = 600 */\n    tag_5:\n      tag_23\n      tag_24\n      jump\t// in\n    tag_23:\n      mload(0x40)\n      tag_25\n      swap2\n      swap1\n      tag_18\n      jump\t// in\n    tag_25:\n      mload(0x40)\n      dup1\n      swap2\n      sub\n      swap1\n      return\n        /* \"Users/danielbauer/Dropbox/WORK/00. Neue Projekte/X.X.X FORTBILDUNG/X.X.X PROGRAMMIERUNG Db/8.X.X SOLIDITY/X.X.X LEARN WEB 3 DAO/CODE/1.7.0 Freshman - Intro to Solidity/contracts/Variables.sol\":1205:1226  int public defaultInt */\n    tag_6:\n      tag_26\n      tag_27\n      jump\t// in\n    tag_26:\n      mload(0x40)\n      tag_28\n      swap2\n      swap1\n      tag_29\n      jump\t// in\n    tag_28:\n      mload(0x40)\n      dup1\n      swap2\n      sub\n      swap1\n      return\n        /* \"Users/danielbauer/Dropbox/WORK/00. Neue Projekte/X.X.X FORTBILDUNG/X.X.X PROGRAMMIERUNG Db/8.X.X SOLIDITY/X.X.X LEARN WEB 3 DAO/CODE/1.7.0 Freshman - Intro to Solidity/contracts/Variables.sol\":909:973  address public addr = 0xAb8483F64d9C6d1EcF9b849Ae677dD3315835cb2 */\n    tag_7:\n      tag_30\n      tag_31\n      jump\t// in\n    tag_30:\n      mload(0x40)\n      tag_32\n      swap2\n      swap1\n      tag_33\n      jump\t// in\n    tag_32:\n      mload(0x40)\n      dup1\n      swap2\n      sub\n      swap1\n      return\n        /* \"Users/danielbauer/Dropbox/WORK/00. Neue Projekte/X.X.X FORTBILDUNG/X.X.X PROGRAMMIERUNG Db/8.X.X SOLIDITY/X.X.X LEARN WEB 3 DAO/CODE/1.7.0 Freshman - Intro to Solidity/contracts/Variables.sol\":1316:1828  function doSomething() public {... */\n    tag_8:\n      tag_34\n      tag_35\n      jump\t// in\n    tag_34:\n      stop\n        /* \"Users/danielbauer/Dropbox/WORK/00. Neue Projekte/X.X.X FORTBILDUNG/X.X.X PROGRAMMIERUNG Db/8.X.X SOLIDITY/X.X.X LEARN WEB 3 DAO/CODE/1.7.0 Freshman - Intro to Solidity/contracts/Variables.sol\":582:602  uint8 public u8 = 10 */\n    tag_9:\n      tag_36\n      tag_37\n      jump\t// in\n    tag_36:\n      mload(0x40)\n      tag_38\n      swap2\n      swap1\n      tag_39\n      jump\t// in\n    tag_38:\n      mload(0x40)\n      dup1\n      swap2\n      sub\n      swap1\n      return\n        /* \"Users/danielbauer/Dropbox/WORK/00. Neue Projekte/X.X.X FORTBILDUNG/X.X.X PROGRAMMIERUNG Db/8.X.X SOLIDITY/X.X.X LEARN WEB 3 DAO/CODE/1.7.0 Freshman - Intro to Solidity/contracts/Variables.sol\":1133:1156  bool public defaultBoo2 */\n    tag_10:\n      tag_40\n      tag_41\n      jump\t// in\n    tag_40:\n      mload(0x40)\n      tag_42\n      swap2\n      swap1\n      tag_22\n      jump\t// in\n    tag_42:\n      mload(0x40)\n      dup1\n      swap2\n      sub\n      swap1\n      return\n        /* \"Users/danielbauer/Dropbox/WORK/00. Neue Projekte/X.X.X FORTBILDUNG/X.X.X PROGRAMMIERUNG Db/8.X.X SOLIDITY/X.X.X LEARN WEB 3 DAO/CODE/1.7.0 Freshman - Intro to Solidity/contracts/Variables.sol\":636:656  uint public u = 1230 */\n    tag_11:\n      tag_43\n      tag_44\n      jump\t// in\n    tag_43:\n      mload(0x40)\n      tag_45\n      swap2\n      swap1\n      tag_18\n      jump\t// in\n    tag_45:\n      mload(0x40)\n      dup1\n      swap2\n      sub\n      swap1\n      return\n        /* \"Users/danielbauer/Dropbox/WORK/00. Neue Projekte/X.X.X FORTBILDUNG/X.X.X PROGRAMMIERUNG Db/8.X.X SOLIDITY/X.X.X LEARN WEB 3 DAO/CODE/1.7.0 Freshman - Intro to Solidity/contracts/Variables.sol\":811:830  int public i = -123 */\n    tag_12:\n      tag_46\n      tag_47\n      jump\t// in\n    tag_46:\n      mload(0x40)\n      tag_48\n      swap2\n      swap1\n      tag_29\n      jump\t// in\n    tag_48:\n      mload(0x40)\n      dup1\n      swap2\n      sub\n      swap1\n      return\n        /* \"Users/danielbauer/Dropbox/WORK/00. Neue Projekte/X.X.X FORTBILDUNG/X.X.X PROGRAMMIERUNG Db/8.X.X SOLIDITY/X.X.X LEARN WEB 3 DAO/CODE/1.7.0 Freshman - Intro to Solidity/contracts/Variables.sol\":1237:1263  address public defaultAddr */\n    tag_13:\n      tag_49\n      tag_50\n      jump\t// in\n    tag_49:\n      mload(0x40)\n      tag_51\n      swap2\n      swap1\n      tag_33\n      jump\t// in\n    tag_51:\n      mload(0x40)\n      dup1\n      swap2\n      sub\n      swap1\n      return\n        /* \"Users/danielbauer/Dropbox/WORK/00. Neue Projekte/X.X.X FORTBILDUNG/X.X.X PROGRAMMIERUNG Db/8.X.X SOLIDITY/X.X.X LEARN WEB 3 DAO/CODE/1.7.0 Freshman - Intro to Solidity/contracts/Variables.sol\":1171:1194  uint public defaultUint */\n    tag_16:\n      sload(0x05)\n      dup2\n      jump\t// out\n        /* \"Users/danielbauer/Dropbox/WORK/00. Neue Projekte/X.X.X FORTBILDUNG/X.X.X PROGRAMMIERUNG Db/8.X.X SOLIDITY/X.X.X LEARN WEB 3 DAO/CODE/1.7.0 Freshman - Intro to Solidity/contracts/Variables.sol\":1011:1043  bool public defaultBool1 = false */\n    tag_20:\n      0x04\n      0x14\n      swap1\n      sload\n      swap1\n      0x0100\n      exp\n      swap1\n      div\n      0xff\n      and\n      dup2\n      jump\t// out\n        /* \"Users/danielbauer/Dropbox/WORK/00. Neue Projekte/X.X.X FORTBILDUNG/X.X.X PROGRAMMIERUNG Db/8.X.X SOLIDITY/X.X.X LEARN WEB 3 DAO/CODE/1.7.0 Freshman - Intro to Solidity/contracts/Variables.sol\":608:630  uint public u256 = 600 */\n    tag_24:\n      sload(0x01)\n      dup2\n      jump\t// out\n        /* \"Users/danielbauer/Dropbox/WORK/00. Neue Projekte/X.X.X FORTBILDUNG/X.X.X PROGRAMMIERUNG Db/8.X.X SOLIDITY/X.X.X LEARN WEB 3 DAO/CODE/1.7.0 Freshman - Intro to Solidity/contracts/Variables.sol\":1205:1226  int public defaultInt */\n    tag_27:\n      sload(0x06)\n      dup2\n      jump\t// out\n        /* \"Users/danielbauer/Dropbox/WORK/00. Neue Projekte/X.X.X FORTBILDUNG/X.X.X PROGRAMMIERUNG Db/8.X.X SOLIDITY/X.X.X LEARN WEB 3 DAO/CODE/1.7.0 Freshman - Intro to Solidity/contracts/Variables.sol\":909:973  address public addr = 0xAb8483F64d9C6d1EcF9b849Ae677dD3315835cb2 */\n    tag_31:\n      0x04\n      0x00\n      swap1\n      sload\n      swap1\n      0x0100\n      exp\n      swap1\n      div\n      0xffffffffffffffffffffffffffffffffffffffff\n      and\n      dup2\n      jump\t// out\n        /* \"Users/danielbauer/Dropbox/WORK/00. Neue Projekte/X.X.X FORTBILDUNG/X.X.X PROGRAMMIERUNG Db/8.X.X SOLIDITY/X.X.X LEARN WEB 3 DAO/CODE/1.7.0 Freshman - Intro to Solidity/contracts/Variables.sol\":1316:1828  function doSomething() public {... */\n    tag_35:\n        /* \"Users/danielbauer/Dropbox/WORK/00. Neue Projekte/X.X.X FORTBILDUNG/X.X.X PROGRAMMIERUNG Db/8.X.X SOLIDITY/X.X.X LEARN WEB 3 DAO/CODE/1.7.0 Freshman - Intro to Solidity/contracts/Variables.sol\":1429:1436  uint ui */\n      0x00\n        /* \"Users/danielbauer/Dropbox/WORK/00. Neue Projekte/X.X.X FORTBILDUNG/X.X.X PROGRAMMIERUNG Db/8.X.X SOLIDITY/X.X.X LEARN WEB 3 DAO/CODE/1.7.0 Freshman - Intro to Solidity/contracts/Variables.sol\":1439:1442  456 */\n      0x01c8\n        /* \"Users/danielbauer/Dropbox/WORK/00. Neue Projekte/X.X.X FORTBILDUNG/X.X.X PROGRAMMIERUNG Db/8.X.X SOLIDITY/X.X.X LEARN WEB 3 DAO/CODE/1.7.0 Freshman - Intro to Solidity/contracts/Variables.sol\":1429:1442  uint ui = 456 */\n      swap1\n      pop\n        /* \"Users/danielbauer/Dropbox/WORK/00. Neue Projekte/X.X.X FORTBILDUNG/X.X.X PROGRAMMIERUNG Db/8.X.X SOLIDITY/X.X.X LEARN WEB 3 DAO/CODE/1.7.0 Freshman - Intro to Solidity/contracts/Variables.sol\":1700:1714  uint timestamp */\n      0x00\n        /* \"Users/danielbauer/Dropbox/WORK/00. Neue Projekte/X.X.X FORTBILDUNG/X.X.X PROGRAMMIERUNG Db/8.X.X SOLIDITY/X.X.X LEARN WEB 3 DAO/CODE/1.7.0 Freshman - Intro to Solidity/contracts/Variables.sol\":1717:1732  block.timestamp */\n      timestamp\n        /* \"Users/danielbauer/Dropbox/WORK/00. Neue Projekte/X.X.X FORTBILDUNG/X.X.X PROGRAMMIERUNG Db/8.X.X SOLIDITY/X.X.X LEARN WEB 3 DAO/CODE/1.7.0 Freshman - Intro to Solidity/contracts/Variables.sol\":1700:1732  uint timestamp = block.timestamp */\n      swap1\n      pop\n        /* \"Users/danielbauer/Dropbox/WORK/00. Neue Projekte/X.X.X FORTBILDUNG/X.X.X PROGRAMMIERUNG Db/8.X.X SOLIDITY/X.X.X LEARN WEB 3 DAO/CODE/1.7.0 Freshman - Intro to Solidity/contracts/Variables.sol\":1769:1783  address sender */\n      0x00\n        /* \"Users/danielbauer/Dropbox/WORK/00. Neue Projekte/X.X.X FORTBILDUNG/X.X.X PROGRAMMIERUNG Db/8.X.X SOLIDITY/X.X.X LEARN WEB 3 DAO/CODE/1.7.0 Freshman - Intro to Solidity/contracts/Variables.sol\":1786:1796  msg.sender */\n      caller\n        /* \"Users/danielbauer/Dropbox/WORK/00. Neue Projekte/X.X.X FORTBILDUNG/X.X.X PROGRAMMIERUNG Db/8.X.X SOLIDITY/X.X.X LEARN WEB 3 DAO/CODE/1.7.0 Freshman - Intro to Solidity/contracts/Variables.sol\":1769:1796  address sender = msg.sender */\n      swap1\n      pop\n        /* \"Users/danielbauer/Dropbox/WORK/00. Neue Projekte/X.X.X FORTBILDUNG/X.X.X PROGRAMMIERUNG Db/8.X.X SOLIDITY/X.X.X LEARN WEB 3 DAO/CODE/1.7.0 Freshman - Intro to Solidity/contracts/Variables.sol\":1346:1828  {... */\n      pop\n      pop\n      pop\n        /* \"Users/danielbauer/Dropbox/WORK/00. Neue Projekte/X.X.X FORTBILDUNG/X.X.X PROGRAMMIERUNG Db/8.X.X SOLIDITY/X.X.X LEARN WEB 3 DAO/CODE/1.7.0 Freshman - Intro to Solidity/contracts/Variables.sol\":1316:1828  function doSomething() public {... */\n      jump\t// out\n        /* \"Users/danielbauer/Dropbox/WORK/00. Neue Projekte/X.X.X FORTBILDUNG/X.X.X PROGRAMMIERUNG Db/8.X.X SOLIDITY/X.X.X LEARN WEB 3 DAO/CODE/1.7.0 Freshman - Intro to Solidity/contracts/Variables.sol\":582:602  uint8 public u8 = 10 */\n    tag_37:\n      0x00\n      dup1\n      sload\n      swap1\n      0x0100\n      exp\n      swap1\n      div\n      0xff\n      and\n      dup2\n      jump\t// out\n        /* \"Users/danielbauer/Dropbox/WORK/00. Neue Projekte/X.X.X FORTBILDUNG/X.X.X PROGRAMMIERUNG Db/8.X.X SOLIDITY/X.X.X LEARN WEB 3 DAO/CODE/1.7.0 Freshman - Intro to Solidity/contracts/Variables.sol\":1133:1156  bool public defaultBoo2 */\n    tag_41:\n      0x04\n      0x15\n      swap1\n      sload\n      swap1\n      0x0100\n      exp\n      swap1\n      div\n      0xff\n      and\n      dup2\n      jump\t// out\n        /* \"Users/danielbauer/Dropbox/WORK/00. Neue Projekte/X.X.X FORTBILDUNG/X.X.X PROGRAMMIERUNG Db/8.X.X SOLIDITY/X.X.X LEARN WEB 3 DAO/CODE/1.7.0 Freshman - Intro to Solidity/contracts/Variables.sol\":636:656  uint public u = 1230 */\n    tag_44:\n      sload(0x02)\n      dup2\n      jump\t// out\n        /* \"Users/danielbauer/Dropbox/WORK/00. Neue Projekte/X.X.X FORTBILDUNG/X.X.X PROGRAMMIERUNG Db/8.X.X SOLIDITY/X.X.X LEARN WEB 3 DAO/CODE/1.7.0 Freshman - Intro to Solidity/contracts/Variables.sol\":811:830  int public i = -123 */\n    tag_47:\n      sload(0x03)\n      dup2\n      jump\t// out\n        /* \"Users/danielbauer/Dropbox/WORK/00. Neue Projekte/X.X.X FORTBILDUNG/X.X.X PROGRAMMIERUNG Db/8.X.X SOLIDITY/X.X.X LEARN WEB 3 DAO/CODE/1.7.0 Freshman - Intro to Solidity/contracts/Variables.sol\":1237:1263  address public defaultAddr */\n    tag_50:\n      0x07\n      0x00\n      swap1\n      sload\n      swap1\n      0x0100\n      exp\n      swap1\n      div\n      0xffffffffffffffffffffffffffffffffffffffff\n      and\n      dup2\n      jump\t// out\n        /* \"#utility.yul\":7:84   */\n    tag_53:\n        /* \"#utility.yul\":44:51   */\n      0x00\n        /* \"#utility.yul\":73:78   */\n      dup2\n        /* \"#utility.yul\":62:78   */\n      swap1\n      pop\n        /* \"#utility.yul\":7:84   */\n      swap2\n      swap1\n      pop\n      jump\t// out\n        /* \"#utility.yul\":90:208   */\n    tag_54:\n        /* \"#utility.yul\":177:201   */\n      tag_67\n        /* \"#utility.yul\":195:200   */\n      dup2\n        /* \"#utility.yul\":177:201   */\n      tag_53\n      jump\t// in\n    tag_67:\n        /* \"#utility.yul\":172:175   */\n      dup3\n        /* \"#utility.yul\":165:202   */\n      mstore\n        /* \"#utility.yul\":90:208   */\n      pop\n      pop\n      jump\t// out\n        /* \"#utility.yul\":214:436   */\n    tag_18:\n        /* \"#utility.yul\":307:311   */\n      0x00\n        /* \"#utility.yul\":345:347   */\n      0x20\n        /* \"#utility.yul\":334:343   */\n      dup3\n        /* \"#utility.yul\":330:348   */\n      add\n        /* \"#utility.yul\":322:348   */\n      swap1\n      pop\n        /* \"#utility.yul\":358:429   */\n      tag_69\n        /* \"#utility.yul\":426:427   */\n      0x00\n        /* \"#utility.yul\":415:424   */\n      dup4\n        /* \"#utility.yul\":411:428   */\n      add\n        /* \"#utility.yul\":402:408   */\n      dup5\n        /* \"#utility.yul\":358:429   */\n      tag_54\n      jump\t// in\n    tag_69:\n        /* \"#utility.yul\":214:436   */\n      swap3\n      swap2\n      pop\n      pop\n      jump\t// out\n        /* \"#utility.yul\":442:532   */\n    tag_55:\n        /* \"#utility.yul\":476:483   */\n      0x00\n        /* \"#utility.yul\":519:524   */\n      dup2\n        /* \"#utility.yul\":512:525   */\n      iszero\n        /* \"#utility.yul\":505:526   */\n      iszero\n        /* \"#utility.yul\":494:526   */\n      swap1\n      pop\n        /* \"#utility.yul\":442:532   */\n      swap2\n      swap1\n      pop\n      jump\t// out\n        /* \"#utility.yul\":538:647   */\n    tag_56:\n        /* \"#utility.yul\":619:640   */\n      tag_72\n        /* \"#utility.yul\":634:639   */\n      dup2\n        /* \"#utility.yul\":619:640   */\n      tag_55\n      jump\t// in\n    tag_72:\n        /* \"#utility.yul\":614:617   */\n      dup3\n        /* \"#utility.yul\":607:641   */\n      mstore\n        /* \"#utility.yul\":538:647   */\n      pop\n      pop\n      jump\t// out\n        /* \"#utility.yul\":653:863   */\n    tag_22:\n        /* \"#utility.yul\":740:744   */\n      0x00\n        /* \"#utility.yul\":778:780   */\n      0x20\n        /* \"#utility.yul\":767:776   */\n      dup3\n        /* \"#utility.yul\":763:781   */\n      add\n        /* \"#utility.yul\":755:781   */\n      swap1\n      pop\n        /* \"#utility.yul\":791:856   */\n      tag_74\n        /* \"#utility.yul\":853:854   */\n      0x00\n        /* \"#utility.yul\":842:851   */\n      dup4\n        /* \"#utility.yul\":838:855   */\n      add\n        /* \"#utility.yul\":829:835   */\n      dup5\n        /* \"#utility.yul\":791:856   */\n      tag_56\n      jump\t// in\n    tag_74:\n        /* \"#utility.yul\":653:863   */\n      swap3\n      swap2\n      pop\n      pop\n      jump\t// out\n        /* \"#utility.yul\":869:945   */\n    tag_57:\n        /* \"#utility.yul\":905:912   */\n      0x00\n        /* \"#utility.yul\":934:939   */\n      dup2\n        /* \"#utility.yul\":923:939   */\n      swap1\n      pop\n        /* \"#utility.yul\":869:945   */\n      swap2\n      swap1\n      pop\n      jump\t// out\n        /* \"#utility.yul\":951:1066   */\n    tag_58:\n        /* \"#utility.yul\":1036:1059   */\n      tag_77\n        /* \"#utility.yul\":1053:1058   */\n      dup2\n        /* \"#utility.yul\":1036:1059   */\n      tag_57\n      jump\t// in\n    tag_77:\n        /* \"#utility.yul\":1031:1034   */\n      dup3\n        /* \"#utility.yul\":1024:1060   */\n      mstore\n        /* \"#utility.yul\":951:1066   */\n      pop\n      pop\n      jump\t// out\n        /* \"#utility.yul\":1072:1290   */\n    tag_29:\n        /* \"#utility.yul\":1163:1167   */\n      0x00\n        /* \"#utility.yul\":1201:1203   */\n      0x20\n        /* \"#utility.yul\":1190:1199   */\n      dup3\n        /* \"#utility.yul\":1186:1204   */\n      add\n        /* \"#utility.yul\":1178:1204   */\n      swap1\n      pop\n        /* \"#utility.yul\":1214:1283   */\n      tag_79\n        /* \"#utility.yul\":1280:1281   */\n      0x00\n        /* \"#utility.yul\":1269:1278   */\n      dup4\n        /* \"#utility.yul\":1265:1282   */\n      add\n        /* \"#utility.yul\":1256:1262   */\n      dup5\n        /* \"#utility.yul\":1214:1283   */\n      tag_58\n      jump\t// in\n    tag_79:\n        /* \"#utility.yul\":1072:1290   */\n      swap3\n      swap2\n      pop\n      pop\n      jump\t// out\n        /* \"#utility.yul\":1296:1422   */\n    tag_59:\n        /* \"#utility.yul\":1333:1340   */\n      0x00\n        /* \"#utility.yul\":1373:1415   */\n      0xffffffffffffffffffffffffffffffffffffffff\n        /* \"#utility.yul\":1366:1371   */\n      dup3\n        /* \"#utility.yul\":1362:1416   */\n      and\n        /* \"#utility.yul\":1351:1416   */\n      swap1\n      pop\n        /* \"#utility.yul\":1296:1422   */\n      swap2\n      swap1\n      pop\n      jump\t// out\n        /* \"#utility.yul\":1428:1524   */\n    tag_60:\n        /* \"#utility.yul\":1465:1472   */\n      0x00\n        /* \"#utility.yul\":1494:1518   */\n      tag_82\n        /* \"#utility.yul\":1512:1517   */\n      dup3\n        /* \"#utility.yul\":1494:1518   */\n      tag_59\n      jump\t// in\n    tag_82:\n        /* \"#utility.yul\":1483:1518   */\n      swap1\n      pop\n        /* \"#utility.yul\":1428:1524   */\n      swap2\n      swap1\n      pop\n      jump\t// out\n        /* \"#utility.yul\":1530:1648   */\n    tag_61:\n        /* \"#utility.yul\":1617:1641   */\n      tag_84\n        /* \"#utility.yul\":1635:1640   */\n      dup2\n        /* \"#utility.yul\":1617:1641   */\n      tag_60\n      jump\t// in\n    tag_84:\n        /* \"#utility.yul\":1612:1615   */\n      dup3\n        /* \"#utility.yul\":1605:1642   */\n      mstore\n        /* \"#utility.yul\":1530:1648   */\n      pop\n      pop\n      jump\t// out\n        /* \"#utility.yul\":1654:1876   */\n    tag_33:\n        /* \"#utility.yul\":1747:1751   */\n      0x00\n        /* \"#utility.yul\":1785:1787   */\n      0x20\n        /* \"#utility.yul\":1774:1783   */\n      dup3\n        /* \"#utility.yul\":1770:1788   */\n      add\n        /* \"#utility.yul\":1762:1788   */\n      swap1\n      pop\n        /* \"#utility.yul\":1798:1869   */\n      tag_86\n        /* \"#utility.yul\":1866:1867   */\n      0x00\n        /* \"#utility.yul\":1855:1864   */\n      dup4\n        /* \"#utility.yul\":1851:1868   */\n      add\n        /* \"#utility.yul\":1842:1848   */\n      dup5\n        /* \"#utility.yul\":1798:1869   */\n      tag_61\n      jump\t// in\n    tag_86:\n        /* \"#utility.yul\":1654:1876   */\n      swap3\n      swap2\n      pop\n      pop\n      jump\t// out\n        /* \"#utility.yul\":1882:1968   */\n    tag_62:\n        /* \"#utility.yul\":1917:1924   */\n      0x00\n        /* \"#utility.yul\":1957:1961   */\n      0xff\n        /* \"#utility.yul\":1950:1955   */\n      dup3\n        /* \"#utility.yul\":1946:1962   */\n      and\n        /* \"#utility.yul\":1935:1962   */\n      swap1\n      pop\n        /* \"#utility.yul\":1882:1968   */\n      swap2\n      swap1\n      pop\n      jump\t// out\n        /* \"#utility.yul\":1974:2086   */\n    tag_63:\n        /* \"#utility.yul\":2057:2079   */\n      tag_89\n        /* \"#utility.yul\":2073:2078   */\n      dup2\n        /* \"#utility.yul\":2057:2079   */\n      tag_62\n      jump\t// in\n    tag_89:\n        /* \"#utility.yul\":2052:2055   */\n      dup3\n        /* \"#utility.yul\":2045:2080   */\n      mstore\n        /* \"#utility.yul\":1974:2086   */\n      pop\n      pop\n      jump\t// out\n        /* \"#utility.yul\":2092:2306   */\n    tag_39:\n        /* \"#utility.yul\":2181:2185   */\n      0x00\n        /* \"#utility.yul\":2219:2221   */\n      0x20\n        /* \"#utility.yul\":2208:2217   */\n      dup3\n        /* \"#utility.yul\":2204:2222   */\n      add\n        /* \"#utility.yul\":2196:2222   */\n      swap1\n      pop\n        /* \"#utility.yul\":2232:2299   */\n      tag_91\n        /* \"#utility.yul\":2296:2297   */\n      0x00\n        /* \"#utility.yul\":2285:2294   */\n      dup4\n        /* \"#utility.yul\":2281:2298   */\n      add\n        /* \"#utility.yul\":2272:2278   */\n      dup5\n        /* \"#utility.yul\":2232:2299   */\n      tag_63\n      jump\t// in\n    tag_91:\n        /* \"#utility.yul\":2092:2306   */\n      swap3\n      swap2\n      pop\n      pop\n      jump\t// out\n\n    auxdata: 0xa2646970667358221220e057e73be5b3ebaf927f50f82471d0b231532441b367d57164bdf61cb2538de364736f6c63430008120033\n}\n",
				"bytecode": {
					"linkReferences": {},
					"object": "6080604052600a6000806101000a81548160ff021916908360ff1602179055506102586001556104ce6002557fffffffffffffffffffffffffffffffffffffffffffffffffffffffffffffff8560035573ab8483f64d9c6d1ecf9b849ae677dd3315835cb2600460006101000a81548173ffffffffffffffffffffffffffffffffffffffff021916908373ffffffffffffffffffffffffffffffffffffffff1602179055506000600460146101000a81548160ff0219169083151502179055503480156100cb57600080fd5b50610402806100db6000396000f3fe608060405234801561001057600080fd5b50600436106100a95760003560e01c806382692679116100715780638269267914610144578063ab3a58a31461014e578063bb8b83f01461016c578063c6a898c51461018a578063e5aa3d58146101a8578063f2427d37146101c6576100a9565b80631570c2cb146100ae5780632d6f203d146100cc578063459b1acf146100ea5780635abe622b14610108578063767800de14610126575b600080fd5b6100b66101e4565b6040516100c391906102b4565b60405180910390f35b6100d46101ea565b6040516100e191906102ea565b60405180910390f35b6100f26101fd565b6040516100ff91906102b4565b60405180910390f35b610110610203565b60405161011d919061031e565b60405180910390f35b61012e610209565b60405161013b919061037a565b60405180910390f35b61014c61022f565b005b610156610245565b60405161016391906103b1565b60405180910390f35b610174610256565b60405161018191906102ea565b60405180910390f35b610192610269565b60405161019f91906102b4565b60405180910390f35b6101b061026f565b6040516101bd919061031e565b60405180910390f35b6101ce610275565b6040516101db919061037a565b60405180910390f35b60055481565b600460149054906101000a900460ff1681565b60015481565b60065481565b600460009054906101000a900473ffffffffffffffffffffffffffffffffffffffff1681565b60006101c8905060004290506000339050505050565b60008054906101000a900460ff1681565b600460159054906101000a900460ff1681565b60025481565b60035481565b600760009054906101000a900473ffffffffffffffffffffffffffffffffffffffff1681565b6000819050919050565b6102ae8161029b565b82525050565b60006020820190506102c960008301846102a5565b92915050565b60008115159050919050565b6102e4816102cf565b82525050565b60006020820190506102ff60008301846102db565b92915050565b6000819050919050565b61031881610305565b82525050565b6000602082019050610333600083018461030f565b92915050565b600073ffffffffffffffffffffffffffffffffffffffff82169050919050565b600061036482610339565b9050919050565b61037481610359565b82525050565b600060208201905061038f600083018461036b565b92915050565b600060ff82169050919050565b6103ab81610395565b82525050565b60006020820190506103c660008301846103a2565b9291505056fea2646970667358221220e057e73be5b3ebaf927f50f82471d0b231532441b367d57164bdf61cb2538de364736f6c63430008120033",
					"opcodes": "PUSH1 0x80 PUSH1 0x40 MSTORE PUSH1 0xA PUSH1 0x0 DUP1 PUSH2 0x100 EXP DUP2 SLOAD DUP2 PUSH1 0xFF MUL NOT AND SWAP1 DUP4 PUSH1 0xFF AND MUL OR SWAP1 SSTORE POP PUSH2 0x258 PUSH1 0x1 SSTORE PUSH2 0x4CE PUSH1 0x2 SSTORE PUSH32 0xFFFFFFFFFFFFFFFFFFFFFFFFFFFFFFFFFFFFFFFFFFFFFFFFFFFFFFFFFFFFFF85 PUSH1 0x3 SSTORE PUSH20 0xAB8483F64D9C6D1ECF9B849AE677DD3315835CB2 PUSH1 0x4 PUSH1 0x0 PUSH2 0x100 EXP DUP2 SLOAD DUP2 PUSH20 0xFFFFFFFFFFFFFFFFFFFFFFFFFFFFFFFFFFFFFFFF MUL NOT AND SWAP1 DUP4 PUSH20 0xFFFFFFFFFFFFFFFFFFFFFFFFFFFFFFFFFFFFFFFF AND MUL OR SWAP1 SSTORE POP PUSH1 0x0 PUSH1 0x4 PUSH1 0x14 PUSH2 0x100 EXP DUP2 SLOAD DUP2 PUSH1 0xFF MUL NOT AND SWAP1 DUP4 ISZERO ISZERO MUL OR SWAP1 SSTORE POP CALLVALUE DUP1 ISZERO PUSH2 0xCB JUMPI PUSH1 0x0 DUP1 REVERT JUMPDEST POP PUSH2 0x402 DUP1 PUSH2 0xDB PUSH1 0x0 CODECOPY PUSH1 0x0 RETURN INVALID PUSH1 0x80 PUSH1 0x40 MSTORE CALLVALUE DUP1 ISZERO PUSH2 0x10 JUMPI PUSH1 0x0 DUP1 REVERT JUMPDEST POP PUSH1 0x4 CALLDATASIZE LT PUSH2 0xA9 JUMPI PUSH1 0x0 CALLDATALOAD PUSH1 0xE0 SHR DUP1 PUSH4 0x82692679 GT PUSH2 0x71 JUMPI DUP1 PUSH4 0x82692679 EQ PUSH2 0x144 JUMPI DUP1 PUSH4 0xAB3A58A3 EQ PUSH2 0x14E JUMPI DUP1 PUSH4 0xBB8B83F0 EQ PUSH2 0x16C JUMPI DUP1 PUSH4 0xC6A898C5 EQ PUSH2 0x18A JUMPI DUP1 PUSH4 0xE5AA3D58 EQ PUSH2 0x1A8 JUMPI DUP1 PUSH4 0xF2427D37 EQ PUSH2 0x1C6 JUMPI PUSH2 0xA9 JUMP JUMPDEST DUP1 PUSH4 0x1570C2CB EQ PUSH2 0xAE JUMPI DUP1 PUSH4 0x2D6F203D EQ PUSH2 0xCC JUMPI DUP1 PUSH4 0x459B1ACF EQ PUSH2 0xEA JUMPI DUP1 PUSH4 0x5ABE622B EQ PUSH2 0x108 JUMPI DUP1 PUSH4 0x767800DE EQ PUSH2 0x126 JUMPI JUMPDEST PUSH1 0x0 DUP1 REVERT JUMPDEST PUSH2 0xB6 PUSH2 0x1E4 JUMP JUMPDEST PUSH1 0x40 MLOAD PUSH2 0xC3 SWAP2 SWAP1 PUSH2 0x2B4 JUMP JUMPDEST PUSH1 0x40 MLOAD DUP1 SWAP2 SUB SWAP1 RETURN JUMPDEST PUSH2 0xD4 PUSH2 0x1EA JUMP JUMPDEST PUSH1 0x40 MLOAD PUSH2 0xE1 SWAP2 SWAP1 PUSH2 0x2EA JUMP JUMPDEST PUSH1 0x40 MLOAD DUP1 SWAP2 SUB SWAP1 RETURN JUMPDEST PUSH2 0xF2 PUSH2 0x1FD JUMP JUMPDEST PUSH1 0x40 MLOAD PUSH2 0xFF SWAP2 SWAP1 PUSH2 0x2B4 JUMP JUMPDEST PUSH1 0x40 MLOAD DUP1 SWAP2 SUB SWAP1 RETURN JUMPDEST PUSH2 0x110 PUSH2 0x203 JUMP JUMPDEST PUSH1 0x40 MLOAD PUSH2 0x11D SWAP2 SWAP1 PUSH2 0x31E JUMP JUMPDEST PUSH1 0x40 MLOAD DUP1 SWAP2 SUB SWAP1 RETURN JUMPDEST PUSH2 0x12E PUSH2 0x209 JUMP JUMPDEST PUSH1 0x40 MLOAD PUSH2 0x13B SWAP2 SWAP1 PUSH2 0x37A JUMP JUMPDEST PUSH1 0x40 MLOAD DUP1 SWAP2 SUB SWAP1 RETURN JUMPDEST PUSH2 0x14C PUSH2 0x22F JUMP JUMPDEST STOP JUMPDEST PUSH2 0x156 PUSH2 0x245 JUMP JUMPDEST PUSH1 0x40 MLOAD PUSH2 0x163 SWAP2 SWAP1 PUSH2 0x3B1 JUMP JUMPDEST PUSH1 0x40 MLOAD DUP1 SWAP2 SUB SWAP1 RETURN JUMPDEST PUSH2 0x174 PUSH2 0x256 JUMP JUMPDEST PUSH1 0x40 MLOAD PUSH2 0x181 SWAP2 SWAP1 PUSH2 0x2EA JUMP JUMPDEST PUSH1 0x40 MLOAD DUP1 SWAP2 SUB SWAP1 RETURN JUMPDEST PUSH2 0x192 PUSH2 0x269 JUMP JUMPDEST PUSH1 0x40 MLOAD PUSH2 0x19F SWAP2 SWAP1 PUSH2 0x2B4 JUMP JUMPDEST PUSH1 0x40 MLOAD DUP1 SWAP2 SUB SWAP1 RETURN JUMPDEST PUSH2 0x1B0 PUSH2 0x26F JUMP JUMPDEST PUSH1 0x40 MLOAD PUSH2 0x1BD SWAP2 SWAP1 PUSH2 0x31E JUMP JUMPDEST PUSH1 0x40 MLOAD DUP1 SWAP2 SUB SWAP1 RETURN JUMPDEST PUSH2 0x1CE PUSH2 0x275 JUMP JUMPDEST PUSH1 0x40 MLOAD PUSH2 0x1DB SWAP2 SWAP1 PUSH2 0x37A JUMP JUMPDEST PUSH1 0x40 MLOAD DUP1 SWAP2 SUB SWAP1 RETURN JUMPDEST PUSH1 0x5 SLOAD DUP2 JUMP JUMPDEST PUSH1 0x4 PUSH1 0x14 SWAP1 SLOAD SWAP1 PUSH2 0x100 EXP SWAP1 DIV PUSH1 0xFF AND DUP2 JUMP JUMPDEST PUSH1 0x1 SLOAD DUP2 JUMP JUMPDEST PUSH1 0x6 SLOAD DUP2 JUMP JUMPDEST PUSH1 0x4 PUSH1 0x0 SWAP1 SLOAD SWAP1 PUSH2 0x100 EXP SWAP1 DIV PUSH20 0xFFFFFFFFFFFFFFFFFFFFFFFFFFFFFFFFFFFFFFFF AND DUP2 JUMP JUMPDEST PUSH1 0x0 PUSH2 0x1C8 SWAP1 POP PUSH1 0x0 TIMESTAMP SWAP1 POP PUSH1 0x0 CALLER SWAP1 POP POP POP POP JUMP JUMPDEST PUSH1 0x0 DUP1 SLOAD SWAP1 PUSH2 0x100 EXP SWAP1 DIV PUSH1 0xFF AND DUP2 JUMP JUMPDEST PUSH1 0x4 PUSH1 0x15 SWAP1 SLOAD SWAP1 PUSH2 0x100 EXP SWAP1 DIV PUSH1 0xFF AND DUP2 JUMP JUMPDEST PUSH1 0x2 SLOAD DUP2 JUMP JUMPDEST PUSH1 0x3 SLOAD DUP2 JUMP JUMPDEST PUSH1 0x7 PUSH1 0x0 SWAP1 SLOAD SWAP1 PUSH2 0x100 EXP SWAP1 DIV PUSH20 0xFFFFFFFFFFFFFFFFFFFFFFFFFFFFFFFFFFFFFFFF AND DUP2 JUMP JUMPDEST PUSH1 0x0 DUP2 SWAP1 POP SWAP2 SWAP1 POP JUMP JUMPDEST PUSH2 0x2AE DUP2 PUSH2 0x29B JUMP JUMPDEST DUP3 MSTORE POP POP JUMP JUMPDEST PUSH1 0x0 PUSH1 0x20 DUP3 ADD SWAP1 POP PUSH2 0x2C9 PUSH1 0x0 DUP4 ADD DUP5 PUSH2 0x2A5 JUMP JUMPDEST SWAP3 SWAP2 POP POP JUMP JUMPDEST PUSH1 0x0 DUP2 ISZERO ISZERO SWAP1 POP SWAP2 SWAP1 POP JUMP JUMPDEST PUSH2 0x2E4 DUP2 PUSH2 0x2CF JUMP JUMPDEST DUP3 MSTORE POP POP JUMP JUMPDEST PUSH1 0x0 PUSH1 0x20 DUP3 ADD SWAP1 POP PUSH2 0x2FF PUSH1 0x0 DUP4 ADD DUP5 PUSH2 0x2DB JUMP JUMPDEST SWAP3 SWAP2 POP POP JUMP JUMPDEST PUSH1 0x0 DUP2 SWAP1 POP SWAP2 SWAP1 POP JUMP JUMPDEST PUSH2 0x318 DUP2 PUSH2 0x305 JUMP JUMPDEST DUP3 MSTORE POP POP JUMP JUMPDEST PUSH1 0x0 PUSH1 0x20 DUP3 ADD SWAP1 POP PUSH2 0x333 PUSH1 0x0 DUP4 ADD DUP5 PUSH2 0x30F JUMP JUMPDEST SWAP3 SWAP2 POP POP JUMP JUMPDEST PUSH1 0x0 PUSH20 0xFFFFFFFFFFFFFFFFFFFFFFFFFFFFFFFFFFFFFFFF DUP3 AND SWAP1 POP SWAP2 SWAP1 POP JUMP JUMPDEST PUSH1 0x0 PUSH2 0x364 DUP3 PUSH2 0x339 JUMP JUMPDEST SWAP1 POP SWAP2 SWAP1 POP JUMP JUMPDEST PUSH2 0x374 DUP2 PUSH2 0x359 JUMP JUMPDEST DUP3 MSTORE POP POP JUMP JUMPDEST PUSH1 0x0 PUSH1 0x20 DUP3 ADD SWAP1 POP PUSH2 0x38F PUSH1 0x0 DUP4 ADD DUP5 PUSH2 0x36B JUMP JUMPDEST SWAP3 SWAP2 POP POP JUMP JUMPDEST PUSH1 0x0 PUSH1 0xFF DUP3 AND SWAP1 POP SWAP2 SWAP1 POP JUMP JUMPDEST PUSH2 0x3AB DUP2 PUSH2 0x395 JUMP JUMPDEST DUP3 MSTORE POP POP JUMP JUMPDEST PUSH1 0x0 PUSH1 0x20 DUP3 ADD SWAP1 POP PUSH2 0x3C6 PUSH1 0x0 DUP4 ADD DUP5 PUSH2 0x3A2 JUMP JUMPDEST SWAP3 SWAP2 POP POP JUMP INVALID LOG2 PUSH5 0x6970667358 0x22 SLT KECCAK256 0xE0 JUMPI 0xE7 EXTCODESIZE 0xE5 0xB3 0xEB 0xAF SWAP3 PUSH32 0x50F82471D0B231532441B367D57164BDF61CB2538DE364736F6C634300081200 CALLER "
				},
				"gasEstimates": {
					"creation": {
						"codeDepositCost": "205200",
						"executionCost": "139420",
						"totalCost": "344620"
					},
					"external": {
						"addr()": "2603",
						"defaultAddr()": "2624",
						"defaultBoo2()": "2565",
						"defaultBool1()": "2544",
						"defaultInt()": "2496",
						"defaultUint()": "2430",
						"doSomething()": "181",
						"i()": "2517",
						"u()": "2495",
						"u256()": "2474",
						"u8()": "2490"
					}
				},
				"methodIdentifiers": {
					"addr()": "767800de",
					"defaultAddr()": "f2427d37",
					"defaultBoo2()": "bb8b83f0",
					"defaultBool1()": "2d6f203d",
					"defaultInt()": "5abe622b",
					"defaultUint()": "1570c2cb",
					"doSomething()": "82692679",
					"i()": "e5aa3d58",
					"u()": "c6a898c5",
					"u256()": "459b1acf",
					"u8()": "ab3a58a3"
				}
			},
			"storageLayout": {
				"storage": [
					{
						"astId": 4,
						"contract": "Users/danielbauer/Dropbox/WORK/00. Neue Projekte/X.X.X FORTBILDUNG/X.X.X PROGRAMMIERUNG Db/8.X.X SOLIDITY/X.X.X LEARN WEB 3 DAO/CODE/1.7.0 Freshman - Intro to Solidity/contracts/Variables.sol:Variables",
						"label": "u8",
						"offset": 0,
						"slot": "0",
						"type": "t_uint8"
					},
					{
						"astId": 7,
						"contract": "Users/danielbauer/Dropbox/WORK/00. Neue Projekte/X.X.X FORTBILDUNG/X.X.X PROGRAMMIERUNG Db/8.X.X SOLIDITY/X.X.X LEARN WEB 3 DAO/CODE/1.7.0 Freshman - Intro to Solidity/contracts/Variables.sol:Variables",
						"label": "u256",
						"offset": 0,
						"slot": "1",
						"type": "t_uint256"
					},
					{
						"astId": 10,
						"contract": "Users/danielbauer/Dropbox/WORK/00. Neue Projekte/X.X.X FORTBILDUNG/X.X.X PROGRAMMIERUNG Db/8.X.X SOLIDITY/X.X.X LEARN WEB 3 DAO/CODE/1.7.0 Freshman - Intro to Solidity/contracts/Variables.sol:Variables",
						"label": "u",
						"offset": 0,
						"slot": "2",
						"type": "t_uint256"
					},
					{
						"astId": 14,
						"contract": "Users/danielbauer/Dropbox/WORK/00. Neue Projekte/X.X.X FORTBILDUNG/X.X.X PROGRAMMIERUNG Db/8.X.X SOLIDITY/X.X.X LEARN WEB 3 DAO/CODE/1.7.0 Freshman - Intro to Solidity/contracts/Variables.sol:Variables",
						"label": "i",
						"offset": 0,
						"slot": "3",
						"type": "t_int256"
					},
					{
						"astId": 17,
						"contract": "Users/danielbauer/Dropbox/WORK/00. Neue Projekte/X.X.X FORTBILDUNG/X.X.X PROGRAMMIERUNG Db/8.X.X SOLIDITY/X.X.X LEARN WEB 3 DAO/CODE/1.7.0 Freshman - Intro to Solidity/contracts/Variables.sol:Variables",
						"label": "addr",
						"offset": 0,
						"slot": "4",
						"type": "t_address"
					},
					{
						"astId": 20,
						"contract": "Users/danielbauer/Dropbox/WORK/00. Neue Projekte/X.X.X FORTBILDUNG/X.X.X PROGRAMMIERUNG Db/8.X.X SOLIDITY/X.X.X LEARN WEB 3 DAO/CODE/1.7.0 Freshman - Intro to Solidity/contracts/Variables.sol:Variables",
						"label": "defaultBool1",
						"offset": 20,
						"slot": "4",
						"type": "t_bool"
					},
					{
						"astId": 22,
						"contract": "Users/danielbauer/Dropbox/WORK/00. Neue Projekte/X.X.X FORTBILDUNG/X.X.X PROGRAMMIERUNG Db/8.X.X SOLIDITY/X.X.X LEARN WEB 3 DAO/CODE/1.7.0 Freshman - Intro to Solidity/contracts/Variables.sol:Variables",
						"label": "defaultBoo2",
						"offset": 21,
						"slot": "4",
						"type": "t_bool"
					},
					{
						"astId": 24,
						"contract": "Users/danielbauer/Dropbox/WORK/00. Neue Projekte/X.X.X FORTBILDUNG/X.X.X PROGRAMMIERUNG Db/8.X.X SOLIDITY/X.X.X LEARN WEB 3 DAO/CODE/1.7.0 Freshman - Intro to Solidity/contracts/Variables.sol:Variables",
						"label": "defaultUint",
						"offset": 0,
						"slot": "5",
						"type": "t_uint256"
					},
					{
						"astId": 26,
						"contract": "Users/danielbauer/Dropbox/WORK/00. Neue Projekte/X.X.X FORTBILDUNG/X.X.X PROGRAMMIERUNG Db/8.X.X SOLIDITY/X.X.X LEARN WEB 3 DAO/CODE/1.7.0 Freshman - Intro to Solidity/contracts/Variables.sol:Variables",
						"label": "defaultInt",
						"offset": 0,
						"slot": "6",
						"type": "t_int256"
					},
					{
						"astId": 28,
						"contract": "Users/danielbauer/Dropbox/WORK/00. Neue Projekte/X.X.X FORTBILDUNG/X.X.X PROGRAMMIERUNG Db/8.X.X SOLIDITY/X.X.X LEARN WEB 3 DAO/CODE/1.7.0 Freshman - Intro to Solidity/contracts/Variables.sol:Variables",
						"label": "defaultAddr",
						"offset": 0,
						"slot": "7",
						"type": "t_address"
					}
				],
				"types": {
					"t_address": {
						"encoding": "inplace",
						"label": "address",
						"numberOfBytes": "20"
					},
					"t_bool": {
						"encoding": "inplace",
						"label": "bool",
						"numberOfBytes": "1"
					},
					"t_int256": {
						"encoding": "inplace",
						"label": "int256",
						"numberOfBytes": "32"
					},
					"t_uint256": {
						"encoding": "inplace",
						"label": "uint256",
						"numberOfBytes": "32"
					},
					"t_uint8": {
						"encoding": "inplace",
						"label": "uint8",
						"numberOfBytes": "1"
					}
				}
			},
			"userdoc": {
				"kind": "user",
				"methods": {},
				"version": 1
			}
		}
	}
}