{
	"Users/danielbauer/Dropbox/WORK/00. Neue Projekte/X.X.X FORTBILDUNG/X.X.X PROGRAMMIERUNG Db/8.X.X SOLIDITY/X.X.X LEARN WEB 3 DAO/CODE/1.7.0 Freshman - Intro to Solidity/contracts/Conditions.sol": {
		"Conditions": {
			"abi": [
				{
					"inputs": [
						{
							"internalType": "uint256",
							"name": "x",
							"type": "uint256"
						}
					],
					"name": "foo",
					"outputs": [
						{
							"internalType": "uint256",
							"name": "",
							"type": "uint256"
						}
					],
					"stateMutability": "nonpayable",
					"type": "function"
				},
				{
					"inputs": [],
					"name": "get",
					"outputs": [
						{
							"internalType": "uint256",
							"name": "",
							"type": "uint256"
						}
					],
					"stateMutability": "view",
					"type": "function"
				},
				{
					"inputs": [],
					"name": "num",
					"outputs": [
						{
							"internalType": "uint256",
							"name": "",
							"type": "uint256"
						}
					],
					"stateMutability": "view",
					"type": "function"
				},
				{
					"inputs": [
						{
							"internalType": "uint256",
							"name": "_num",
							"type": "uint256"
						}
					],
					"name": "set",
					"outputs": [],
					"stateMutability": "nonpayable",
					"type": "function"
				}
			],
			"devdoc": {
				"kind": "dev",
				"methods": {},
				"version": 1
			},
			"evm": {
				"assembly": "    /* \"Users/danielbauer/Dropbox/WORK/00. Neue Projekte/X.X.X FORTBILDUNG/X.X.X PROGRAMMIERUNG Db/8.X.X SOLIDITY/X.X.X LEARN WEB 3 DAO/CODE/1.7.0 Freshman - Intro to Solidity/contracts/Conditions.sol\":59:1178  contract Conditions {... */\n  mstore(0x40, 0x80)\n  callvalue\n  dup1\n  iszero\n  tag_1\n  jumpi\n  0x00\n  dup1\n  revert\ntag_1:\n  pop\n  dataSize(sub_0)\n  dup1\n  dataOffset(sub_0)\n  0x00\n  codecopy\n  0x00\n  return\nstop\n\nsub_0: assembly {\n        /* \"Users/danielbauer/Dropbox/WORK/00. Neue Projekte/X.X.X FORTBILDUNG/X.X.X PROGRAMMIERUNG Db/8.X.X SOLIDITY/X.X.X LEARN WEB 3 DAO/CODE/1.7.0 Freshman - Intro to Solidity/contracts/Conditions.sol\":59:1178  contract Conditions {... */\n      mstore(0x40, 0x80)\n      callvalue\n      dup1\n      iszero\n      tag_1\n      jumpi\n      0x00\n      dup1\n      revert\n    tag_1:\n      pop\n      jumpi(tag_2, lt(calldatasize, 0x04))\n      shr(0xe0, calldataload(0x00))\n      dup1\n      0x2fbebd38\n      eq\n      tag_3\n      jumpi\n      dup1\n      0x4e70b1dc\n      eq\n      tag_4\n      jumpi\n      dup1\n      0x60fe47b1\n      eq\n      tag_5\n      jumpi\n      dup1\n      0x6d4ce63c\n      eq\n      tag_6\n      jumpi\n    tag_2:\n      0x00\n      dup1\n      revert\n        /* \"Users/danielbauer/Dropbox/WORK/00. Neue Projekte/X.X.X FORTBILDUNG/X.X.X PROGRAMMIERUNG Db/8.X.X SOLIDITY/X.X.X LEARN WEB 3 DAO/CODE/1.7.0 Freshman - Intro to Solidity/contracts/Conditions.sol\":981:1176  function foo(uint x) public returns (uint) {... */\n    tag_3:\n      tag_7\n      0x04\n      dup1\n      calldatasize\n      sub\n      dup2\n      add\n      swap1\n      tag_8\n      swap2\n      swap1\n      tag_9\n      jump\t// in\n    tag_8:\n      tag_10\n      jump\t// in\n    tag_7:\n      mload(0x40)\n      tag_11\n      swap2\n      swap1\n      tag_12\n      jump\t// in\n    tag_11:\n      mload(0x40)\n      dup1\n      swap2\n      sub\n      swap1\n      return\n        /* \"Users/danielbauer/Dropbox/WORK/00. Neue Projekte/X.X.X FORTBILDUNG/X.X.X PROGRAMMIERUNG Db/8.X.X SOLIDITY/X.X.X LEARN WEB 3 DAO/CODE/1.7.0 Freshman - Intro to Solidity/contracts/Conditions.sol\":175:190  uint public num */\n    tag_4:\n      tag_13\n      tag_14\n      jump\t// in\n    tag_13:\n      mload(0x40)\n      tag_15\n      swap2\n      swap1\n      tag_12\n      jump\t// in\n    tag_15:\n      mload(0x40)\n      dup1\n      swap2\n      sub\n      swap1\n      return\n        /* \"Users/danielbauer/Dropbox/WORK/00. Neue Projekte/X.X.X FORTBILDUNG/X.X.X PROGRAMMIERUNG Db/8.X.X SOLIDITY/X.X.X LEARN WEB 3 DAO/CODE/1.7.0 Freshman - Intro to Solidity/contracts/Conditions.sol\":432:490  function set(uint _num) public {... */\n    tag_5:\n      tag_16\n      0x04\n      dup1\n      calldatasize\n      sub\n      dup2\n      add\n      swap1\n      tag_17\n      swap2\n      swap1\n      tag_9\n      jump\t// in\n    tag_17:\n      tag_18\n      jump\t// in\n    tag_16:\n      stop\n        /* \"Users/danielbauer/Dropbox/WORK/00. Neue Projekte/X.X.X FORTBILDUNG/X.X.X PROGRAMMIERUNG Db/8.X.X SOLIDITY/X.X.X LEARN WEB 3 DAO/CODE/1.7.0 Freshman - Intro to Solidity/contracts/Conditions.sol\":758:826  function get() public view returns(uint) {... */\n    tag_6:\n      tag_19\n      tag_20\n      jump\t// in\n    tag_19:\n      mload(0x40)\n      tag_21\n      swap2\n      swap1\n      tag_12\n      jump\t// in\n    tag_21:\n      mload(0x40)\n      dup1\n      swap2\n      sub\n      swap1\n      return\n        /* \"Users/danielbauer/Dropbox/WORK/00. Neue Projekte/X.X.X FORTBILDUNG/X.X.X PROGRAMMIERUNG Db/8.X.X SOLIDITY/X.X.X LEARN WEB 3 DAO/CODE/1.7.0 Freshman - Intro to Solidity/contracts/Conditions.sol\":981:1176  function foo(uint x) public returns (uint) {... */\n    tag_10:\n        /* \"Users/danielbauer/Dropbox/WORK/00. Neue Projekte/X.X.X FORTBILDUNG/X.X.X PROGRAMMIERUNG Db/8.X.X SOLIDITY/X.X.X LEARN WEB 3 DAO/CODE/1.7.0 Freshman - Intro to Solidity/contracts/Conditions.sol\":1018:1022  uint */\n      0x00\n        /* \"Users/danielbauer/Dropbox/WORK/00. Neue Projekte/X.X.X FORTBILDUNG/X.X.X PROGRAMMIERUNG Db/8.X.X SOLIDITY/X.X.X LEARN WEB 3 DAO/CODE/1.7.0 Freshman - Intro to Solidity/contracts/Conditions.sol\":1042:1044  10 */\n      0x0a\n        /* \"Users/danielbauer/Dropbox/WORK/00. Neue Projekte/X.X.X FORTBILDUNG/X.X.X PROGRAMMIERUNG Db/8.X.X SOLIDITY/X.X.X LEARN WEB 3 DAO/CODE/1.7.0 Freshman - Intro to Solidity/contracts/Conditions.sol\":1038:1039  x */\n      dup3\n        /* \"Users/danielbauer/Dropbox/WORK/00. Neue Projekte/X.X.X FORTBILDUNG/X.X.X PROGRAMMIERUNG Db/8.X.X SOLIDITY/X.X.X LEARN WEB 3 DAO/CODE/1.7.0 Freshman - Intro to Solidity/contracts/Conditions.sol\":1038:1044  x < 10 */\n      lt\n        /* \"Users/danielbauer/Dropbox/WORK/00. Neue Projekte/X.X.X FORTBILDUNG/X.X.X PROGRAMMIERUNG Db/8.X.X SOLIDITY/X.X.X LEARN WEB 3 DAO/CODE/1.7.0 Freshman - Intro to Solidity/contracts/Conditions.sol\":1034:1170  if (x < 10) {... */\n      iszero\n      tag_23\n      jumpi\n        /* \"Users/danielbauer/Dropbox/WORK/00. Neue Projekte/X.X.X FORTBILDUNG/X.X.X PROGRAMMIERUNG Db/8.X.X SOLIDITY/X.X.X LEARN WEB 3 DAO/CODE/1.7.0 Freshman - Intro to Solidity/contracts/Conditions.sol\":1067:1068  0 */\n      0x00\n        /* \"Users/danielbauer/Dropbox/WORK/00. Neue Projekte/X.X.X FORTBILDUNG/X.X.X PROGRAMMIERUNG Db/8.X.X SOLIDITY/X.X.X LEARN WEB 3 DAO/CODE/1.7.0 Freshman - Intro to Solidity/contracts/Conditions.sol\":1060:1068  return 0 */\n      swap1\n      pop\n      jump(tag_22)\n        /* \"Users/danielbauer/Dropbox/WORK/00. Neue Projekte/X.X.X FORTBILDUNG/X.X.X PROGRAMMIERUNG Db/8.X.X SOLIDITY/X.X.X LEARN WEB 3 DAO/CODE/1.7.0 Freshman - Intro to Solidity/contracts/Conditions.sol\":1034:1170  if (x < 10) {... */\n    tag_23:\n        /* \"Users/danielbauer/Dropbox/WORK/00. Neue Projekte/X.X.X FORTBILDUNG/X.X.X PROGRAMMIERUNG Db/8.X.X SOLIDITY/X.X.X LEARN WEB 3 DAO/CODE/1.7.0 Freshman - Intro to Solidity/contracts/Conditions.sol\":1093:1095  20 */\n      0x14\n        /* \"Users/danielbauer/Dropbox/WORK/00. Neue Projekte/X.X.X FORTBILDUNG/X.X.X PROGRAMMIERUNG Db/8.X.X SOLIDITY/X.X.X LEARN WEB 3 DAO/CODE/1.7.0 Freshman - Intro to Solidity/contracts/Conditions.sol\":1089:1090  x */\n      dup3\n        /* \"Users/danielbauer/Dropbox/WORK/00. Neue Projekte/X.X.X FORTBILDUNG/X.X.X PROGRAMMIERUNG Db/8.X.X SOLIDITY/X.X.X LEARN WEB 3 DAO/CODE/1.7.0 Freshman - Intro to Solidity/contracts/Conditions.sol\":1089:1095  x < 20 */\n      lt\n        /* \"Users/danielbauer/Dropbox/WORK/00. Neue Projekte/X.X.X FORTBILDUNG/X.X.X PROGRAMMIERUNG Db/8.X.X SOLIDITY/X.X.X LEARN WEB 3 DAO/CODE/1.7.0 Freshman - Intro to Solidity/contracts/Conditions.sol\":1085:1170  if (x < 20) {... */\n      iszero\n      tag_25\n      jumpi\n        /* \"Users/danielbauer/Dropbox/WORK/00. Neue Projekte/X.X.X FORTBILDUNG/X.X.X PROGRAMMIERUNG Db/8.X.X SOLIDITY/X.X.X LEARN WEB 3 DAO/CODE/1.7.0 Freshman - Intro to Solidity/contracts/Conditions.sol\":1118:1119  1 */\n      0x01\n        /* \"Users/danielbauer/Dropbox/WORK/00. Neue Projekte/X.X.X FORTBILDUNG/X.X.X PROGRAMMIERUNG Db/8.X.X SOLIDITY/X.X.X LEARN WEB 3 DAO/CODE/1.7.0 Freshman - Intro to Solidity/contracts/Conditions.sol\":1111:1119  return 1 */\n      swap1\n      pop\n      jump(tag_22)\n        /* \"Users/danielbauer/Dropbox/WORK/00. Neue Projekte/X.X.X FORTBILDUNG/X.X.X PROGRAMMIERUNG Db/8.X.X SOLIDITY/X.X.X LEARN WEB 3 DAO/CODE/1.7.0 Freshman - Intro to Solidity/contracts/Conditions.sol\":1085:1170  if (x < 20) {... */\n    tag_25:\n        /* \"Users/danielbauer/Dropbox/WORK/00. Neue Projekte/X.X.X FORTBILDUNG/X.X.X PROGRAMMIERUNG Db/8.X.X SOLIDITY/X.X.X LEARN WEB 3 DAO/CODE/1.7.0 Freshman - Intro to Solidity/contracts/Conditions.sol\":1158:1159  2 */\n      0x02\n        /* \"Users/danielbauer/Dropbox/WORK/00. Neue Projekte/X.X.X FORTBILDUNG/X.X.X PROGRAMMIERUNG Db/8.X.X SOLIDITY/X.X.X LEARN WEB 3 DAO/CODE/1.7.0 Freshman - Intro to Solidity/contracts/Conditions.sol\":1151:1159  return 2 */\n      swap1\n      pop\n        /* \"Users/danielbauer/Dropbox/WORK/00. Neue Projekte/X.X.X FORTBILDUNG/X.X.X PROGRAMMIERUNG Db/8.X.X SOLIDITY/X.X.X LEARN WEB 3 DAO/CODE/1.7.0 Freshman - Intro to Solidity/contracts/Conditions.sol\":981:1176  function foo(uint x) public returns (uint) {... */\n    tag_22:\n      swap2\n      swap1\n      pop\n      jump\t// out\n        /* \"Users/danielbauer/Dropbox/WORK/00. Neue Projekte/X.X.X FORTBILDUNG/X.X.X PROGRAMMIERUNG Db/8.X.X SOLIDITY/X.X.X LEARN WEB 3 DAO/CODE/1.7.0 Freshman - Intro to Solidity/contracts/Conditions.sol\":175:190  uint public num */\n    tag_14:\n      sload(0x00)\n      dup2\n      jump\t// out\n        /* \"Users/danielbauer/Dropbox/WORK/00. Neue Projekte/X.X.X FORTBILDUNG/X.X.X PROGRAMMIERUNG Db/8.X.X SOLIDITY/X.X.X LEARN WEB 3 DAO/CODE/1.7.0 Freshman - Intro to Solidity/contracts/Conditions.sol\":432:490  function set(uint _num) public {... */\n    tag_18:\n        /* \"Users/danielbauer/Dropbox/WORK/00. Neue Projekte/X.X.X FORTBILDUNG/X.X.X PROGRAMMIERUNG Db/8.X.X SOLIDITY/X.X.X LEARN WEB 3 DAO/CODE/1.7.0 Freshman - Intro to Solidity/contracts/Conditions.sol\":479:483  _num */\n      dup1\n        /* \"Users/danielbauer/Dropbox/WORK/00. Neue Projekte/X.X.X FORTBILDUNG/X.X.X PROGRAMMIERUNG Db/8.X.X SOLIDITY/X.X.X LEARN WEB 3 DAO/CODE/1.7.0 Freshman - Intro to Solidity/contracts/Conditions.sol\":473:476  num */\n      0x00\n        /* \"Users/danielbauer/Dropbox/WORK/00. Neue Projekte/X.X.X FORTBILDUNG/X.X.X PROGRAMMIERUNG Db/8.X.X SOLIDITY/X.X.X LEARN WEB 3 DAO/CODE/1.7.0 Freshman - Intro to Solidity/contracts/Conditions.sol\":473:483  num = _num */\n      dup2\n      swap1\n      sstore\n      pop\n        /* \"Users/danielbauer/Dropbox/WORK/00. Neue Projekte/X.X.X FORTBILDUNG/X.X.X PROGRAMMIERUNG Db/8.X.X SOLIDITY/X.X.X LEARN WEB 3 DAO/CODE/1.7.0 Freshman - Intro to Solidity/contracts/Conditions.sol\":432:490  function set(uint _num) public {... */\n      pop\n      jump\t// out\n        /* \"Users/danielbauer/Dropbox/WORK/00. Neue Projekte/X.X.X FORTBILDUNG/X.X.X PROGRAMMIERUNG Db/8.X.X SOLIDITY/X.X.X LEARN WEB 3 DAO/CODE/1.7.0 Freshman - Intro to Solidity/contracts/Conditions.sol\":758:826  function get() public view returns(uint) {... */\n    tag_20:\n        /* \"Users/danielbauer/Dropbox/WORK/00. Neue Projekte/X.X.X FORTBILDUNG/X.X.X PROGRAMMIERUNG Db/8.X.X SOLIDITY/X.X.X LEARN WEB 3 DAO/CODE/1.7.0 Freshman - Intro to Solidity/contracts/Conditions.sol\":793:797  uint */\n      0x00\n        /* \"Users/danielbauer/Dropbox/WORK/00. Neue Projekte/X.X.X FORTBILDUNG/X.X.X PROGRAMMIERUNG Db/8.X.X SOLIDITY/X.X.X LEARN WEB 3 DAO/CODE/1.7.0 Freshman - Intro to Solidity/contracts/Conditions.sol\":816:819  num */\n      dup1\n      sload\n        /* \"Users/danielbauer/Dropbox/WORK/00. Neue Projekte/X.X.X FORTBILDUNG/X.X.X PROGRAMMIERUNG Db/8.X.X SOLIDITY/X.X.X LEARN WEB 3 DAO/CODE/1.7.0 Freshman - Intro to Solidity/contracts/Conditions.sol\":809:819  return num */\n      swap1\n      pop\n        /* \"Users/danielbauer/Dropbox/WORK/00. Neue Projekte/X.X.X FORTBILDUNG/X.X.X PROGRAMMIERUNG Db/8.X.X SOLIDITY/X.X.X LEARN WEB 3 DAO/CODE/1.7.0 Freshman - Intro to Solidity/contracts/Conditions.sol\":758:826  function get() public view returns(uint) {... */\n      swap1\n      jump\t// out\n        /* \"#utility.yul\":88:205   */\n    tag_30:\n        /* \"#utility.yul\":197:198   */\n      0x00\n        /* \"#utility.yul\":194:195   */\n      dup1\n        /* \"#utility.yul\":187:199   */\n      revert\n        /* \"#utility.yul\":334:411   */\n    tag_32:\n        /* \"#utility.yul\":371:378   */\n      0x00\n        /* \"#utility.yul\":400:405   */\n      dup2\n        /* \"#utility.yul\":389:405   */\n      swap1\n      pop\n        /* \"#utility.yul\":334:411   */\n      swap2\n      swap1\n      pop\n      jump\t// out\n        /* \"#utility.yul\":417:539   */\n    tag_33:\n        /* \"#utility.yul\":490:514   */\n      tag_42\n        /* \"#utility.yul\":508:513   */\n      dup2\n        /* \"#utility.yul\":490:514   */\n      tag_32\n      jump\t// in\n    tag_42:\n        /* \"#utility.yul\":483:488   */\n      dup2\n        /* \"#utility.yul\":480:515   */\n      eq\n        /* \"#utility.yul\":470:533   */\n      tag_43\n      jumpi\n        /* \"#utility.yul\":529:530   */\n      0x00\n        /* \"#utility.yul\":526:527   */\n      dup1\n        /* \"#utility.yul\":519:531   */\n      revert\n        /* \"#utility.yul\":470:533   */\n    tag_43:\n        /* \"#utility.yul\":417:539   */\n      pop\n      jump\t// out\n        /* \"#utility.yul\":545:684   */\n    tag_34:\n        /* \"#utility.yul\":591:596   */\n      0x00\n        /* \"#utility.yul\":629:635   */\n      dup2\n        /* \"#utility.yul\":616:636   */\n      calldataload\n        /* \"#utility.yul\":607:636   */\n      swap1\n      pop\n        /* \"#utility.yul\":645:678   */\n      tag_45\n        /* \"#utility.yul\":672:677   */\n      dup2\n        /* \"#utility.yul\":645:678   */\n      tag_33\n      jump\t// in\n    tag_45:\n        /* \"#utility.yul\":545:684   */\n      swap3\n      swap2\n      pop\n      pop\n      jump\t// out\n        /* \"#utility.yul\":690:1019   */\n    tag_9:\n        /* \"#utility.yul\":749:755   */\n      0x00\n        /* \"#utility.yul\":798:800   */\n      0x20\n        /* \"#utility.yul\":786:795   */\n      dup3\n        /* \"#utility.yul\":777:784   */\n      dup5\n        /* \"#utility.yul\":773:796   */\n      sub\n        /* \"#utility.yul\":769:801   */\n      slt\n        /* \"#utility.yul\":766:885   */\n      iszero\n      tag_47\n      jumpi\n        /* \"#utility.yul\":804:883   */\n      tag_48\n      tag_30\n      jump\t// in\n    tag_48:\n        /* \"#utility.yul\":766:885   */\n    tag_47:\n        /* \"#utility.yul\":924:925   */\n      0x00\n        /* \"#utility.yul\":949:1002   */\n      tag_49\n        /* \"#utility.yul\":994:1001   */\n      dup5\n        /* \"#utility.yul\":985:991   */\n      dup3\n        /* \"#utility.yul\":974:983   */\n      dup6\n        /* \"#utility.yul\":970:992   */\n      add\n        /* \"#utility.yul\":949:1002   */\n      tag_34\n      jump\t// in\n    tag_49:\n        /* \"#utility.yul\":939:1002   */\n      swap2\n      pop\n        /* \"#utility.yul\":895:1012   */\n      pop\n        /* \"#utility.yul\":690:1019   */\n      swap3\n      swap2\n      pop\n      pop\n      jump\t// out\n        /* \"#utility.yul\":1025:1143   */\n    tag_35:\n        /* \"#utility.yul\":1112:1136   */\n      tag_51\n        /* \"#utility.yul\":1130:1135   */\n      dup2\n        /* \"#utility.yul\":1112:1136   */\n      tag_32\n      jump\t// in\n    tag_51:\n        /* \"#utility.yul\":1107:1110   */\n      dup3\n        /* \"#utility.yul\":1100:1137   */\n      mstore\n        /* \"#utility.yul\":1025:1143   */\n      pop\n      pop\n      jump\t// out\n        /* \"#utility.yul\":1149:1371   */\n    tag_12:\n        /* \"#utility.yul\":1242:1246   */\n      0x00\n        /* \"#utility.yul\":1280:1282   */\n      0x20\n        /* \"#utility.yul\":1269:1278   */\n      dup3\n        /* \"#utility.yul\":1265:1283   */\n      add\n        /* \"#utility.yul\":1257:1283   */\n      swap1\n      pop\n        /* \"#utility.yul\":1293:1364   */\n      tag_53\n        /* \"#utility.yul\":1361:1362   */\n      0x00\n        /* \"#utility.yul\":1350:1359   */\n      dup4\n        /* \"#utility.yul\":1346:1363   */\n      add\n        /* \"#utility.yul\":1337:1343   */\n      dup5\n        /* \"#utility.yul\":1293:1364   */\n      tag_35\n      jump\t// in\n    tag_53:\n        /* \"#utility.yul\":1149:1371   */\n      swap3\n      swap2\n      pop\n      pop\n      jump\t// out\n\n    auxdata: 0xa26469706673582212208b8aad1da6c4af0a425167e83368df8605d3b000c31e9d14ff869465082a263f64736f6c63430008120033\n}\n",
				"bytecode": {
					"linkReferences": {},
					"object": "608060405234801561001057600080fd5b506101ea806100206000396000f3fe608060405234801561001057600080fd5b506004361061004c5760003560e01c80632fbebd38146100515780634e70b1dc1461008157806360fe47b11461009f5780636d4ce63c146100bb575b600080fd5b61006b6004803603810190610066919061015d565b6100d9565b6040516100789190610199565b60405180910390f35b610089610109565b6040516100969190610199565b60405180910390f35b6100b960048036038101906100b4919061015d565b61010f565b005b6100c3610119565b6040516100d09190610199565b60405180910390f35b6000600a8210156100ed5760009050610104565b60148210156100ff5760019050610104565b600290505b919050565b60005481565b8060008190555050565b60008054905090565b600080fd5b6000819050919050565b61013a81610127565b811461014557600080fd5b50565b60008135905061015781610131565b92915050565b60006020828403121561017357610172610122565b5b600061018184828501610148565b91505092915050565b61019381610127565b82525050565b60006020820190506101ae600083018461018a565b9291505056fea26469706673582212208b8aad1da6c4af0a425167e83368df8605d3b000c31e9d14ff869465082a263f64736f6c63430008120033",
					"opcodes": "PUSH1 0x80 PUSH1 0x40 MSTORE CALLVALUE DUP1 ISZERO PUSH2 0x10 JUMPI PUSH1 0x0 DUP1 REVERT JUMPDEST POP PUSH2 0x1EA DUP1 PUSH2 0x20 PUSH1 0x0 CODECOPY PUSH1 0x0 RETURN INVALID PUSH1 0x80 PUSH1 0x40 MSTORE CALLVALUE DUP1 ISZERO PUSH2 0x10 JUMPI PUSH1 0x0 DUP1 REVERT JUMPDEST POP PUSH1 0x4 CALLDATASIZE LT PUSH2 0x4C JUMPI PUSH1 0x0 CALLDATALOAD PUSH1 0xE0 SHR DUP1 PUSH4 0x2FBEBD38 EQ PUSH2 0x51 JUMPI DUP1 PUSH4 0x4E70B1DC EQ PUSH2 0x81 JUMPI DUP1 PUSH4 0x60FE47B1 EQ PUSH2 0x9F JUMPI DUP1 PUSH4 0x6D4CE63C EQ PUSH2 0xBB JUMPI JUMPDEST PUSH1 0x0 DUP1 REVERT JUMPDEST PUSH2 0x6B PUSH1 0x4 DUP1 CALLDATASIZE SUB DUP2 ADD SWAP1 PUSH2 0x66 SWAP2 SWAP1 PUSH2 0x15D JUMP JUMPDEST PUSH2 0xD9 JUMP JUMPDEST PUSH1 0x40 MLOAD PUSH2 0x78 SWAP2 SWAP1 PUSH2 0x199 JUMP JUMPDEST PUSH1 0x40 MLOAD DUP1 SWAP2 SUB SWAP1 RETURN JUMPDEST PUSH2 0x89 PUSH2 0x109 JUMP JUMPDEST PUSH1 0x40 MLOAD PUSH2 0x96 SWAP2 SWAP1 PUSH2 0x199 JUMP JUMPDEST PUSH1 0x40 MLOAD DUP1 SWAP2 SUB SWAP1 RETURN JUMPDEST PUSH2 0xB9 PUSH1 0x4 DUP1 CALLDATASIZE SUB DUP2 ADD SWAP1 PUSH2 0xB4 SWAP2 SWAP1 PUSH2 0x15D JUMP JUMPDEST PUSH2 0x10F JUMP JUMPDEST STOP JUMPDEST PUSH2 0xC3 PUSH2 0x119 JUMP JUMPDEST PUSH1 0x40 MLOAD PUSH2 0xD0 SWAP2 SWAP1 PUSH2 0x199 JUMP JUMPDEST PUSH1 0x40 MLOAD DUP1 SWAP2 SUB SWAP1 RETURN JUMPDEST PUSH1 0x0 PUSH1 0xA DUP3 LT ISZERO PUSH2 0xED JUMPI PUSH1 0x0 SWAP1 POP PUSH2 0x104 JUMP JUMPDEST PUSH1 0x14 DUP3 LT ISZERO PUSH2 0xFF JUMPI PUSH1 0x1 SWAP1 POP PUSH2 0x104 JUMP JUMPDEST PUSH1 0x2 SWAP1 POP JUMPDEST SWAP2 SWAP1 POP JUMP JUMPDEST PUSH1 0x0 SLOAD DUP2 JUMP JUMPDEST DUP1 PUSH1 0x0 DUP2 SWAP1 SSTORE POP POP JUMP JUMPDEST PUSH1 0x0 DUP1 SLOAD SWAP1 POP SWAP1 JUMP JUMPDEST PUSH1 0x0 DUP1 REVERT JUMPDEST PUSH1 0x0 DUP2 SWAP1 POP SWAP2 SWAP1 POP JUMP JUMPDEST PUSH2 0x13A DUP2 PUSH2 0x127 JUMP JUMPDEST DUP2 EQ PUSH2 0x145 JUMPI PUSH1 0x0 DUP1 REVERT JUMPDEST POP JUMP JUMPDEST PUSH1 0x0 DUP2 CALLDATALOAD SWAP1 POP PUSH2 0x157 DUP2 PUSH2 0x131 JUMP JUMPDEST SWAP3 SWAP2 POP POP JUMP JUMPDEST PUSH1 0x0 PUSH1 0x20 DUP3 DUP5 SUB SLT ISZERO PUSH2 0x173 JUMPI PUSH2 0x172 PUSH2 0x122 JUMP JUMPDEST JUMPDEST PUSH1 0x0 PUSH2 0x181 DUP5 DUP3 DUP6 ADD PUSH2 0x148 JUMP JUMPDEST SWAP2 POP POP SWAP3 SWAP2 POP POP JUMP JUMPDEST PUSH2 0x193 DUP2 PUSH2 0x127 JUMP JUMPDEST DUP3 MSTORE POP POP JUMP JUMPDEST PUSH1 0x0 PUSH1 0x20 DUP3 ADD SWAP1 POP PUSH2 0x1AE PUSH1 0x0 DUP4 ADD DUP5 PUSH2 0x18A JUMP JUMPDEST SWAP3 SWAP2 POP POP JUMP INVALID LOG2 PUSH5 0x6970667358 0x22 SLT KECCAK256 DUP12 DUP11 0xAD SAR 0xA6 0xC4 0xAF EXP TIMESTAMP MLOAD PUSH8 0xE83368DF8605D3B0 STOP 0xC3 0x1E SWAP14 EQ SELFDESTRUCT DUP7 SWAP5 PUSH6 0x82A263F6473 PUSH16 0x6C634300081200330000000000000000 "
				},
				"gasEstimates": {
					"creation": {
						"codeDepositCost": "98000",
						"executionCost": "147",
						"totalCost": "98147"
					},
					"external": {
						"foo(uint256)": "infinite",
						"get()": "2481",
						"num()": "2429",
						"set(uint256)": "22542"
					}
				},
				"methodIdentifiers": {
					"foo(uint256)": "2fbebd38",
					"get()": "6d4ce63c",
					"num()": "4e70b1dc",
					"set(uint256)": "60fe47b1"
				}
			},
			"storageLayout": {
				"storage": [
					{
						"astId": 3,
						"contract": "Users/danielbauer/Dropbox/WORK/00. Neue Projekte/X.X.X FORTBILDUNG/X.X.X PROGRAMMIERUNG Db/8.X.X SOLIDITY/X.X.X LEARN WEB 3 DAO/CODE/1.7.0 Freshman - Intro to Solidity/contracts/Conditions.sol:Conditions",
						"label": "num",
						"offset": 0,
						"slot": "0",
						"type": "t_uint256"
					}
				],
				"types": {
					"t_uint256": {
						"encoding": "inplace",
						"label": "uint256",
						"numberOfBytes": "32"
					}
				}
			},
			"userdoc": {
				"kind": "user",
				"methods": {},
				"version": 1
			}
		}
	}
}